:02000002B0004C
:1040000000400B00247A0B00000006000D000502A2
:0840100004016810000000002B
:04401800CC740B0059
:1040200009480A49884208B505D0094A824202D0A7
:10403000121A03F0A1F80748074A0021121A03F0E8
:10404000C3F8014808BD00BFB8E5032088790B001C
:104050002CE603202CE60320EDE7032070B5074E85
:10406000074C01F0F1FDA41BA4080025AC4200D1CF
:1040700070BD56F8043B98470135F7E730790B00DF
:1040800054790B0000F04CB808B500F055F8BDE8C5
:10409000084001F091BD00F025BB00F023BB00F00B
:1040A00029BB000008B5034A03490C2000F06EFA52
:1040B000FEE700BF6D430B00E0740B000078B0FA20
:1040C00080F0400970470123037070477047006A11
:1040D0000368DB68184700000A4B10B5044603600C
:1040E00000F01CFF214601F054F901F0B9FE01F087
:1040F000ABFE2046044B40F8043B00F0E5FF2046B1
:1041000010BD00BF18750B0000750B0010B50446FC
:10411000FFF7E2FF20462421FFF7C1FF204610BD34
:104120000348002340681A46194600F09BBA00BFB6
:10413000E4E603200000000038B5122002F070FA17
:1041400005464FF47A7001F00BFD01F089FE04463C
:10415000284602F051FC0AA3D3E9002302F0B6FC82
:1041600002F0ACFF022100EE100A204600F039FDFB
:10417000BDE838404FF47A7001F0F2BCAFF3008034
:104180006666666666664A3F70B5D0E900531426D7
:10419000044606FB0356AE4204D0284600F034FB2A
:1041A0001435F8E7206800F0A5FA204670BD884273
:1041B000F8B504460D46164616D9904215D2A2F11E
:1041C0001406751AA1F114072C44B7421CD02CB167
:1041D0003146204600F081FB337C2374304600F0EA
:1041E00013FB143E143CF0E70ED0B5420CD02CB1BA
:1041F0002946204600F071FB2B7C2374284600F0F2
:1042000003FB14351434F0E7F8BD2DE9F041002329
:10421000C0E9003383604F689F4204460E4623DDA9
:104220004FF0140808FB07F000F05CFA0546D8B11F
:10423000D4E9001208FB0212FFF7B9FF206800F072
:1042400059FA2560A760D6E9007308FB0378B845E2
:1042500008D03946284600F05AFB3B7C2B741437B3
:104260001435F4E7736863602046BDE8F081000010
:1042700070B5244B244A9A6000248CB0C3E90044F2
:10428000022000F09BF92146012000F0A7F9CDE9BA
:104290000044029401F0E4FD1C4C0546694603A865
:1042A000FFF7B3FF264603A906A8FFF7AEFF184B9A
:1042B00046F8043B06A909A8FFF7A7FF09AA1E2193
:1042C000304601F049F909A8FFF75EFF06A8FFF79D
:1042D0005BFF104B2360256203A8FFF755FF0E4BD1
:1042E000236001F0BDFD4FF4165101F0A9FD00F06F
:1042F00015FE214601F006F86846FFF745FF0CB0B1
:1043000070BD00BF2CE603200000FFFF38E603204D
:1043100000750B0008760B0018750B0008B5024BF2
:104320001B689B68019308BD6802030008B5024B37
:104330001B68DB68019308BD6802030008B5024BE7
:104340001B685B68019308BD2C02030008B5024B93
:104350001B681B6B019308BD2C02030008B5024BC0
:104360001B685B68019308BD1802030008B5024B87
:104370001B68DB68019308BD1802030008B5024BF7
:104380001B685B69019308BD1802030008B5024B66
:104390001B685B6C019308BD4802030008B5024B23
:1043A0001B689B6C019308BD4802030008B5024BD3
:1043B0001B68DB6C019308BD4802030008B5024B83
:1043C0001B685B6D019308BD4802030008B5024BF2
:1043D0001B685B69019308BD6402030008B5024BCA
:1043E0001B689B68019308BD3C02030008B5024BA3
:1043F0001B68DB68019308BD3C02030008B5024B53
:104400001B681B69019308BD3C02030008B5024B01
:104410001B685B69019308BD3C02030008B5024BB1
:104420001B689B69019308BD3C02030008B5024B61
:104430001B68DB69019308BD3C02030008B5024B11
:104440001B681B6A019308BD3C02030008B5024BC0
:104450001B689B6A019308BD3C02030008B5024B30
:104460001B68DB6A019308BD3C02030008B5024BE0
:104470001B681B6C019308BD3C02030008B5024B8E
:104480001B681B6A019308BD2802030008B5024B94
:104490001B685B6A019308BD2802030008B5024B44
:1044A0001B689B6A019308BD2802030008B5024BF4
:1044B0001B68DB6A019308BD2802030008B5024BA4
:1044C0001B681B6B019308BD2802030008B5024B53
:1044D0001B685B6B019308BD2802030008B5024B03
:1044E0001B681B6C019308BD2802030008B5024B32
:1044F0001B68DB69019308BD3002030008B5024B5D
:104500001B681B6A019308BD3002030008B5024B0B
:104510001B681B68019308BD4C02030008B5024BE1
:104520001B685B68019308BD4C02030008B5024B91
:104530001B689B68019308BD4C02030008B5024B41
:104540001B681B69019308BD4C02030008B5024BB0
:104550001B685B69019308BD4C02030008B5024B60
:104560001B689B69019308BD4C02030008B5024B10
:104570001B68DB69019308BD4C02030008B5024BC0
:104580001B681B6A019308BD4C02030008B5024B6F
:104590001B685B6B019308BD6002030008B5024B0A
:1045A0001B68DB6E019308BD6002030008B5024B77
:1045B0001B681B6F019308BD6002030008B5024B26
:1045C0001B685B68019308BD2002030008B5024B1D
:1045D0001B685B69019308BD2002030008B5024B0C
:1045E0001B68DB6A019308BD2002030008B5034B7A
:1045F0001B68D3F88830019308BD00002002030037
:1046000008B5034B1B68D3F89430019308BD000034
:104610002002030008B5024B1B685B68019308BDCC
:104620004002030008B5024B1B689B68019308BD5C
:104630004002030008B5024B1B68DB68019308BD0C
:104640004002030008B5024B1B681B69019308BDBB
:104650004002030008B5024B1B685B69019308BD6B
:104660004002030008B5024B1B689B69019308BD1B
:104670004002030008B5024B1B68DB69019308BDCB
:104680004002030008B5024B1B681B6A019308BD7A
:104690004002030008B5024B1B681B6B019308BD69
:1046A0004002030008B5024B1B685B6B019308BD19
:1046B0004002030008B5024B1B681B6C019308BD48
:1046C0004002030008B5024B1B685B6C019308BDF8
:1046D0004002030008B5024B1B68DB6B019308BD69
:1046E0004402030008B5024B1B681B68019308BD18
:1046F0001C02030008B5024B1B685B68019308BDF0
:104700001C02030008B5024B1B689B68019308BD9F
:104710001C02030008B5024B1B685B6A019308BDCD
:104720001C02030008B5024B1B68DB6B019308BD3C
:104730001C02030008B5024B1B681B6C019308BDEB
:104740001C02030008B5024B1B685B6C019308BD9B
:104750001C020300002240681146FFF793BF0022AD
:1047600040681146FFF79EBF40680022FFF792BFE6
:104770004068002281F00101FFF77CBF0023406800
:104780001A461946FFF76EBF002340681A461946BD
:10479000FFF760BF002240681146FFF753BF0022B9
:1047A00040681146FFF73EBF406800220221FFF734
:1047B00041BF002340681A46FFF72CBF024B03227B
:1047C0005A60024A1A6070475CE6032030750B009D
:1047D00010B5044608462170FFF788FE0023636089
:1047E000204610BD054B02221A60054B054A9A600F
:1047F0000020C3E90000FFF7E1BE00BF70E6032020
:1048000064E603200000FFFF10B504460068FFF7D0
:1048100071FF204610BD10B50446006808B1FFF7CF
:1048200069FF0023C4E90133236010BD38B5044695
:104830000D4600680131FFF765FF10B1C4E90005BE
:10484000012038BD10B50368044623B143688B428C
:1048500001D3012010BD2046FFF7E8FF0028F9D062
:10486000A368002BF5D122681370F2E737B50D4627
:10487000114601920446FFF7E5FF019A28B9204648
:10488000FFF7C9FF204603B030BDA260294620686B
:1048900002F072FC2268A3680021D154F2E738B517
:1048A000054600680C4670B16A688B689A4208D366
:1048B000096831B102F0DFFCA368AB600023A3609C
:1048C00038BDFFF717FF23682B6063686B60A36830
:1048D000AB600023C4E90033F1E710B50023C0E961
:1048E0000033044683600373FFF7D9FF204610BDF1
:1048F000884210B5044605D00B682BB18A6819466A
:10490000FFF7B4FF204610BDFFF785FFFAE710B5AB
:1049100000230446C0E9003383600373FFF7E8FF18
:10492000204610BD10B54368013B0446436063B99F
:1049300003689B689847A368013BA3602BB9236871
:104940002046DB68BDE81040184710BD70B5D0E9BF
:104950000053044605EB0316AE4204D02846FFF789
:1049600053FF1035F8E72068FFF7C4FE204670BDFE
:1049700010B50446006808B1FFF7D4FF204610BD0B
:10498000024800230360FFF701BD00BF74E6032067
:10499000F8B506460D468F180024BD420CD033688A
:1049A00015F8011B9B6830469847031E01DB1C4429
:1049B000F3E7002C08BF1C462046F8BD13B504469B
:1049C000084659B1019102F05EFC23680199DB6849
:1049D0000246204602B0BDE81040184702B010BDA4
:1049E00003689B68184738B50D210546FFF7F8FFA7
:1049F0000A2104462846FFF7F3FF204438BD30B5AE
:104A00008BB00023012A8DF8243098BF0A2209AC0C
:104A10000D46B1FBF2F101FB125303F0FF03092B2A
:104A200094BF30333733DBB2AA4204F8013DEFD9EB
:104A30002146FFF7C3FF0BB030BD00002DE9F74F53
:104A400055EC104B06460F4610EE102A10EE100AD9
:104A50002B46294602F0D4FA40B153493046FFF7BD
:104A6000ADFF8246504603B0BDE8F08F25F0004907
:104A70004E4B4FF0FF322046494602F0C1FA48B98A
:104A80004A4B4FF0FF322046494602F09BFA08B9E4
:104A90004749E3E7474B4FF060422046294602F082
:104AA000A5FA08B14449D9E7444B4FF0604220468B
:104AB000294602F07DFA0028F4D100220023204686
:104AC000294602F075FAD0B12D213046FFF788FF54
:104AD00005F1004382461D463949DFF8EC904FF05E
:104AE000000B00204FF000085FFA8BF39F4208D9BB
:104AF00042464B4602F014F90BF1010BF4E78246F3
:104B0000EAE722462B4601F02BFE0D46044602F052
:104B1000B5FA804601F060FF02460B462046294662
:104B200001F01CFE0A2204460D4630464146FFF7BE
:104B300066FF8244002F95D02249DFF88C903046E2
:104B4000FFF73CFF4FF000088244002F8AD0424616
:104B50004B462046294601F0B9FF04460D4602F0B7
:104B600065FAB0F1000B1CDA2D213046FFF738FF53
:104B7000CBF1000103460A2230460193FFF73FFFC5
:104B8000019B18448244584601F036FF02460B460A
:104B90002046294601F0E2FD013F04460D46FFB2E2
:104BA000D3E759460023E6E764750B00FFFFEF7F6C
:104BB00068750B00FFFFEF416C750B00FFFFEFC145
:104BC0000000E03F70750B000000244038B5C9B20A
:104BD0000546FFF733FF04462846FFF704FF20444D
:104BE00038BD38B5044610EE100A0D4601F016FF28
:104BF00041EC100B29462046BDE83840FFF7E6BFE0
:104C00002DE9F04186B000AF05460E46381D14214F
:104C100014463B60FFF77EFD13280ED8391D284649
:104C2000FFF7CCFE04461EB12846FFF7DCFE044425
:104C300020461837BD46BDE8F08100F1080323F097
:104C40000703E846ADEB030D2246411C3B6868466E
:104C5000FFF760FD69462846FFF7B0FE0446C546EB
:104C6000E1E780680368DB6818477047084611B1C0
:104C70000B685B681847704770477047704770470C
:104C800038B504460D4600682E2102F0E0FA23688C
:104C9000C31A2B6023B1037803B10130236820606D
:104CA000184638BD10B50C210446FFF7F8F9204628
:104CB00010BD10B504210446FFF7F1F9204610BDE0
:104CC00010B504210446FFF7EAF9204610BDFFF7AE
:104CD0006DBB08B502F0C5FAB0FA80F0400908BD16
:104CE000704710B50C4601F0BBF8844210D001F0BB
:104CF000C9FC844205D101F0C5FCBDE8104001F0BB
:104D00007AB92CB1236820465B68BDE8104018478B
:104D100010BD0B6803604B68436013B15A680132E1
:104D20005A60704713B504460846019102F0ABFA89
:104D300001990246204602B0BDE8104001F022BCB5
:104D400013B504460846019102F09DFA23680199C3
:104D5000DB680246204602B0BDE81040184707B5A0
:104D600003688DF80710DB6801220DF107019847F1
:104D700003B05DF804FB0EB403B503AB002153F898
:104D8000042B006A0193FFF73BFF02B05DF804EBD0
:104D900003B070470A6802604A6842600022C0E9B6
:104DA000022210B502618C688460CC68C4600C6912
:104DB0008A60CA6004610A6110BD00002DE9F74FE6
:104DC000D0E900844FF0140A00930AFB04F4184B56
:104DD000A41017465C434546002C21DD66100AFBF3
:104DE00006F005EB00093A46B9F804B028580191DD
:104DF0005F4528BF5A4602F04EFA002801994FF04D
:104E000001030BD15F4503D1009A13703446E3E7E9
:104E1000FCD9A61B09F11405013EF7E7F9DBF5E71C
:104E2000A5EB08050248AD10684303B0BDE8F08F5C
:104E3000CDCCCCCC7FB50369057E019103B3F9B12C
:104E4000002600F10C04039603A901A8FFF718FF40
:104E50000146A8B10DF10B03039A8DF80B602046B3
:104E6000FFF7ACFF9DF80B3053B12368142404FB0B
:104E70000034083434F9023C002BA8BFDDB2E3E76C
:104E8000284604B070BD000010B5094C2378BFF36C
:104E90005B8FDB0709D42046FFF710F928B12046C5
:104EA000FFF711F9034802F059F9034810BD00BF9C
:104EB0007CE60320794C0B00B8E5032010B5094CC3
:104EC0002378BFF35B8FDB0709D42046FFF7F6F8A2
:104ED00028B12046FFF7F7F8034802F03FF90348EE
:104EE00010BD00BF80E60320E14C0B00BCE50320B1
:104EF00038B500250446C0E90055C0E90455856071
:104F0000856140F8245FFFF741FAFFF7BDFFE061DC
:104F1000FFF7D4FF25732062204638BD10B50A4C38
:104F20002378BFF35B8FDB070CD42046FFF7C6F86E
:104F300040B10648FFF7DCFF2046FFF7C4F80448FD
:104F400002F00CF9014810BD78E6032088E6032042
:104F500071540B00024A034903480023FFF726BBA4
:104F600055520B00E1510B0061510B0000231A4612
:104F700019461846FFF71ABB37B58D6804466846D0
:104F8000FFF7C7FE6A462946204601F01BFA01A832
:104F9000FFF7EEFC204603B030BD37B5CD680446C0
:104FA0006846FFF7B6FE6A462946204601F0E6F954
:104FB00001A8FFF7DDFC204603B030BD37B50D6911
:104FC00004466846FFF7A5FE6A462946204601F0DA
:104FD0007EF901A8FFF7CCFC204603B030BD0000ED
:104FE00070B58AB00D46014604A8FFF7C5FF144E00
:104FF00004A801F0FFF9E8B104A96846FFF7CDFF66
:1050000002983146FFF765FE044610B12C1E18BF0A
:10501000012401A8FFF7ACFC002CE9D004A96846E4
:10502000FFF7CCFF684601F088F9286001A8FFF778
:105030009FFCDDE705A8FFF79BFC0AB070BD00BF31
:1050400072750B0037B50C4620461349154602F021
:1050500008F950B900F004FF4FF4165100F0F0FECB
:1050600003B0BDE8304000F0FBBE0C49204602F022
:10507000F8F878B94FF4165301A928460193FFF7C1
:10508000AFFF01F0FFFA019900F0B2FF01F0FAFA68
:1050900003B030BD0020FBE777750B007E750B0079
:1050A00070B5D0E900531426044606FB0356AE4201
:1050B00005D005F10800FFF7F3FF1435F7E7206886
:1050C000FFF718FB204670BD10B504460C30FFF703
:1050D000E7FF2046FFF73AFC204610BD10B5044B11
:1050E000044640F8043BFFF7EFFF204610BD00BF29
:1050F00000750B0010B50446FFF7F0FF2046242191
:10510000FEF7CDFF204610BD10B5034B03600446EB
:10511000FFF7E4FF204610BD20760B0010B50446D3
:10512000FFF7F2FF20462421FEF7B9FF204610BD0D
:105130000022C0E9002210B582600C6804604C684F
:1051400044608C680A604A6084608A6010BD10B553
:10515000036804461868FFF731F9204610BD0000C7
:105160002DE9F04F87B0804603931C4B5B68C3F377
:105170000803894616466BB9FFF7D0FE044600F1D6
:105180002403406A0593FFF7A2FD237B2BB105A8FA
:10519000FFF7DDFF07B0BDE8F08F01232373D4E9EB
:1051A00000535FFA89F905EB830AAA4512D055F836
:1051B000047B3146381DFFF73DFE8145F5D33B6842
:1051C000039A0092D3F808B04A463346414638461F
:1051D000D847EAE700232373D9E700BF00ED00E0DA
:1051E0002DE9F74F9B461A4B5B68C3F308038046D3
:1051F000894616466BB9FFF791FE044600F1240379
:10520000406A0193FFF763FD237B2BB101A8FFF7F1
:105210009EFF03B0BDE8F08F01232373D4E9005350
:10522000F6B205EB830A55450ED055F8047B594676
:10523000381DFFF7FFFD8642F5D33B684A46DB6821
:10524000414638469847EEE700232373DEE700BF68
:1052500000ED00E02DE9F341164B5B68C3F3080352
:1052600005460F461BBBFFF759FE00F12403044619
:10527000406A0193FFF72BFDD4E90063462406EB57
:105280008308B04509D101A8FFF761FFA542B4BF6B
:105290000020012002B0BDE8F08156F8040B394629
:1052A0000430FFF7C7FD8442A8BF0446E9E70020A9
:1052B000F0E700BF00ED00E0F8B5D0E901539D42F2
:1052C00004460E460DDB6F1C002F006804DDB9009C
:1052D000FFF718FA18B9F8BDFFF70CFA00202060A4
:1052E000A7602768626807EB85019200A2EB850240
:1052F000081D01F04FFF47F82560636801336360C4
:105300000120E8E737B500F124030446406A019321
:105310000D46FFF7DCFCD4E9003203EB8202934236
:1053200019460BD00968A94203F10403F7D101A87B
:10533000FFF70DFF0025284603B030BD2946204663
:10534000FFF7BAFF05460028F1D06368012B01D1B1
:10535000FFF700FE01A8FFF7FAFEECE770B5044680
:10536000D0E900020B4600EB820282420FD00146D8
:105370001D6851F8046BAE4207D1521A01F00AFFC2
:105380006368013B6360012070BD0846EDE70020C3
:10539000FAE71FB500F124030446406A0191039324
:1053A000FFF795FC01A92046FFF7D8FF18B1636805
:1053B0000BB9FFF7DBFD03A8FFF7C9FE04B010BD72
:1053C00070B5D0E904561823044603FB0656AE42D6
:1053D00015D005F110012046FFF7C0FF63680BB937
:1053E000FFF7C4FDE06929690368DB6898476969CC
:1053F00019B1206A0368DB6898471835E7E7D4E9F4
:105400000453182606FB0356AE4204D02846FFF785
:10541000FBF91835F8E70023636170BD73B50446E6
:10542000FFF7A4FD04F12403606A0193FFF74FFC2A
:105430002046FFF7C5FF01A8FFF789FE606A08B1A3
:10544000FEF7ACFFD4E90453182606FB0356AE4220
:1054500004D02846FFF7D8F91835F8E72069FFF798
:1054600049F92068FFF746F9204602B070BD0000F8
:105470000148FFF7D3BF00BF88E603208842F8B594
:1054800004460D46164615D9904214D2A2F11406D0
:10549000751AA1F114072C44B7421AD01CB1314639
:1054A0002046FFF777FC06F10800FFF7F9FD143EF0
:1054B000143CF1E70DD0B5420BD01CB12946204673
:1054C000FFF768FC05F10800FFF7EAFD1435143416
:1054D000F1E7F8BD8842F8B504460D46164614D9E2
:1054E000904213D2A2F11006751AA1F110072C44B4
:1054F000B74218D01CB131462046FFF7EEF93046CE
:10550000FFF782F9103E103CF2E70CD0B5420AD00A
:105510001CB129462046FFF7E0F92846FFF774F949
:1055200010351034F2E7F8BD70B50E1E054611DDDA
:105530003001FFF7D7F8044658B1D5E9001201EB66
:105540000212FFF7C7FF2868FFF7D4F82C60AE609F
:10555000012070BD0024F6E72DE9F04F904695B08C
:1055600000230391D8F804100A9346229942C0E917
:105570000033C0E90233C0E90433CDE908330446FF
:10558000027623DCD8E90057142303FB0757AF4208
:105590003BD029460BA8FFF7A0F90BA90FA8099E3D
:1055A000FFF79BF9DDE9091399421BDA089B099A79
:1055B00003EB061603EB0212314606F11000FFF76B
:1055C00089FFEEB9099B0133099311E008A8FFF7A1
:1055D000ABFF0028D6D108A8FFF7B8F9204615B0D0
:1055E000BDE8F08F013108A8FFF79EFF0028DDD14C
:1055F0000FA8FFF709F90BA8FFF706F91435C6E75E
:105600000FA93046FFF769F9DCE70026CDE90B6604
:105610000D964FF01409DDE908239E427CDA330130
:10562000D35806930BB90136F5E70023079309FB1E
:1056300006F302930BAD07A906A8FFF721FB8246EC
:105640000028F0D04FF000038DF817300146079A7C
:105650000DF117032846FFF7B1FB9DF81770019075
:10566000002F4AD1BDF81C30ADF84030CDE911779C
:105670004FF6FF73CDF83CA0ADF842301397D5E953
:105680000132934217DB03F1010ABAF1000F30DD5A
:1056900009FB0AF0FFF726F8834660B3D5E900124C
:1056A00009FB0212FFF7EAFE2868FFF723F8C5F8A6
:1056B00000B0C5F808A02B68019A09FB023A6A6895
:1056C000514609FB02320AF11400FFF7D7FEBAF186
:1056D000000F03D00FA95046FFF75CFB6B68013346
:1056E0006B6011A8FFF7DCFC3FB10BA8FFF7D8FCFB
:1056F00071E7BB46D8E70127F3E7019B2D6809FB5B
:105700000355069B1B782BB9D8F80030029A134436
:105710001B7CEB8008358EE721682260626863603D
:10572000A36809920A9A0A93E368A2600B9A0B9302
:105730002369E2600C9A0C93636922610D9A0D93C0
:10574000039B089162612376CFE70000F0B5044621
:1057500087B00D462646194668461746FEF755FDA2
:105760000B4B46F8043B694603A8FEF74EFD03AA1F
:1057700039463046FFF7F0FE03A8FEF705FD684600
:10578000FEF702FD034B23602046256207B0F0BD03
:1057900000750B0008760B00F0B50F4685B01D496B
:1057A0000A9C384616461D4601F05BFDC0B9A4B1FF
:1057B000294601A8FFF7BCFC1749242000F0C6FFCA
:1057C000054630B101AB32462146FFF7BFFF134B10
:1057D0002B6001A8FEF7D8FC2C46204605B0F0BD92
:1057E0000F49384601F03DFD90B9002CF5D029460F
:1057F00001A8FFF79DFC0849242000F0A7FF0546FB
:105800000028E6D001AB32462146FFF79FFFE0E7D4
:105810000024E2E786750B0099770B0020760B00D9
:105820008A750B00014B024A1A60704784E6032018
:105830009B750B002DE9F047089DD0F82090044699
:105840000E461746984600F00BFB81454CD02B794D
:10585000190704D56A6954492046FFF78CFAB8F154
:10586000000F0DD05B212046FFF779FA4146204614
:10587000FFF766FA23684D49DB6802222046984705
:105880002B79DA0723D5D5F808802F21404601F07F
:1058900016FD08B100F1010841462046FFF750FA15
:1058A0002B799B0708D53A212046FFF758FAEA687A
:1058B0003F492046FFF75FFA2A79236812F0040F68
:1058C000DB6814BF3B493C490222204698472B79AC
:1058D00058071DD529690B461A4613F8010B60B10C
:1058E000202808D11946F7E7344800F008FC0028C2
:1058F000ADD0BDE8F0872828EED12368521ADB68C6
:105900002046984723682E49DB68042220469847A2
:1059100000213846FEF742FE01462046FFF710FA06
:1059200023682549DB680222204698471EB131468C
:105930002046FFF705FA2B7913F0300F2CD023689F
:105940002049DB680222204698472B79D9060AD5E0
:1059500023681D49DB68072220469847AA691B492E
:105960002046FFF708FA2B799A0611D5DB0605D5F4
:1059700023681049DB6802222046984723681449AF
:10598000DB6820460A229847E9692046FFF7D8F9E4
:105990005D212046FFF7E3F923680E49DB682046C6
:1059A0000222BDE8F04718479F750B00A6750B0053
:1059B000A9750B00AC750B00B1750B0014E7032043
:1059C000AF750B00B4750B00B7750B00BF750B00FE
:1059D000C2750B00CD750B002DE9F04385B0D0F8F2
:1059E00020900C9C05460F4690461E4600F038FA63
:1059F000814505D1494800F082FB002840F08A80AB
:105A00002B6A474A01924FF0000901A803938DF8D1
:105A1000089000F018FD49464046FEF7BFFD414999
:105A20008046012201A800F09DFD4146FFF77AF96A
:105A30003FB13D49012201A800F094FD3946FFF72E
:105A400071F93EB13949012201A800F08BFD3146C0
:105A5000FFF768F92379DF070ED5A6682F213046B6
:105A600001F02DFC00B1461C3149012201A800F0D3
:105A700079FD3146FFF756F923799E0707D52D4961
:105A8000022201A800F06EFDE16800F0E9FC237934
:105A9000580714D5266933461F4613F8012B2AB13F
:105AA000202A01D11E46F7E7282AF5D122490222F1
:105AB00001A800F057FDBA1B314600F063FD2379C1
:105AC000190707D51D49012201A800F04BFD6169A6
:105AD00000F0D8FC2379DA0608D5042218490DEB2A
:105AE000020000F03FFDA16900F0BAFC23799B069B
:105AF00007D51449062201A800F034FDE169FFF73B
:105B000011F901A800F089FC286A0F4903680222F4
:105B1000DB68984705B0BDE8F08300BF14E70320B9
:105B2000F0750B007C750B00D0750B002C780B000A
:105B30006A750B00D2750B00D5750B00D8750B007C
:105B4000DA750B00DF750B00CD750B00024B1A6880
:105B5000024B1A60704700BFC0E50320B0E6032087
:105B60000021FEF733BD0000014B00229A60704710
:105B7000B4E60320014B1860704700BFC4E5032062
:105B800008B50B4B43B100F06BF903681B699847EC
:105B9000002801DDAFF30080064B43B100F072FD39
:105BA00003681B699847002801DDAFF3008008BD3A
:105BB000000000000000000008B5FFF7E1FFFEF75D
:105BC000DDFB014B186008BD40E703200548064A8D
:105BD000064908B5121A01F0CFFA054B054A1A60BA
:105BE00008BD00BF00F4032004F4032084790B00F7
:105BF00000F403201E1C279A07B5002300931A46C1
:105C00006FF07701FEF7FCFC03B05DF804FB0000C9
:105C100007B543880A2B08D0502B0BD1094B1B68C2
:105C20004BB103B05DF804EB1847FFF7E5FF03B095
:105C30005DF804FB002300931A466FF07701FEF72E
:105C4000DFFCF4E7C8E6032010B512480021FEF798
:105C500079FD114B1A68114B9A42114B0CBF01226E
:105C600000221A7001D0FFF7B1FFFEF777FB044660
:105C700001F0B2FA0B4B13B12046AFF300800021C4
:105C80000848FEF727FDBDE8104007480021FEF751
:105C9000ADBC00BF755B0B0000F403201E1C279AEF
:105CA000C4E6032000000000115C0B00704710B533
:105CB00018210446FEF7F3F9204610BDF0B5037D28
:105CC000062B8DB00E4600F104074FF0000412D0F1
:105CD00000F1080515F8011D0A223046FEF78FFE77
:105CE000AF42044419D0002CF4D02E213046FEF7E8
:105CF00077FE0444EEE72F236A4639460A208DF8E2
:105D00000040FEF763FB684601F0BDFA33680246C7
:105D1000DB68694630469847044620460DB0F0BD22
:105D200010B5054B0446112240F8043B002101F058
:105D30004BFA204610BD00BF84760B000346074A8D
:105D400010B543F8042B01F1100251F8044B43F84D
:105D5000044B9142F9D10A781A7010BD84760B0079
:105D600010B59DF8084044EA032343EA024242EAA0
:105D7000016104234160037510BD000007B5064BA7
:105D80000360CB7800938B784A780978FFF7E8FFB7
:105D900003B05DF804FB00BF84760B0041747047CC
:105DA0007047704708B50021007CFEF7D7FB40EA3A
:105DB000E07008BD08B50121007CFEF7CFFB40EA8A
:105DC000E07008BD08B5007CFEF7C0FB20EAE0707B
:105DD00008BD08B5007CFEF7B1FB20EAE07008BD05
:105DE00013B50446007C0191FEF7B0FB0028019931
:105DF00001DC607C20B1207CFEF7B8FB20EAE0707B
:105E000002B010BD007CFEF7B9BB10B514210446EA
:105E1000FEF745F9204610BD10B54FF47A730446DD
:105E200008460021C4E90113044B236001232074B8
:105E300063741146FEF76AFB204610BD98760B008E
:105E4000007C0022FEF76ABB007CFEF76FBB10B53A
:105E500014220446002101F0B7F9204610BD0000CD
:105E600010B50F4C88B003A8FFF7F1FF2178BFF3FE
:105E70005B8F11F001010FD120460191FEF71EF951
:105E8000019948B103AA0748FFF7C6FF2046FEF76D
:105E90001AF9054801F062F9024808B010BD00BFC8
:105EA000CCE60320D0E60320A15D0B000022406871
:105EB0001146FEF7C7BB002240681146FEF7E2BB61
:105EC000002240681146FEF7EDBB40680022FEF755
:105ED000E1BB4068002281F00101FEF7CBBB00234B
:105EE00040681A461946FEF7BDBB002340681A46B3
:105EF0001946FEF7AFBB002240681146FEF792BB81
:105F0000406800220221FEF795BB002340681A4634
:105F1000FEF780BB084B10B5282422461846002106
:105F200001F052F9054B04804FF0FF324260042229
:105F30005A60034A1A6010BDECE60320E4E6032031
:105F4000C8760B0070474174704708B5007CFEF7B7
:105F50007DFA20EAE07008BD08B5007CFEF74EFA35
:105F600020EAE07008BD08B5007CFEF757FA40EA69
:105F7000E07008BD08B5007CFEF748FA40EAE07022
:105F800008BD007CFEF752BA37B5457C04462DB1FA
:105F9000207C03B0BDE83040FEF728BA007C0191B8
:105FA000FEF754FA00280199F2DC284603B030BD10
:105FB00010B514210446FEF772F8204610BD00000B
:105FC00010B54FF47A730446084611460022C4E91E
:105FD0000123044B2360012320746374FEF746FA07
:105FE000204610BD04770B00007C0023FEF736BA74
:105FF0000022FFF7F9BF007CFEF7F0B97047F8B553
:10600000064615460C468F18BC4206D0336814F875
:10601000011B9B6830469847F6E72846F8BD007C90
:106020000022FEF72BBA007C0021FEF72FBA007C7D
:106030000021FEF733BA007C0021FEF737BA007C5E
:106040000021FEF73BBA10B514210446FEF727F8ED
:10605000204610BD38B5044615464FF47A73002229
:10606000C4E90123094B2174084623602946FEF741
:1060700035FABF3008D16B69DB0705D56868FEF7D4
:1060800039FBE868FEF736FB204638BD34770B0055
:10609000002340681A46FEF7BDBA4068002202217C
:1060A000FEF7C8BA002240681146FEF7BBBA0022CC
:1060B00040681146FEF7C6BA002340681A461946E2
:1060C000FEF7C8BA002340681A461946FEF7CABA56
:1060D00040680021FEF7EEBA40680021FEF7F2BAF0
:1060E0004068002281F00101FEF7C4BA4068002236
:1060F000FEF7D0BA002240681146FEF7D3BA00225C
:1061000040681146FEF7BEBA2DE9F04395B014463B
:106110000D460746FFF704FE00211C220DA8009142
:1061200001F052F840230C9320466B460CAA002144
:10613000FEF7FCF8044600284BD1024601216868AE
:10614000FEF780FA0221804622466868FEF77AFA56
:10615000009E81462146002E3BD0002939D173682C
:10616000022B03D00A2B11D0F669F4E7B8F1000F27
:10617000FAD0716906A8043107ADFFF7FFFD0FCD16
:106180003C1D0FC42B6823704146EDE7B9F1000FA9
:10619000EAD07469102201A801F016F806238DF8E0
:1061A000143001AD04F108031834186859682A4600
:1061B00003C20833A3421546F7D101A906A807ADCB
:1061C000FFF7BCFD0FCD3C1D0FC42B682370494663
:1061D000CAE70098FEF7A2F8384615B0BDE8F0838C
:1061E000024B034A1A6000225A60704714E70320EA
:1061F0005C770B0000F11003012213F8101C012939
:10620000184608D153F8041C02EB4102013A03F18D
:106210001003F2D17047022904BF53F8041C52182E
:10622000F4E70EB4F0B588B000AF07F134051021E3
:1062300055F8042B7A6004462B467818FD60FEF76B
:1062400069FA0F287A681AD900F1080323F00703C6
:106250006E46ADEB030D411C2B466846FD60FEF714
:1062600059FA021E04DD236869469B682046984758
:10627000B5462037BD46BDE8F04003B07047002862
:10628000F7D0236802469B6807F110012046984723
:10629000EFE738B50B6803604D6843689D420446DC
:1062A00008D015B16B6801336B60606808B1FEF708
:1062B00039FB656038BD07B503688DF807109B682A
:1062C00001220DF10701984703B05DF804FB0B466E
:1062D0001146002210B5C0E90022044683600BB9C4
:1062E000204610BDFFF7D5FFFAE78368EBB11A78B7
:1062F000032A1AD8DFE802F00417021B05207047B2
:1063000002685B685268D05C2D2812D0A0F130037F
:10631000092B0ED974280ED066280CD0A0F16E037C
:1063200058425841704706207047002070470420AB
:106330007047032070470220704710B50446FFF7EE
:10634000D4FF02280ED0C31EDBB2012B14D8226862
:10635000A36850685B68BDE810400A220021184419
:1063600001F044B82268A36852685B68D05CA0F171
:1063700074035842584110BD0020FCE738B5002393
:10638000C0E9003304460E48C4E90203A9B10B7802
:10639000032B06D08BB9136858684B68C35C6E2B0F
:1063A00007D013684D6858688B6828445B1BA06051
:1063B000E36011462046FFF76CFF204638BD00BF62
:1063C000CF750B0038B500250B46C0E90055C0E974
:1063D0000255C0E90455044611464BB11A78012A0A
:1063E00006D103F11002DB6882604361FFF751FFC1
:1063F000204638BD10B54369044663B18068E0604B
:10640000013B1030A0602061636113B1FFF7F2FE21
:10641000A060012000E0184610BD10B57D210446A3
:10642000FFF749FF01232371204610BD08B503790A
:10643000012B02D0022B04D008BD2C21FFF73BFF1B
:10644000FAE73A21FAE710B50446FFF7EFFF2046D6
:106450007B21FFF730FF00232371204610BD000091
:1064600013B504460191FFF7E1FF2368019ADB6849
:1064700003492046984701232046237102B010BDEE
:10648000A9750B0013B504460191FFF7CFFF2368F0
:10649000019ADB680349204698470123204623716F
:1064A00002B010BD90770B002DE9F0470D46222178
:1064B00090460446FFF7FFFEDFF8A490A8442F465D
:1064C0004745BA463DD017F8016B222E06D05C2E08
:1064D00004D0304600F048FE0028F1D12368AAEB32
:1064E00005029B682946204698475C212046FFF715
:1064F000E2FE0D2E0AD8072E1CD9A6F10803052BA3
:1065000018D8DFE803F00D0F11171315222E01D054
:106510005C2E0FD131462046FFF7CDFE3D46CFE73A
:106520006221F8E77421F6E76E21F4E76621F2E7CD
:106530007221F0E723683246DB68494620469847D7
:10654000ECE7BD4205D023687A1B9B6829462046AC
:10655000984722212046FFF7AEFEBDE8F08700BF36
:1065600093770B0013B50446CDE90021FFF75EFFDA
:106570002046DDE90021FFF797FF02232046237123
:1065800002B010BD13B50446CDE90021FFF74EFF60
:106590002046DDE90021FFF787FF01232046237114
:1065A00002B010BD232813B502D9002002B010BDDF
:1065B000A0F10B03022B1AD8174C2178BFF35B8F85
:1065C00011F001010BD120460191FDF777FD0199F2
:1065D00028B11248FEF7FCF82046FDF774FD0F4B7A
:1065E0001878FDF78BFF0028DFD10120DEE70128B6
:1065F00009D800F087F80021007CFDF767FF80F0E4
:106600000100C0B2D2E709380128EED800F03AF80C
:10661000007CFDF713FFF2E71CE7032020E70320CF
:106620000D2810B504469CBF0E34A4B22046FFF7D7
:10663000B9FF50B103212046FDF780FE032804D1A5
:106640002046BDE81040FDF781BE002010BD704718
:1066500038B5044614252A46002100F0B5FD2580F2
:106660004025074925812846258200F071F8044914
:106670006060284600F06CF8E060204638BD00BF3E
:1066800099770B0030B50E4D2978BFF35B8F11F071
:10669000010487B011D12846FDF710FD68B101A8AB
:1066A000FFF7D6FF01AA21460648FFF789FC2846D6
:1066B000FDF709FD044800F051FD024807B030BD68
:1066C00028E703202CE703204F660B0070470000EB
:1066D00038B50A4B03600123044643610849202072
:1066E00000F036F8202560600549A560284600F0D6
:1066F0002FF8C4E90305204638BD00BF180001008B
:1067000099770B0030B50E4D2978BFF35B8F11F0F0
:10671000010487B011D12846FDF7D0FC68B1684666
:10672000FFF7D6FF6A4621460648FFF793FC284646
:10673000FDF7C9FC044800F011FD024807B030BD68
:1067400044E7032048E70320CD660B00FDF7A3BC18
:10675000FDF7A3BC81F0004102E000BF83F00043DD
:1067600030B54FEA41044FEA430594EA050F08BFEC
:1067700090EA020F1FBF54EA000C55EA020C7FEAB0
:10678000645C7FEA655C00F0E2804FEA5454D4EB2D
:106790005555B8BF6D420CDD2C4480EA020281EAF7
:1067A000030382EA000083EA010180EA020281EA2F
:1067B0000303362D88BF30BD11F0004F4FEA013181
:1067C0004FF4801C4CEA113102D0404261EB410190
:1067D00013F0004F4FEA03334CEA133302D0524216
:1067E00063EB430394EA050F00F0A780A4F10104D2
:1067F000D5F1200E0DDB02FA0EFC22FA05F280180C
:1068000041F1000103FA0EF2801843FA05F35941F1
:106810000EE0A5F120050EF1200E012A03FA0EFC70
:1068200028BF4CF0020C43FA05F3C01851EBE3719A
:1068300001F0004507D54FF0000EDCF1000C7EEBB7
:1068400000006EEB0101B1F5801F1BD3B1F5001FF5
:106850000CD349085FEA30004FEA3C0C04F1010414
:106860004FEA445212F5800F80F09A80BCF1004F3D
:1068700008BF5FEA500C50F1000041EB045141EABF
:10688000050130BD5FEA4C0C404141EB0101013C88
:1068900028BFB1F5801FE9D291F0000F04BF014677
:1068A0000020B1FA81F308BF2033A3F10B03B3F149
:1068B00020020CDA0C3208DD02F1140CC2F10C02D9
:1068C00001FA0CF021FA02F10CE002F11402D8BF37
:1068D000C2F1200C01FA02F120FA0CFCDCBF41EA03
:1068E0000C019040E41AA2BF01EB0451294330BDD2
:1068F0006FEA04041F3C1CDA0C340EDC04F11404AF
:10690000C4F1200220FA04F001FA02F340EA030085
:1069100021FA04F345EA030130BDC4F10C04C4F1CB
:10692000200220FA02F001FA04F340EA03002946AB
:1069300030BD21FA04F0294630BD94F0000F83F4F5
:10694000801306BF81F480110134013D4EE77FEAD8
:10695000645C18BF7FEA655C29D094EA050F08BF24
:1069600090EA020F05D054EA000C04BF1946104605
:1069700030BD91EA030F1EBF0021002030BD5FEA49
:10698000545C05D14000494128BF41F0004130BD71
:1069900014F580043CBF01F5801130BD01F00045C5
:1069A00045F0FE4141F470014FF0000030BD7FEA38
:1069B000645C1ABF194610467FEA655C1CBF0B4633
:1069C000024650EA013406BF52EA033591EA030F4A
:1069D00041F4002130BD00BF90F0000F04BF002142
:1069E000704730B54FF4806404F132044FF0000575
:1069F0004FF0000150E700BF90F0000F04BF0021EE
:106A0000704730B54FF4806404F1320410F0004553
:106A100048BF40424FF000013EE700BF42004FEA4E
:106A2000E2014FEA31014FEA02701FBF12F07F43CB
:106A300093F07F4F81F06051704732F07F4208BF82
:106A4000704793F07F4F04BF41F40021704730B589
:106A50004FF4607401F0004521F000411CE700BFD5
:106A600050EA010208BF704730B54FF000050AE058
:106A700050EA010208BF704730B511F0004502D559
:106A8000404261EB41014FF4806404F132045FEA5B
:106A9000915C3FF4D8AE4FF003025FEADC0C18BF04
:106AA00003325FEADC0C18BF033202EBDC02C2F1F6
:106AB000200300FA03FC20FA02F001FA03FE40EA88
:106AC0000E0021FA02F11444BDE600BF70B54FF08C
:106AD000FF0C4CF4E06C1CEA11541DBF1CEA13556A
:106AE00094EA0C0F95EA0C0F00F0DEF82C4481EAD2
:106AF000030621EA4C5123EA4C5350EA013518BFF2
:106B000052EA033541F4801143F4801338D0A0FBDE
:106B100002CE4FF00005E1FB02E506F00042E0FB8B
:106B200003E54FF00006E1FB03569CF0000F18BF91
:106B30004EF0010EA4F1FF04B6F5007F64F5407439
:106B400004D25FEA4E0E6D4146EB060642EAC621CC
:106B500041EA55514FEAC52040EA5E504FEACE2E39
:106B6000B4F1FD0C88BFBCF5E06F1ED8BEF1004F3C
:106B700008BF5FEA500E50F1000041EB045170BDB8
:106B800006F0004646EA010140EA020081EA0301FC
:106B9000B4EB5C04C2BFD4EB0C0541EA045170BDF8
:106BA00041F480114FF0000E013C00F3AB8014F172
:106BB000360FDEBF002001F0004170BDC4F10004BB
:106BC000203C35DA0C341BDC04F11404C4F120053C
:106BD00000FA05F320FA04F001FA05F240EA020097
:106BE00001F0004221F0004110EBD37021FA04F6CD
:106BF00042EB06015EEA430E08BF20EAD37070BD87
:106C0000C4F10C04C4F1200500FA04F320FA05F0E5
:106C100001FA04F240EA020001F0004110EBD370E7
:106C200041F100015EEA430E08BF20EAD37070BD57
:106C3000C4F1200500FA05F24EEA020E20FA04F330
:106C400001FA05F243EA020321FA04F001F00041DF
:106C500021FA04F220EA020000EBD3705EEA430E50
:106C600008BF20EAD37070BD94F0000F0FD101F07F
:106C70000046400041EB010111F4801F08BF013CB8
:106C8000F7D041EA060195F0000F18BF704703F0F6
:106C90000046520043EB030313F4801F08BF013D7D
:106CA000F7D043EA0603704794EA0C0F0CEA135539
:106CB00018BF95EA0C0F0CD050EA410618BF52EAF3
:106CC0004306D1D181EA030101F000414FF00000F9
:106CD00070BD50EA410606BF1046194652EA430607
:106CE00019D094EA0C0F02D150EA013613D195EA7B
:106CF0000C0F05D152EA03361CBF104619460AD1C3
:106D000081EA030101F0004141F0FE4141F47001CC
:106D10004FF0000070BD41F0FE4141F4780170BDBC
:106D200070B54FF0FF0C4CF4E06C1CEA11541DBF21
:106D30001CEA135594EA0C0F95EA0C0F00F0A7F823
:106D4000A4EB050481EA030E52EA03354FEA013150
:106D500000F088804FEA03334FF0805545EA131363
:106D600043EA12634FEA022245EA111545EA10652B
:106D70004FEA00260EF000419D4208BF964244F1C2
:106D8000FD0404F5407402D25B084FEA3202B61AE1
:106D900065EB03055B084FEA32024FF480104FF4B5
:106DA000002CB6EB020E75EB030E22BFB61A754629
:106DB00040EA0C005B084FEA3202B6EB020E75EBBC
:106DC000030E22BFB61A754640EA5C005B084FEA24
:106DD0003202B6EB020E75EB030E22BFB61A7546F1
:106DE00040EA9C005B084FEA3202B6EB020E75EBFC
:106DF000030E22BFB61A754640EADC0055EA060EBD
:106E000018D04FEA051545EA16754FEA06164FEAFF
:106E1000C30343EA52734FEAC2025FEA1C1CC0D1AB
:106E200011F4801F0BD141EA00014FF000004FF038
:106E3000004CB6E711F4801F04BF01430020B4F1F9
:106E4000FD0C88BFBCF5E06F3FF6AFAEB5EB030CB1
:106E500004BFB6EB020C5FEA500C50F1000041EBAE
:106E6000045170BD0EF0004E4EEA113114EB5C047B
:106E7000C2BFD4EB0C0541EA045170BD41F480114E
:106E80004FF0000E013C90E645EA060E8DE60CEA56
:106E9000135594EA0C0F08BF95EA0C0F3FF43BAF73
:106EA00094EA0C0F0AD150EA01347FF434AF95EA2A
:106EB0000C0F7FF425AF104619462CE795EA0C0F0E
:106EC00006D152EA03353FF4FDAE1046194622E7DB
:106ED00050EA410618BF52EA43067FF4C5AE50EAB5
:106EE00041047FF40DAF52EA43057FF4EBAE12E7A5
:106EF0004FF0FF3C06E000BF4FF0010C02E000BF86
:106F00004FF0010C4DF804CD4FEA410C7FEA6C5C68
:106F10004FEA430C18BF7FEA6C5C1BD001B050EA0B
:106F2000410C0CBF52EA430C91EA030F02BF90EAF6
:106F3000020F0020704710F1000F91EA030F58BFB5
:106F4000994208BF90422CBFD8176FEAE37040F017
:106F5000010070474FEA410C7FEA6C5C02D150EAB5
:106F6000013C07D14FEA430C7FEA6C5CD6D152EA70
:106F7000033CD3D05DF8040B704700BF8446104635
:106F800062468C461946634600E000BF01B5FFF734
:106F9000B7FF002848BF10F1000F01BD4DF808ED04
:106FA000FFF7F4FF0CBF012000205DF808FB00BFD5
:106FB0004DF808EDFFF7EAFF34BF012000205DF82F
:106FC00008FB00BF4DF808EDFFF7E0FF94BF01207C
:106FD00000205DF808FB00BF4DF808EDFFF7CEFF7D
:106FE00094BF012000205DF808FB00BF4DF808EDBC
:106FF000FFF7C4FF34BF012000205DF808FB00BF8D
:107000004FEA410C7FEA6C5C02D150EA013C0AD1A4
:107010004FEA430C7FEA6C5C02D152EA033C02D196
:107020004FF0000070474FF0010070474FEA4102F7
:1070300012F5001215D211D56FF47873B3EB6252CA
:1070400012D94FEAC12343F0004343EA505311F0F1
:10705000004F23FA02F018BF404270474FF0000083
:10706000704750EA013005D111F0004008BF6FF0C1
:10707000004070474FF00000704700BF4A0011D237
:1070800012F5001211D20DD56FF47873B3EB625282
:107090000ED44FEAC12343F0004343EA505323FA8E
:1070A00002F070474FF00000704750EA013002D103
:1070B0004FF0FF3070474FF0000070474FEA410239
:1070C000B2F1E04324BFB3F5001CDCF1FE5C0DD946
:1070D00001F0004C4FEAC0024CEA5070B2F1004F90
:1070E00040EB830008BF20F00100704711F0804F93
:1070F00021D113F13872BCBF01F00040704741F458
:1071000080114FEA5252C2F11802C2F1200C10FA5B
:107110000CF320FA02F018BF40F001004FEAC1233F
:107120004FEAD32303FA0CFC40EA0C0023FA02F3E3
:107130004FEA4303CCE77FEA625307D150EA0133B9
:107140001EBF4FF0FE4040F44000704701F0004089
:1071500040F0FE4040F40000704700BF00230146AD
:107160001A46184600F04CB9024B1844407800F01B
:10717000970070472E780B000A44914200F1FF33CC
:1071800000D1704710B511F8014B03F8014F91423F
:10719000F9D110BD884210B501EB020402D9844236
:1071A000234607D8431EA14208D011F8012B03F84B
:1071B000012FF8E7024401468A4200D110BD13F8BE
:1071C000014D02F8014DF7E702440346934200D116
:1071D000704703F8011BF9E738B5104B1D68AB6B1E
:1071E0000446B3B91820FDF77DFA0246A86320B91A
:1071F0000B4B0C484221FDF79DFA0B490B4BC0E9A4
:1072000000130B4B83600B23838100210120C2E913
:107210000401AB6B00221C615A6138BDC4E5032038
:107220009A770B00B1770B000E33CDAB34126DE6BD
:10723000ECDE0500C9B2034610F8012B1AB18A42F0
:10724000F9D118467047002918BF0023F9E710B597
:107250000446FFF7EFFF18B9204600F014F8204469
:1072600010BD10F8012B11F8013B012A28BF9A42EA
:10727000F7D0D01A7047034611F8012B03F8012B01
:10728000002AF9D17047034613F8012B002AFBD1DD
:10729000181A0138704710B57AB1034601398418BD
:1072A00013F8010B11F8012F904201D1A34201D133
:1072B000801A10BD0028F3D1FAE71046F9E738B577
:1072C00003460C4669B9BDE83840FFF7B3BF431C1D
:1072D000054621461846FFF7ADFF0028F7D128469E
:1072E00038BD0025F5E70000012B2DE9F04701D05E
:1072F000242B06D9FDF716FA162303600020BDE8FB
:10730000F087DFF8E4C00D462E4615F8014B14F85F
:107310000C7017F00807F7D12D2C32D12C780127EB
:10732000B51C002B5BD0102B09D1302C07D12C7849
:1073300004F0DF04582C4DD16C781023023507F18E
:10734000004808F1FF384FF0000CB8FBF3F966462F
:1073500003FB198AA4F1300EBEF1090F16D874464A
:10736000A34224DDBCF1000F1EDBB1451CD301D1CB
:10737000A24519DB06FB03464FF0010C15F8014B43
:10738000E8E72B2C04BF2C78B51CCAE7A4F1410E0A
:10739000BEF1190F01D8373CE2E7A4F1610EBEF14E
:1073A000190F04D8573CDBE74FF0FF3CE6E7BCF190
:1073B000000F05DA22230360464642B930469EE7B5
:1073C00007B17642002AF9D0BCF1000F00D0691E47
:1073D0001160F3E73024002BB1D10823AFE7302C44
:1073E000A5D00A23ABE700BF2F780B0013460A464F
:1073F000014602480068FFF777BF00BFC4E50320DD
:107400002DE9F843DFF8B8800646D8F800001F469B
:107410000D46914600F056F8254B1C6834B9254CB2
:107420001C60254B13B11B68C4F8883063681F2BA0
:1074300007DDD8F8000000F047F84FF0FF30BDE856
:10744000F8834EB3D4F8880088B91C4B23B9D8F818
:10745000000000F038F8F0E74FF48470FDF742F9CF
:107460000028F4D00023C0E94033C4F888006368E2
:1074700040F8239001229A4000EB8301D0F80031BC
:107480001343C0F80031022EC1F8807002BFD0F85B
:1074900004311343C0F804316368D8F800005A1C63
:1074A0000233626044F8235000F00EF80020C6E773
:1074B000E8E703205CE7032000000000E5460B003E
:1074C00028E60320704770477047000021400B00FA
:1074D0005D400B0085400B0089400B000000000060
:1074E00043616C6C206F6E207075726520766972D6
:1074F0007475616C000000000000000000000000D6
:107500000000000000000000A5400B00CD400B0073
:107510000000000000000000D9400B000D410B00EE
:1075200035580B00CF400B000000000000000000A9
:10753000B3470B00A9470B009F470B0095470B0073
:1075400089470B007D470B00D1600B00D9600B0011
:1075500071470B0069470B005F470B0055470B0055
:1075600009610B006E616E00696E66006F766600E1
:107570002E00626175640053657269616C00536529
:107580007269616C31004A534F4E53747265616D7C
:107590004C6F6748616E646C6572006170700025A5
:1075A0003031307520005D20002564002C2000283B
:1075B000293A2000205B00636F6465203D20002590
:1075C000690064657461696C73203D20000D0A00D8
:1075D0006D006C6E00666E007400636F646500641D
:1075E000657461696C00000000000000000000008C
:1075F0007F4C0B00A54C0B00634C0B0023620B006F
:107600000000000000000000DD500B00F5500B00F2
:1076100035580B00CF400B000000000000000000B8
:1076200009510B001D510B00D9590B006B4C0B007D
:1076300000000000000000007D4C0B00B34C0B006C
:1076400099570B006D4C0B0000000000000000007B
:107650007B4C0B00C14C0B0045500B00E34C0B0066
:1076600025592D256D2D25645425483A254D3A255B
:1076700053257A0061736374696D65000000000032
:1076800000000000BD5C0B00AD5C0B00AF5C0B00AC
:107690000000000000000000A35D0B000B5E0B006B
:1076A000E15D0B0091490B00D35D0B00A55D0B0064
:1076B000B55D0B00055E0B00C55D0B009D5D0B000D
:1076C00000000000000000000B5F0B00015F0B00DA
:1076D000F75E0B00AD5E0B00EB5E0B00DF5E0B0098
:1076E000D1600B00D9600B00D35E0B00CB5E0B00AA
:1076F000C15E0B00B75E0B0009610B0000000000CB
:1077000000000000455F0B00B15F0B00895F0B00BC
:1077100091490B00595F0B00755F0B00675F0B0011
:10772000835F0B00475F0B004B5F0B000000000006
:1077300000000000FD5F0B0047600B001F600B00A6
:10774000FF5F0B0027600B002F600B0037600B0002
:107750003F600B00000000000000000091600B0083
:107760009B600B00A5600B00AF600B00B9600B00C5
:10777000C5600B00D1600B00D9600B00E1600B000D
:10778000ED600B00F5600B00FF600B0009610B0062
:10779000257500752530347800005245454E54203B
:1077A0006D616C6C6F63207375636365656465649C
:1077B000002F6D6E742F776F726B73706163652F1E
:1077C000776F726B73706163652F4743432D313060
:1077D0002D706970656C696E652F6A656E6B696E78
:1077E000732D4743432D31302D706970656C696E80
:1077F000652D34385F32303230313132345F3136DA
:1078000030363138303634312F7372632F6E6577EE
:107810006C69622F6E65776C69622F6C6962632F89
:107820007374646C69622F72616E642E6300002051
:107830002020202020202020282828282820202020
:1078400020202020202020202020202020202088D0
:107850001010101010101010101010101010100434
:107860000404040404040404041010101010101084
:107870004141414141410101010101010101010178
:10788000010101010101010101011010101010108E
:107890004242424242420202020202020202020248
:1078A0000202020202020202020210101010200064
:1078B00000000000000000000000000000000000C8
:1078C00000000000000000000000000000000000B8
:1078D00000000000000000000000000000000000A8
:1078E0000000000000000000000000000000000098
:1078F0000000000000000000000000000000000088
:107900000000000000000000000000000000000077
:107910000000000000000000000000000000000067
:107920000000000000000000000000000000000057
:1079300071420B00BD470B00E5470B0081490B006E
:1079400025580B004D5B0B00695B0B00155F0B00AE
:10795000E1610B00000000000000000000000000DA
:10796000040000001400000003000000474E550012
:107970004B05E25EBF0BEE80422A9CA97500B7C59D
:047980000BB1F6153C
:0479840000000000FF
:1079880038760B0050760B0074760B00C8E50320A0
:1079980000000000000000000000000000000000DF
:1079A80000000000000000000000000000000000CF
:1079B80000000000000000000000000000000000BF
:1079C80000000000000000000000000000000000AF
:1079D800000000000000000000000000000000009F
:1079E800000000000000000000000000000000008F
:0479F800ECE7032095
:1079FC00FFFFFFFF00000102030405060708090A48
:107A0C000B0C0D0E0F101112131415161718191A42
:087A1C001B1C1D1E1F20280089
:047A2400785634124A
:04000003B0004020E9
:00000001FF
