:02000002B0004C
:1040000000400B00CA7A0B00000006000D000502FC
:084010000401D41700000000B8
:044018005C750B00C8
:1040200081F0004102E000BF83F0004330B54FEA69
:1040300041044FEA430594EA050F08BF90EA020FD6
:104040001FBF54EA000C55EA020C7FEA645C7FEA69
:10405000655C00F0E2804FEA5454D4EB5555B8BF8C
:104060006D420CDD2C4480EA020281EA030382EAFD
:10407000000083EA010180EA020281EA0303362D8F
:1040800088BF30BD11F0004F4FEA01314FF4801C62
:104090004CEA113102D0404261EB410113F0004F74
:1040A0004FEA03334CEA133302D0524263EB43032B
:1040B00094EA050F00F0A780A4F10104D5F1200EC9
:1040C0000DDB02FA0EFC22FA05F2801841F1000124
:1040D00003FA0EF2801843FA05F359410EE0A5F1F8
:1040E00020050EF1200E012A03FA0EFC28BF4CF029
:1040F000020C43FA05F3C01851EBE37101F00045DF
:1041000007D54FF0000EDCF1000C7EEB00006EEBEB
:104110000101B1F5801F1BD3B1F5001F0CD3490875
:104120005FEA30004FEA3C0C04F101044FEA4452CC
:1041300012F5800F80F09A80BCF1004F08BF5FEA53
:10414000500C50F1000041EB045141EA050130BD33
:104150005FEA4C0C404141EB0101013C28BFB1F545
:10416000801FE9D291F0000F04BF01460020B1FA90
:1041700081F308BF2033A3F10B03B3F120020CDA63
:104180000C3208DD02F1140CC2F10C0201FA0CF041
:1041900021FA02F10CE002F11402D8BFC2F1200CA6
:1041A00001FA02F120FA0CFCDCBF41EA0C0190405C
:1041B000E41AA2BF01EB0451294330BD6FEA0404A5
:1041C0001F3C1CDA0C340EDC04F11404C4F1200290
:1041D00020FA04F001FA02F340EA030021FA04F3A2
:1041E00045EA030130BDC4F10C04C4F1200220FAF9
:1041F00002F001FA04F340EA0300294630BD21FA37
:1042000004F0294630BD94F0000F83F4801306BFFC
:1042100081F480110134013D4EE77FEA645C18BFF0
:104220007FEA655C29D094EA050F08BF90EA020F87
:1042300005D054EA000C04BF1946104630BD91EA7F
:10424000030F1EBF0021002030BD5FEA545C05D182
:104250004000494128BF41F0004130BD14F58004C1
:104260003CBF01F5801130BD01F0004545F0FE4135
:1042700041F470014FF0000030BD7FEA645C1ABF6A
:10428000194610467FEA655C1CBF0B46024650EAA1
:10429000013406BF52EA033591EA030F41F40021CD
:1042A00030BD00BF90F0000F04BF0021704730B553
:1042B0004FF4806404F132044FF000054FF0000128
:1042C00050E700BF90F0000F04BF0021704730B5E9
:1042D0004FF4806404F1320410F0004548BF4042BE
:1042E0004FF000013EE700BF42004FEAE2014FEA13
:1042F00031014FEA02701FBF12F07F4393F07F4FEE
:1043000081F06051704732F07F4208BF704793F0F0
:104310007F4F04BF41F40021704730B54FF4607403
:1043200001F0004521F000411CE700BF50EA010206
:1043300008BF704730B54FF000050AE050EA0102AF
:1043400008BF704730B511F0004502D5404261EB1F
:1043500041014FF4806404F132045FEA915C3FF460
:10436000D8AE4FF003025FEADC0C18BF03325FEAFD
:10437000DC0C18BF033202EBDC02C2F1200300FAAE
:1043800003FC20FA02F001FA03FE40EA0E0021FAD3
:1043900002F11444BDE600BF70B54FF0FF0C4CF4C1
:1043A000E06C1CEA11541DBF1CEA135594EA0C0F73
:1043B00095EA0C0F00F0DEF82C4481EA030621EAAE
:1043C0004C5123EA4C5350EA013518BF52EA0335E9
:1043D00041F4801143F4801338D0A0FB02CE4FF09B
:1043E0000005E1FB02E506F00042E0FB03E54FF0CB
:1043F0000006E1FB03569CF0000F18BF4EF0010EC3
:10440000A4F1FF04B6F5007F64F5407404D25FEABE
:104410004E0E6D4146EB060642EAC62141EA555171
:104420004FEAC52040EA5E504FEACE2EB4F1FD0CB3
:1044300088BFBCF5E06F1ED8BEF1004F08BF5FEA31
:10444000500E50F1000041EB045170BD06F00046E3
:1044500046EA010140EA020081EA0301B4EB5C0490
:10446000C2BFD4EB0C0541EA045170BD41F4801188
:104470004FF0000E013C00F3AB8014F1360FDEBFAD
:10448000002001F0004170BDC4F10004203C35DA89
:104490000C341BDC04F11404C4F1200500FA05F30C
:1044A00020FA04F001FA05F240EA020001F00042AD
:1044B00021F0004110EBD37021FA04F642EB060123
:1044C0005EEA430E08BF20EAD37070BDC4F10C044D
:1044D000C4F1200500FA04F320FA05F001FA04F211
:1044E00040EA020001F0004110EBD37041F10001FD
:1044F0005EEA430E08BF20EAD37070BDC4F1200508
:1045000000FA05F24EEA020E20FA04F301FA05F26F
:1045100043EA020321FA04F001F0004121FA04F217
:1045200020EA020000EBD3705EEA430E08BF20EAE7
:10453000D37070BD94F0000F0FD101F00046400021
:1045400041EB010111F4801F08BF013CF7D041EAA3
:10455000060195F0000F18BF704703F000465200A7
:1045600043EB030313F4801F08BF013DF7D043EA78
:104570000603704794EA0C0F0CEA135518BF95EA2E
:104580000C0F0CD050EA410618BF52EA4306D1D1B5
:1045900081EA030101F000414FF0000070BD50EAD4
:1045A000410606BF1046194652EA430619D094EA5E
:1045B0000C0F02D150EA013613D195EA0C0F05D148
:1045C00052EA03361CBF104619460AD181EA03019C
:1045D00001F0004141F0FE4141F470014FF0000054
:1045E00070BD41F0FE4141F4780170BD70B54FF0EF
:1045F000FF0C4CF4E06C1CEA11541DBF1CEA13556F
:1046000094EA0C0F95EA0C0F00F0A7F8A4EB050450
:1046100081EA030E52EA03354FEA013100F0888047
:104620004FEA03334FF0805545EA131343EA126310
:104630004FEA022245EA111545EA10654FEA0026C5
:104640000EF000419D4208BF964244F1FD0404F57E
:10465000407402D25B084FEA3202B61A65EB0305DA
:104660005B084FEA32024FF480104FF4002CB6EB97
:10467000020E75EB030E22BFB61A754640EA0C0017
:104680005B084FEA3202B6EB020E75EB030E22BF57
:10469000B61A754640EA5C005B084FEA3202B6EB98
:1046A000020E75EB030E22BFB61A754640EA9C0057
:1046B0005B084FEA3202B6EB020E75EB030E22BF27
:1046C000B61A754640EADC0055EA060E18D04FEAE5
:1046D000051545EA16754FEA06164FEAC30343EA85
:1046E00052734FEAC2025FEA1C1CC0D111F4801F52
:1046F0000BD141EA00014FF000004FF0004CB6E74B
:1047000011F4801F04BF01430020B4F1FD0C88BFE9
:10471000BCF5E06F3FF6AFAEB5EB030C04BFB6EBF4
:10472000020C5FEA500C50F1000041EB045170BDE7
:104730000EF0004E4EEA113114EB5C04C2BFD4EB14
:104740000C0541EA045170BD41F480114FF0000E98
:10475000013C90E645EA060E8DE60CEA135594EA14
:104760000C0F08BF95EA0C0F3FF43BAF94EA0C0F17
:104770000AD150EA01347FF434AF95EA0C0F7FF48C
:1047800025AF104619462CE795EA0C0F06D152EAE0
:1047900003353FF4FDAE1046194622E750EA4106C4
:1047A00018BF52EA43067FF4C5AE50EA41047FF4D5
:1047B0000DAF52EA43057FF4EBAE12E74FF0FF3C3A
:1047C00006E000BF4FF0010C02E000BF4FF0010C0B
:1047D0004DF804CD4FEA410C7FEA6C5C4FEA430C84
:1047E00018BF7FEA6C5C1BD001B050EA410C0CBFD3
:1047F00052EA430C91EA030F02BF90EA020F002035
:10480000704710F1000F91EA030F58BF994208BF9B
:1048100090422CBFD8176FEAE37040F00100704758
:104820004FEA410C7FEA6C5C02D150EA013C07D1AF
:104830004FEA430C7FEA6C5CD6D152EA033CD3D0FA
:104840005DF8040B704700BF8446104662468C46F4
:104850001946634600E000BF01B5FFF7B7FF002827
:1048600048BF10F1000F01BD4DF808EDFFF7F4FF50
:104870000CBF012000205DF808FB00BF4DF808EDDB
:10488000FFF7EAFF34BF012000205DF808FB00BFFE
:104890004DF808EDFFF7E0FF94BF012000205DF820
:1048A00008FB00BF4DF808EDFFF7CEFF94BF0120D5
:1048B00000205DF808FB00BF4DF808EDFFF7C4FFCE
:1048C00034BF012000205DF808FB00BF4FEA410C17
:1048D0007FEA6C5C02D150EA013C0AD14FEA430CFA
:1048E0007FEA6C5C02D152EA033C02D14FF0000037
:1048F00070474FF0010070474FEA410212F5001275
:1049000015D211D56FF47873B3EB625212D94FEA16
:10491000C12343F0004343EA505311F0004F23FA00
:1049200002F018BF404270474FF00000704750EA55
:10493000013005D111F0004008BF6FF00040704712
:104940004FF00000704700BF4A0011D212F500126C
:1049500011D20DD56FF47873B3EB62520ED44FEAD7
:10496000C12343F0004343EA505323FA02F0704757
:104970004FF00000704750EA013002D14FF0FF3095
:1049800070474FF0000070474FEA4102B2F1E04338
:1049900024BFB3F5001CDCF1FE5C0DD901F0004C26
:1049A0004FEAC0024CEA5070B2F1004F40EB830076
:1049B00008BF20F00100704711F0804F21D113F1A2
:1049C0003872BCBF01F00040704741F480114FEADB
:1049D0005252C2F11802C2F1200C10FA0CF320FA64
:1049E00002F018BF40F001004FEAC1234FEAD32381
:1049F00003FA0CFC40EA0C0023FA02F34FEA4303EB
:104A0000CCE77FEA625307D150EA01331EBF4FF073
:104A1000FE4040F44000704701F0004040F0FE408E
:104A200040F40000704700BF10F8012B11F8013B63
:104A3000012A28BF9A42F7D0D01A7047034613F8CC
:104A4000012B002AFBD1181A0138704709480A497E
:104A5000884208B505D0094A824202D0121A02F0F3
:104A6000E5FB0748074A0021121A02F007FC01483B
:104A700008BD00BFC4E50320287A0B0038E60320F8
:104A800038E60320FCE7032070B5074E074C01F021
:104A900019FEA41BA4080025AC4200D170BD56F835
:104AA000043B98470135F7E7E0790B00047A0B00E7
:104AB00000F048B808B500F04FF8BDE8084001F034
:104AC000B9BD00F0DBBB00F0D9BB00F0DFBB0000DC
:104AD00008B5034A03490C2000F014FBFEE700BFB1
:104AE000E54E0B0070750B000078B0FA80F04009BD
:104AF0007047012303707047704700000A4B10B5E0
:104B00000446036000F01AFF214601F064F901F049
:104B1000E5FE01F0D7FE2046044B40F8043B00F0D0
:104B2000E3FF204610BD00BFB4750B009C750B0061
:104B300010B50446FFF7E2FF20462421FFF7C5FF2A
:104B4000204610BD0348002340681A46194600F06D
:104B500045BB00BFF0E603202DE9F0474FF47A7023
:104B60002DED028B01F03AFD122002F0B7FAFFF7AB
:104B7000A9FB61A3D3E90023FFF70EFCFFF704FFB5
:104B800008EE100A642001F029FD01F0A7FE82461C
:104B900018EE100AFFF7A8FB02460B4604460D4626
:104BA00006460F46FFF792FE70B14B49504600F0A3
:104BB0000DFD504600F011FDBDEC028B4FF47A70F4
:104BC000BDE8F04701F00ABD25F00049434B4FF026
:104BD000FF3220464946FFF779FE48B93F4B4FF078
:104BE000FF3220464946FFF753FE08B93C49DDE74E
:104BF000DFED3C7AB4EEE78AF1EE10FA01DD3A49D6
:104C0000D4E7DFED3A7AB4EEE78AF1EE10FAF6D4A3
:104C1000B5EEC08AF1EE10FA06D52D21504600F00F
:104C2000D9FC264605F1004729A3D3E900233046E5
:104C30003946FFF7FBF90D460446FFF785FE0646A9
:104C4000FFF730FB0B46024629462046FFF7ECF9FA
:104C50000A2204460D465046314600F0CAFC24495B
:104C6000504600F0B3FC234B002220462946FFF7B4
:104C700093FB06460F46FFF73FFE041E1BDB214653
:104C80000A22504600F0B5FC2046FFF71BFB024607
:104C90000B4630463946FFF7C7F9164B0022FFF79F
:104CA0007BFBFFF729FE041E0BDB21460A22504640
:104CB00000F09FFC7DE72D21504600F08BFC614207
:104CC000DEE72D21504600F085FC6142EEE700BF93
:104CD0007B14AE47E17A743F85750B00FFFFEF7FD1
:104CE00089750B00FFFF7F4F8D750B00FFFF7FCF96
:104CF00091750B00000024400A4B3CA06CCA553F44
:104D000070B5D0E900531426044606FB0356AE42A4
:104D100004D0284600F064FB1435F8E7206800F062
:104D2000B5FA204670BD8842F8B504460D461646D1
:104D300016D9904215D2A2F11406751AA1F11407E2
:104D40002C44B7421CD02CB13146204600F0B1FBB8
:104D5000337C2374304600F043FB143E143CF0E7F0
:104D60000ED0B5420CD02CB12946204600F0A1FB54
:104D70002B7C2374284600F033FB14351434F0E701
:104D8000F8BD2DE9F0410023C0E9003383604F688E
:104D90009F4204460E4623DD4FF0140808FB07F03F
:104DA00000F06CFA0546D8B1D4E9001208FB0212F3
:104DB000FFF7B9FF206800F069FA2560A760D6E91F
:104DC000007308FB0378B84508D03946284600F040
:104DD0008AFB3B7C2B7414371435F4E773686360EB
:104DE0002046BDE8F081000070B5244B244A9A604B
:104DF00000248CB0C3E90044022000F09BF9214656
:104E0000012000F0A7F9CDE90044029401F066FD0D
:104E10001C4C0546694603A8FFF7B3FF264603A9C5
:104E200006A8FFF7AEFF184B46F8043B06A909A8F1
:104E3000FFF7A7FF09AA1E21304601F0AFF809A825
:104E4000FFF75EFF06A8FFF75BFF104B23602562AC
:104E500003A8FFF755FF0E4B236001F03FFD4FF411
:104E6000165101F02BFD00F069FD214600F06CFFAA
:104E70006846FFF745FF0CB070BD00BF38E6032061
:104E80000000FFFF44E603209C750B009C760B009E
:104E9000B4750B0008B5024B1B689B68019308BDF5
:104EA0006802030008B5024B1B68DB68019308BD6C
:104EB0006802030008B5024B1B685B68019308BDDC
:104EC0002C02030008B5024B1B681B6B019308BD45
:104ED0002C02030008B5024B1B685B68019308BDF8
:104EE0001802030008B5024B1B68DB68019308BD7C
:104EF0001802030008B5024B1B685B69019308BDEB
:104F00001802030008B5024B1B685B6C019308BDD7
:104F10004802030008B5024B1B689B6C019308BD57
:104F20004802030008B5024B1B68DB6C019308BD07
:104F30004802030008B5024B1B685B6D019308BD76
:104F40004802030008B5024B1B685B69019308BD6A
:104F50006402030008B5024B1B689B68019308BDFF
:104F60003C02030008B5024B1B68DB68019308BDD7
:104F70003C02030008B5024B1B681B69019308BD86
:104F80003C02030008B5024B1B685B69019308BD36
:104F90003C02030008B5024B1B689B69019308BDE6
:104FA0003C02030008B5024B1B68DB69019308BD96
:104FB0003C02030008B5024B1B681B6A019308BD45
:104FC0003C02030008B5024B1B689B6A019308BDB5
:104FD0003C02030008B5024B1B68DB6A019308BD65
:104FE0003C02030008B5024B1B681B6C019308BD13
:104FF0003C02030008B5024B1B681B6A019308BD05
:105000002802030008B5024B1B685B6A019308BDC8
:105010002802030008B5024B1B689B6A019308BD78
:105020002802030008B5024B1B68DB6A019308BD28
:105030002802030008B5024B1B681B6B019308BDD7
:105040002802030008B5024B1B685B6B019308BD87
:105050002802030008B5024B1B681B6C019308BDB6
:105060002802030008B5024B1B68DB69019308BDE9
:105070003002030008B5024B1B681B6A019308BD90
:105080003002030008B5024B1B681B68019308BD82
:105090004C02030008B5024B1B685B68019308BD16
:1050A0004C02030008B5024B1B689B68019308BDC6
:1050B0004C02030008B5024B1B681B69019308BD35
:1050C0004C02030008B5024B1B685B69019308BDE5
:1050D0004C02030008B5024B1B689B69019308BD95
:1050E0004C02030008B5024B1B68DB69019308BD45
:1050F0004C02030008B5024B1B681B6A019308BDF4
:105100004C02030008B5024B1B685B6B019308BDA2
:105110006002030008B5024B1B68DB6E019308BDFB
:105120006002030008B5024B1B681B6F019308BDAA
:105130006002030008B5024B1B685B68019308BD61
:105140002002030008B5024B1B685B69019308BD90
:105150002002030008B5024B1B68DB6A019308BDFF
:105160002002030008B5034B1B68D3F88830019375
:1051700008BD00002002030008B5034B1B68D3F8EC
:105180009430019308BD00002002030008B5024BD3
:105190001B685B68019308BD4002030008B5024B21
:1051A0001B689B68019308BD4002030008B5024BD1
:1051B0001B68DB68019308BD4002030008B5024B81
:1051C0001B681B69019308BD4002030008B5024B30
:1051D0001B685B69019308BD4002030008B5024BE0
:1051E0001B689B69019308BD4002030008B5024B90
:1051F0001B68DB69019308BD4002030008B5024B40
:105200001B681B6A019308BD4002030008B5024BEE
:105210001B681B6B019308BD4002030008B5024BDD
:105220001B685B6B019308BD4002030008B5024B8D
:105230001B681B6C019308BD4002030008B5024BBC
:105240001B685B6C019308BD4002030008B5024B6C
:105250001B685B6D019308BD4002030008B5024B5B
:105260001B689B6D019308BD4002030008B5024B0B
:105270001B68DB6B019308BD4402030008B5024BB9
:105280001B681B68019308BD1C02030008B5024B94
:105290001B685B68019308BD1C02030008B5024B44
:1052A0001B689B68019308BD1C02030008B5024BF4
:1052B0001B685B6A019308BD1C02030008B5024B22
:1052C0001B68DB6B019308BD1C02030008B5024B91
:1052D0001B681B6C019308BD1C02030008B5024B40
:1052E0001B685B6C019308BD1C0203000022406830
:1052F0001146FFF783BF002240681146FFF78EBFBB
:1053000040680022FFF782BF4068002281F001015F
:10531000FFF76CBF002340681A461946FFF75EBFCF
:10532000002340681A461946FFF750BF0022406824
:105330001146FFF743BF002240681146FFF72EBF1A
:10534000406800220221FFF731BF002340681A465F
:10535000FFF71CBF024B03225A60024A1A607047D3
:1053600068E60320CC750B000B6803604B68436054
:1053700013B15A6801325A60704738B5046805465F
:105380007CB16368013B63605BB9236820469B681E
:105390009847A368013BA3601BB923682046DB68DC
:1053A0009847284638BD10B5044608462170FFF7D7
:1053B00059FE00236360204610BD0000054B022209
:1053C0001A60054B054A9A600020C3E90000FFF708
:1053D000B1BE00BF7CE6032070E603200000FFFFA3
:1053E00010B504460068FFF751FF204610BD10B508
:1053F0000446006808B1FFF749FF0023C4E9013300
:10540000236010BD38B504460D4600680131FFF732
:1054100045FF10B1C4E90005012038BD10B503688F
:10542000044623B143688B4201D3012010BD2046BE
:10543000FFF7E8FF0028F9D0A368002BF5D1226818
:105440001370F2E737B50D46114601920446FFF797
:10545000E5FF019A28B92046FFF7C9FF204603B0AF
:1054600030BDA2602946206801F0E0FE2268A368F2
:105470000021D154F2E738B5054600680C4670B1FA
:105480006A688B689A4208D3096831B101F043FF1A
:10549000A368AB600023A36038BDFFF7F7FE236865
:1054A0002B6063686B60A368AB600023C4E90033C2
:1054B000F1E710B50023C0E90033044683600373AD
:1054C000FFF7D9FF204610BD884210B5044605D02D
:1054D0000B682BB18A681946FFF7B4FF204610BD50
:1054E000FFF785FFFAE710B500230446C0E9003353
:1054F00083600373FFF7E8FF204610BD10B54368D3
:10550000013B0446436063B903689B689847A368FE
:10551000013BA3602BB923682046DB68BDE810403F
:10552000184710BD70B5D0E90053044605EB0316CB
:10553000AE4204D02846FFF753FF1035F8E7206845
:10554000FFF7A4FE204670BD024800230360FFF76A
:10555000D9BC00BF80E6032010B50446806803680C
:10556000DB689847E3681844E06010BDF8B506466C
:105570000D468F180024BD420CD0336815F8011B6E
:105580009B6830469847031E01DB1C44F3E7002C60
:1055900008BF1C462046F8BD704710B510210446D0
:1055A000FFF793FA204610BD13B50446084659B1DB
:1055B0000191FFF743FA23680199DB680246204610
:1055C00002B0BDE81040184702B010BD08B5FFF7A3
:1055D000EBFF08BD03689B68184738B50D210546E9
:1055E000FFF7F8FF0A2104462846FFF7F3FF20449F
:1055F00038BD30B58BB00023012A8DF8243098BF18
:105600000A2209AC0D46B1FBF2F101FB125303F083
:10561000FF03092B94BF30333733DBB2AA4204F8BF
:10562000013DEFD92146FFF7BFFF0BB030BD10B5EC
:105630000446FFF75FFCE060236820465B699847FB
:10564000002808DAFFF756FCE368C01AA3689842FE
:10565000F2D34FF0FF3010BD2DE9F04107460C4664
:105660008E180D46B542A5EB040807D03846FFF763
:10567000DEFF031E02DB05F8013BF3E74046BDE811
:10568000F0817047084611B10B685B681847704796
:1056900070477047704738B504460D4600682E21A4
:1056A00001F02FFE2368C31A2B6023B1037803B1E6
:1056B000013023682060184638BD10B50421044627
:1056C000FFF703FA204610BD10B504210446FFF78A
:1056D000FCF9204610BDFFF725BC08B5FFF7A4F97B
:1056E000B0FA80F0400908BD704710B50C4601F0D3
:1056F000F5F8844210D001F023FD844205D101F079
:105700001FFDBDE8104001F0B4B92CB1236820465C
:105710005B68BDE81040184710BD13B50446084645
:105720000191FFF78BF901990246204602B0BDE8CE
:10573000104001F085BC13B5044608460191FFF7FF
:105740007DF923680199DB680246204602B0BDE876
:105750001040184707B503688DF80710DB68012271
:105760000DF10701984703B05DF804FB2DE9F74FF1
:10577000D0E900844FF0140A00930AFB04F4184B9C
:10578000A41017465C434546002C21DD66100AFB39
:1057900006F005EB00093A46B9F804B02858019123
:1057A0005F4528BF5A4601F0BEFD002801994FF021
:1057B00001030BD15F4503D1009A13703446E3E730
:1057C000FCD9A61B09F11405013EF7E7F9DBF5E763
:1057D000A5EB08050248AD10684303B0BDE8F08FA3
:1057E000CDCCCCCC7FB50369057E019103B3F9B173
:1057F000002600F10C04039603A901A8FFF74BFF54
:105800000146A8B10DF10B03039A8DF80B602046F9
:10581000FFF7ACFF9DF80B3053B12368142404FB51
:105820000034083434F9023C002BA8BFDDB2E3E7B2
:10583000284604B070BD0EB4F0B58CB000AF07F1CF
:105840004405044655F8042B7A602B46202107F1C5
:105850001000FD60FFF72AFD1F287A681AD900F1B1
:10586000080323F007036E46ADEB030D411C2B46E6
:105870006846FD60FFF71AFD021E04DD23686946D5
:10588000DB6820469847B5463037BD46BDE8F04056
:1058900003B070470028F7D023680246DB6807F1A1
:1058A000100120469847EFE710B5094C2378BFF365
:1058B0005B8FDB0709D42046FFF716F928B1204695
:1058C000FFF717F9034801F0A3FC034810BD00BF20
:1058D00088E6032091560B00C4E5032010B5094C5F
:1058E0002378BFF35B8FDB0709D42046FFF7FCF872
:1058F00028B12046FFF7FDF8034801F089FC034872
:1059000010BD00BF8CE60320E9560B00C8E503205C
:1059100038B500250446C0E90055C0E90455856046
:10592000856140F8245FFFF7EDFAFFF7BDFFE06106
:10593000FFF7D4FF25732062204638BD10B50A4C0E
:105940002378BFF35B8FDB070CD42046FFF7CCF83E
:1059500040B10648FFF7DCFF2046FFF7CAF80448CD
:1059600001F056FC014810BD84E6032094E60320B4
:10597000B55E0B00024A034903480023FFF7D2BB80
:10598000995C0B00255C0B00A55B0B0000231A46FD
:1059900019461846FFF7C6BB37B58D6804466846FA
:1059A000FFF7E2FC6A462946204601F069FA01A8A1
:1059B000FFF7E3FC204603B030BD37B5CD680446A1
:1059C0006846FFF7D1FC6A462946204601F034FAC2
:1059D00001A8FFF7D2FC204603B030BD37B50D69F2
:1059E00004466846FFF7C0FC6A462946204601F097
:1059F000CCF901A8FFF7C1FC204603B030BD000080
:105A000070B58AB00D46014604A8FFF7C5FF144ED5
:105A100004A801F04DFAE8B104A96846FFF7CDFFEC
:105A200002983146FFF759FE044610B12C1E18BFEC
:105A3000012401A8FFF7A1FC002CE9D004A96846C5
:105A4000FFF7CCFF684601F0D6F9286001A8FFF700
:105A500094FCDDE705A8FFF790FC0AB070BD00BF1D
:105A600020760B0037B50C46204613491546FEF745
:105A7000DBFF50B900F032FF4FF4165100F01EFF6B
:105A800003B0BDE8304000F029BF0C492046FEF7C6
:105A9000CBFF78B94FF4165301A928460193FFF7BD
:105AA000AFFF01F04DFB019900F0E0FF01F048FB72
:105AB00003B030BD0020FBE725760B002C760B00F1
:105AC00070B5D0E900531426044606FB0356AE42D7
:105AD00005D005F10800FFF7F3FF1435F7E720685C
:105AE000FFF7D4FB204670BD10B504460C30FFF71D
:105AF000E7FF2046FFF716FD204610BD10B5044B0A
:105B0000044640F8043BFFF7EFFF204610BD00BFFE
:105B10009C750B0010B50446FFF7F0FF20462421CA
:105B2000FEF7D3FF204610BD10B5034B03600446BB
:105B3000FFF7E4FF204610BDB4760B0010B5044615
:105B4000FFF7F2FF20462421FEF7BFFF204610BDDD
:105B50000A6802604A6842600022C0E9022210B569
:105B600002618C688460CC68C4600C698A60CA6019
:105B700004610A6110BD0022C0E9002210B58260F4
:105B80000C6804604C6844608C680A604A608460F9
:105B90008A6010BD10B5036804461868FFF7CAF99B
:105BA000204610BD2DE9F04F87B0804603931C4B73
:105BB0005B68C3F30803894616466BB9FFF7BEFE60
:105BC000044600F12403406A0593FFF784FD237B1C
:105BD0002BB105A8FFF7DEFF07B0BDE8F08F01236A
:105BE0002373D4E900535FFA89F905EB830AAA45C8
:105BF00012D055F8047B3146381DFFF7F3FD81457F
:105C0000F5D33B68039A0092D3F808B04A4633466E
:105C100041463846D847EAE700232373D9E700BF57
:105C200000ED00E02DE9F74F9B461A4B5B68C3F38C
:105C300008038046894616466BB9FFF77FFE044687
:105C400000F12403406A0193FFF745FD237B2BB14C
:105C500001A8FFF79FFF03B0BDE8F08F0123237376
:105C6000D4E90053F6B205EB830A55450ED055F83A
:105C7000047B5946381DFFF7B5FD8642F5D33B68D6
:105C80004A46DB68414638469847EEE700232373CF
:105C9000DEE700BF00ED00E02DE9F341164B5B6845
:105CA000C3F3080305460F461BBBFFF747FE00F191
:105CB00024030446406A0193FFF70DFDD4E9006315
:105CC000462406EB8308B04509D101A8FFF762FF1F
:105CD000A542B4BF0020012002B0BDE8F08156F813
:105CE000040B39460430FFF77DFD8442A8BF04460B
:105CF000E9E70020F0E700BF00ED00E0F8B5D0E9EB
:105D000001539D4204460E460DDB6F1C002F0068B8
:105D100004DDB900FFF7C2FA18B9F8BDFFF7B6FA0B
:105D200000202060A7602768626807EB8501920069
:105D3000A2EB8502081D01F087FA47F82560636829
:105D4000013363600120E8E737B500F1240304461E
:105D5000406A01930D46FFF7BEFCD4E9003203EB25
:105D60008202934219460BD00968A94203F1040349
:105D7000F7D101A8FFF70EFF0025284603B030BD7C
:105D800029462046FFF7BAFF05460028F1D0636890
:105D9000012B01D1FFF7EEFD01A8FFF7FBFEECE7B9
:105DA00070B50446D0E900020B4600EB8202824245
:105DB0000FD001461D6851F8046BAE4207D1521A4C
:105DC00001F042FA6368013B6360012070BD084640
:105DD000EDE70020FAE71FB500F124030446406A0E
:105DE00001910393FFF777FC01A92046FFF7D8FF45
:105DF00018B163680BB9FFF7C9FD03A8FFF7CAFE26
:105E000004B010BD70B5D0E904561823044603FB56
:105E10000656AE4215D005F110012046FFF7C0FF2F
:105E200063680BB9FFF7B2FDE06929690368DB68B5
:105E30009847696919B1206A0368DB689847183583
:105E4000E7E7D4E90453182606FB0356AE4204D014
:105E50002846FFF7C5FA1835F8E70023636170BDDF
:105E600073B50446FFF792FD04F12403606A0193C1
:105E7000FFF731FC2046FFF7C5FF01A8FFF78AFEB8
:105E8000606A08B1FFF746F8D4E90453182606FB08
:105E90000356AE4204D02846FFF7A2FA1835F8E7B9
:105EA0002069FFF7F3F92068FFF7F0F9204602B008
:105EB00070BD00000148FFF7D3BF00BF94E6032088
:105EC0008842F8B504460D46164615D9904214D2BC
:105ED000A2F11406751AA1F114072C44B7421AD086
:105EE0001CB131462046FFF733FE06F10800FFF7EC
:105EF000E7FD143E143CF1E70DD0B5420BD01CB1C8
:105F000029462046FFF724FE05F10800FFF7D8FDDB
:105F100014351434F1E7F8BD8842F8B504460D464F
:105F2000164614D9904213D2A2F11006751AA1F1A7
:105F300010072C44B74218D01CB131462046FFF759
:105F4000B8FA3046FFF74CFA103E103CF2E70CD09E
:105F5000B5420AD01CB129462046FFF7AAFA2846C6
:105F6000FFF73EFA10351034F2E7F8BD70B50E1E9B
:105F7000054611DD3001FFF781F9044658B1D5E936
:105F8000001201EB0212FFF7C7FF2868FFF77EF946
:105F90002C60AE60012070BD0024F6E72DE9F04FC3
:105FA000904695B000230391D8F804100A93462236
:105FB0009942C0E90033C0E90233C0E90433CDE9B6
:105FC00008330446027623DCD8E90057142303FB88
:105FD0000757AF423BD029460BA8FFF76AFA0BA937
:105FE0000FA8099EFFF765FADDE9091399421BDA4C
:105FF000089B099A03EB061603EB0212314606F1E1
:106000001000FFF789FFEEB9099B0133099311E0F6
:1060100008A8FFF7ABFF0028D6D108A8FFF782FA3F
:10602000204615B0BDE8F08F013108A8FFF79EFFAC
:106030000028DDD10FA8FFF7D3F90BA8FFF7D0F99F
:106040001435C6E70FA93046FFF733FADCE7002620
:10605000CDE90B660D964FF01409DDE908239E4249
:106060007CDA3301D35806930BB90136F5E70023E8
:10607000079309FB06F302930BAD07A906A8FFF7E8
:106080000AFB82460028F0D04FF000038DF817304D
:106090000146079A0DF117032846FFF767FB9DF8A5
:1060A00017700190002F4AD1BDF81C30ADF8403078
:1060B000CDE911774FF6FF73CDF83CA0ADF8423033
:1060C0001397D5E90132934217DB03F1010ABAF1C4
:1060D000000F30DD09FB0AF0FFF7D0F8834660B30C
:1060E000D5E9001209FB0212FFF7EAFE2868FFF764
:1060F000CDF8C5F800B0C5F808A02B68019A09FBD7
:10610000023A6A68514609FB02320AF11400FFF7AD
:10611000D7FEBAF1000F03D00FA95046FFF718FDC4
:106120006B6801336B6011A8FFF7CAFC3FB10BA885
:10613000FFF7C6FC71E7BB46D8E70127F3E7019BF1
:106140002D6809FB0355069B1B782BB9D8F8003046
:10615000029A13441B7CEB8008358EE7216822608D
:1061600062686360A36809920A9A0A93E368A2606E
:106170000B9A0B932369E2600C9A0C93636922617A
:106180000D9A0D93039B089162612376CFE700007F
:10619000F0B5044687B00D462646194668461746B0
:1061A000FEF7EFFD0B4B46F8043B694603A8FEF7EC
:1061B000E8FD03AA39463046FFF7F0FE03A8FEF7D4
:1061C0009FFD6846FEF79CFD034B23602046256239
:1061D00007B0F0BD9C750B009C760B00F0B50F4628
:1061E00085B01D490A9C384616461D46FEF71CFC24
:1061F000C0B9A4B1294601A8FFF7BDFC1749242066
:1062000001F002F8054630B101AB32462146FFF7F6
:10621000BFFF134B2B6001A8FEF772FD2C462046F2
:1062200005B0F0BD0F493846FEF7FEFB90B9002CD3
:10623000F5D0294601A8FFF79EFC0849242000F06C
:10624000E3FF05460028E6D001AB32462146FFF7C2
:106250009FFFE0E70024E2E734760B0049780B006B
:10626000B4760B0038760B00014B024A1A60704777
:1062700090E6032049760B002DE9F047089DD0F801
:10628000209004460E461746984600F027FB8145AD
:106290004CD02B79190704D56A6954492046FFF779
:1062A000CAFAB8F1000F0DD05B212046FFF752FA71
:1062B00041462046FFF73FFA23684D49DB6802223A
:1062C000204698472B79DA0723D5D5F808802F2167
:1062D000404601F03CF808B100F101084146204673
:1062E000FFF729FA2B799B0708D53A212046FFF7BB
:1062F00031FAEA683F492046FFF79DFA2A79236878
:1063000012F0040FDB6814BF3B493C4902222046CF
:1063100098472B7958071DD529690B461A4613F85B
:10632000010B60B1202808D11946F7E7344800F086
:1063300024FC0028ADD0BDE8F0872828EED12368E2
:10634000521ADB682046984723682E49DB680422EE
:106350002046984700213846FEF7DCFE01462046DD
:10636000FFF7E9F923682549DB68022220469847B0
:106370001EB131462046FFF7DEF92B7913F0300FBE
:106380002CD023682049DB680222204698472B79CD
:10639000D9060AD523681D49DB680722204698479D
:1063A000AA691B492046FFF746FA2B799A0611D5B0
:1063B000DB0605D523681049DB6802222046984792
:1063C00023681449DB6820460A229847E969204679
:1063D000FFF7B1F95D212046FFF7BCF923680E49AC
:1063E000DB6820460222BDE8F04718474D760B00D7
:1063F00054760B0057760B005A760B005F760B0035
:1064000020E703205D760B0062760B0065760B00BB
:106410006D760B0070760B007B760B002DE9F0415A
:106420000446076A0D46164600F058FA874207D020
:10643000206A036832462946DB68BDE8F041184708
:10644000034800F09AFB0028F2D0BDE8F08100BFBD
:1064500020E703202DE9F04385B0D0F820900C9C74
:1064600005460F4690461E4600F038FA814505D194
:10647000494800F082FB002840F08A802B6A474A96
:1064800000924FF000096846CDE902398DF804907A
:1064900000F037FD49464046FEF73CFE4049804645
:1064A0000122684600F0BCFD4146FFF736F93FB1D6
:1064B0003C490122684600F0B3FD3946FFF72DF94B
:1064C0003EB139490122684600F0AAFD3146FFF786
:1064D00024F92379DF070ED5A6682F21304600F076
:1064E00036FF00B1461C31490122684600F098FD94
:1064F0003146FFF712F923799E0707D52C4902226E
:10650000684600F08DFDE16800F008FD237958072A
:1065100014D5266933461F4613F8012B2AB1202AC9
:1065200001D11E46F7E7282AF5D122490222684602
:1065300000F076FDBA1B314600F082FD2379190781
:1065400007D51D490122684600F06AFD616900F027
:10655000F7FC2379DA0607D518490422684600F0CB
:106560005FFDA16900F0DAFC23799B0607D5144989
:106570000622684600F054FDE169FFF7CEF8684650
:1065800000F0A9FC286A0F4903680222DB689847DB
:1065900005B0BDE8F08300BF20E7032010760B00B4
:1065A0002A760B007E760B00DC780B008B750B00D7
:1065B00080760B0083760B0086760B0088760B00C6
:1065C0008D760B007B760B00024B1A68024B1A602B
:1065D000704700BFCCE50320BCE603200021FEF796
:1065E000B1BD0000014B00229A607047C0E6032055
:1065F000014B1860704700BFD0E5032008B50B4B76
:1066000043B100F06BF903681B699847002801DD6E
:10661000AFF30080064B43B100F092FD03681B69A5
:106620009847002801DDAFF3008008BD000000009E
:106630000000000008B5FFF7E1FFFEF75BFC014B2F
:10664000186008BD4CE703200548064A064908B50E
:10665000121A00F0EBFD054B054A1A6008BD00BF99
:1066600000F4032004F403209C7A0B0000F40320C0
:106670001E1C279A07B5002300931A466FF0770176
:10668000FEF77AFD03B05DF804FB000007B5438810
:106690000A2B08D0502B0BD1094B1B684BB103B010
:1066A0005DF804EB1847FFF7E5FF03B05DF804FB66
:1066B000002300931A466FF07701FEF75DFDF4E7C3
:1066C000D4E6032010B512480021FEF707FE114B57
:1066D0001A68114B9A42114B0CBF012200221A700A
:1066E00001D0FFF7B1FFFEF7F5FB044600F0CEFD49
:1066F0000B4B13B12046AFF3008000210848FEF792
:10670000B5FDBDE8104007480021FEF72BBD00BFD6
:10671000F1650B0000F403201E1C279AD0E603202D
:10672000000000008D660B00704710B5182104466C
:10673000FEF7CBF9204610BDF0B5037D062B8DB0DA
:106740000E4600F104074FF0000412D000F10805D6
:1067500015F8011D0A223046FEF74BFFAF420444F4
:1067600019D0002CF4D02E213046FEF733FF04441C
:10677000EEE72F236A4639460A208DF80040FEF7DF
:10678000E1FB6846FEF75AF933680246DB68694662
:1067900030469847044620460DB0F0BD10B5054B75
:1067A0000446112240F8043B002100F067FD20461A
:1067B00010BD00BF18770B000346074A10B543F819
:1067C000042B01F1100251F8044B43F8044B9142A1
:1067D000F9D10A781A7010BD18770B0010B59DF822
:1067E000084044EA032343EA024242EA01610423E7
:1067F0004160037510BD000007B5064B0360CB7800
:1068000000938B784A780978FFF7E8FF03B05DF8CA
:1068100004FB00BF18770B00417470477047704746
:1068200008B50021007CFEF755FC40EAE07008BD89
:1068300008B50121007CFEF74DFC40EAE07008BD80
:1068400008B5007CFEF73EFC20EAE07008BD08B504
:10685000007CFEF72FFC20EAE07008BD13B504466B
:10686000007C0191FEF72EFC0028019901DC607C80
:1068700020B1207CFEF736FC20EAE07002B010BDAB
:10688000007CFEF737BC10B514210446FEF71DF955
:10689000204610BD10B54FF47A7304460846002117
:1068A000C4E90113044B236001232074637411466F
:1068B000FEF7E8FB204610BD2C770B00007C002281
:1068C000FEF7E8BB007CFEF7EDBB10B514220446D2
:1068D000002100F0D3FC204610BD000010B50F4C85
:1068E00088B003A8FFF7F1FF2178BFF35B8F11F0A9
:1068F00001010FD120460191FEF7F6F8019948B148
:1069000003AA0748FFF7C6FF2046FEF7F2F805483E
:1069100000F07EFC024808B010BD00BFD8E603209E
:10692000DCE603201D680B00002240681146FEF7DC
:1069300045BC002240681146FEF760BC002240685A
:106940001146FEF76BBC40680022FEF75FBC406852
:10695000002281F00101FEF749BC002340681A467D
:106960001946FEF73BBC002340681A461946FEF75D
:106970002DBC002240681146FEF710BC4068002282
:106980000221FEF713BC002340681A46FEF7FEBB47
:10699000084B10B5282422461846002100F06EFC52
:1069A000054B04804FF0FF32426004225A60034AD4
:1069B0001A6010BDF8E60320F0E6032060770B00B4
:1069C00070474174704708B5007CFEF7FBFA20EA77
:1069D000E07008BD08B5007CFEF7CCFA20EAE07054
:1069E00008BD08B5007CFEF7D5FA40EAE07008BDA6
:1069F00008B5007CFEF7C6FA40EAE07008BD007CEE
:106A0000FEF7D0BA37B5457C04462DB1207C03B0E3
:106A1000BDE83040FEF7A6BA007C0191FEF7D2FA3D
:106A200000280199F2DC284603B030BD10B51421CE
:106A30000446FEF74AF8204610BD000010B54FF49A
:106A40007A730446084611460022C4E90123044B28
:106A50002360012320746374FEF7C4FA204610BD3E
:106A6000A4770B00007C0023FEF7B4BA0022FFF7E6
:106A7000F9BF007CFEF76EBA7047F8B506461546BA
:106A80000C468F18BC4206D0336814F8011B9B6873
:106A900030469847F6E72846F8BD007C0022FEF70E
:106AA000A9BA007C0021FEF7ADBA007C0021FEF7F8
:106AB000B1BA007C0021FEF7B5BA007C0021FEF7D8
:106AC000B9BA10B514210446FDF7FFFF204610BDEA
:106AD00038B5044615464FF47A730022C4E9012301
:106AE000094B2174084623602946FEF7B3FABF30EC
:106AF00008D16B69DB0705D56868FEF7C7FBE86856
:106B0000FEF7C4FB204638BDD8770B000023406851
:106B10001A46FEF73BBB406800220221FEF746BB47
:106B2000002240681146FEF739BB0022406811463A
:106B3000FEF744BB002340681A461946FEF746BBE1
:106B4000002340681A461946FEF748BB40680021FA
:106B5000FEF76CBB40680021FEF770BB4068002266
:106B600081F00101FEF742BB40680022FEF74EBBF8
:106B7000002240681146FEF751BB002240681146D2
:106B8000FEF73CBB40680021FEF768BB2DE9F043EF
:106B900095B014460D460746FFF700FE00211C2263
:106BA0000DA8009100F06AFB40230C9320466B4631
:106BB0000CAA0021FEF776F9044600284BD10246C4
:106BC00001216868FEF7FAFA0221804622466868C9
:106BD000FEF7F4FA009E81462146002E3BD00029A4
:106BE00039D17368022B03D00A2B11D0F669F4E770
:106BF000B8F1000FFAD0716906A8043107ADFFF7AC
:106C0000FBFD0FCD3C1D0FC42B6823704146EDE703
:106C1000B9F1000FEAD07469102201A800F02EFB30
:106C200006238DF8143001AD04F1080318341868F8
:106C300059682A4603C20833A3421546F7D101A971
:106C400006A807ADFFF7B8FD0FCD3C1D0FC42B689C
:106C500023704946CAE70098FEF71CF9384615B07C
:106C6000BDE8F0830328024605D0044B0448042AFB
:106C700018BF184670470348704700BF20E703203D
:106C8000F0E6032068E6032008B500224068FEF71E
:106C9000DDFABDE80840FFF7E5BF0000024B034AFC
:106CA0001A6000225A60704720E7032004780B0026
:106CB00000F11003012213F8101C0129184608D115
:106CC00053F8041C02EB4102013A03F11003F2D124
:106CD0007047022904BF53F8041C5218F4E70EB49D
:106CE000F0B588B000AF07F13405102155F8042B3A
:106CF0007A6004462B467818FD60FEF7D7FA0F2815
:106D00007A681AD900F1080323F007036E46ADEB49
:106D1000030D411C2B466846FD60FEF7C7FA021EB4
:106D200004DD236869469B6820469847B5462037AE
:106D3000BD46BDE8F04003B070470028F7D0236897
:106D400002469B6807F1100120469847EFE738B5E7
:106D50000B6803604D6843689D42044608D015B136
:106D60006B6801336B60606808B1FEF7C7FB656054
:106D700038BD07B503688DF807109B6801220DF137
:106D80000701984703B05DF804FB0B46114600224B
:106D900010B5C0E90022044683600BB9204610BD3F
:106DA000FFF7D5FFFAE78368EBB11A78032A1AD800
:106DB000DFE802F00417021B0520704702685B68D9
:106DC0005268D05C2D2812D0A0F13003092B0ED9C7
:106DD00074280ED066280CD0A0F16E03584258419A
:106DE000704706207047002070470420704703203A
:106DF00070470220704710B50446FFF7D4FF022801
:106E00000ED0C31EDBB2012B14D82268A3685068D1
:106E10005B68BDE810400A220021184400F02EBB38
:106E20002268A36852685B68D05CA0F17403584282
:106E3000584110BD0020FCE738B50023C0E90033FD
:106E400004460E48C4E90203A9B10B78032B06D00F
:106E50008BB9136858684B68C35C6E2B07D01368F6
:106E60004D6858688B6828445B1BA060E36011463E
:106E70002046FFF76CFF204638BD00BF7D760B0033
:106E800038B500250B46C0E90055C0E90255C0E9F8
:106E90000455044611464BB11A78012A06D103F174
:106EA0001002DB6882604361FFF751FF204638BD66
:106EB00010B54369044663B18068E060013B10305F
:106EC000A0602061636113B1FFF7F2FEA0600120B2
:106ED00000E0184610BD10B57D210446FFF749FFBC
:106EE00001232371204610BD08B50379012B02D080
:106EF000022B04D008BD2C21FFF73BFFFAE73A2113
:106F0000FAE710B50446FFF7EFFF20467B21FFF7B5
:106F100030FF00232371204610BD000013B5044646
:106F20000191FFF7E1FF2368019ADB6803492046DE
:106F3000984701232046237102B010BD57760B00FD
:106F400013B504460191FFF7CFFF2368019ADB6870
:106F500003492046984701232046237102B010BD03
:106F600040780B002DE9F0470D462221904604465B
:106F7000FFF7FFFEDFF8A490A8442F464745BA4626
:106F80003DD017F8016B222E06D05C2E04D030467F
:106F900000F044F90028F1D12368AAEB05029B68B0
:106FA0002946204698475C212046FFF7E2FE0D2E39
:106FB0000AD8072E1CD9A6F10803052B18D8DFE83C
:106FC00003F00D0F11171315222E01D05C2E0FD1D7
:106FD00031462046FFF7CDFE3D46CFE76221F8E778
:106FE0007421F6E76E21F4E76621F2E77221F0E7FB
:106FF00023683246DB68494620469847ECE7BD42A5
:1070000005D023687A1B9B68294620469847222191
:107010002046FFF7AEFEBDE8F08700BF43780B00C7
:1070200013B50446CDE90021FFF75EFF2046DDE9F8
:107030000021FFF797FF02232046237102B010BD05
:1070400013B50446CDE90021FFF74EFF2046DDE9E8
:107050000021FFF787FF01232046237102B010BDF6
:10706000232813B502D9002002B010BDA0F10B03F4
:10707000022B1AD8174C2178BFF35B8F11F0010156
:107080000BD120460191FDF72FFD019928B112483F
:10709000FEF789F92046FDF72CFD0F4B1878FDF718
:1070A000E9FF0028DFD10120DEE7012809D800F040
:1070B00087F80021007CFDF7C5FF80F00100C0B219
:1070C000D2E709380128EED800F03AF8007CFDF745
:1070D00071FFF2E728E703202CE703200D2810B505
:1070E00004469CBF0E34A4B22046FFF7B9FF50B14E
:1070F00003212046FDF7DEFE032804D12046BDE82B
:107100001040FDF7DFBE002010BD704738B50446C3
:1071100014252A46002100F0B1F8258040250749B2
:1071200025812846258200F071F8044960602846D0
:1071300000F06CF8E060204638BD00BF49780B00D5
:1071400030B50E4D2978BFF35B8F11F0010487B085
:1071500011D12846FDF7C8FC68B101A8FFF7D6FF9A
:1071600001AA21460648FFF769FC2846FDF7C1FC45
:10717000044800F04DF8024807B030BD34E7032062
:1071800038E703200B710B007047000038B50A4B3D
:1071900003600123044643610849202000F036F8CB
:1071A000202560600549A560284600F02FF8C4E955
:1071B0000305204638BD00BF1800010049780B00C8
:1071C00030B50E4D2978BFF35B8F11F0010487B005
:1071D00011D12846FDF788FC68B16846FFF7D6FF55
:1071E0006A4621460648FFF773FC2846FDF781FCF6
:1071F000044800F00DF8024807B030BD50E7032006
:1072000054E7032089710B00FDF75BBCFDF75BBC05
:10721000002301461A46184600F03AB9024B1844BA
:10722000407800F097007047DE780B000A449142E6
:1072300000F1FF3300D1704710B511F8014B03F88E
:10724000014F9142F9D110BD884210B501EB020403
:1072500002D98442234607D8431EA14208D011F820
:10726000012B03F8012FF8E7024401468A4200D1BE
:1072700010BD13F8014D02F8014DF7E70244034633
:10728000934200D1704703F8011BF9E738B5104B62
:107290001D68AB6B0446B3B91820FDF7EFFF02463B
:1072A000A86320B90B4B0C484221FEF70FF80B499D
:1072B0000B4BC0E900130B4B83600B238381002130
:1072C0000120C2E90401AB6B00221C615A6138BD88
:1072D000D0E503204A780B0061780B000E33CDAB6C
:1072E00034126DE6ECDE0500C9B2034610F8012B3E
:1072F0001AB18A42F9D118467047002918BF0023F5
:10730000F9E710B50446FFF7EFFF18B92046FDF77F
:1073100095FB204410BD034611F8012B03F8012B07
:10732000002AF9D1704710B57AB1034601398418A3
:1073300013F8010B11F8012F904201D1A34201D1A2
:10734000801A10BD0028F3D1FAE71046F9E738B5E6
:1073500003460C4669B9BDE83840FFF7C5BF431C7A
:10736000054621461846FFF7BFFF0028F7D12846FB
:1073700038BD0025F5E70000012B2DE9F04701D0CD
:10738000242B06D9FDF79AFF162303600020BDE8E1
:10739000F087DFF8E4C00D462E4615F8014B14F8CF
:1073A0000C7017F00807F7D12D2C32D12C7801275B
:1073B000B51C002B5BD0102B09D1302C07D12C78B9
:1073C00004F0DF04582C4DD16C781023023507F1FE
:1073D000004808F1FF384FF0000CB8FBF3F966469F
:1073E00003FB198AA4F1300EBEF1090F16D87446BA
:1073F000A34224DDBCF1000F1EDBB1451CD301D13B
:10740000A24519DB06FB03464FF0010C15F8014BB2
:10741000E8E72B2C04BF2C78B51CCAE7A4F1410E79
:10742000BEF1190F01D8373CE2E7A4F1610EBEF1BD
:10743000190F04D8573CDBE74FF0FF3CE6E7BCF1FF
:10744000000F05DA22230360464642B930469EE724
:1074500007B17642002AF9D0BCF1000F00D0691EB6
:107460001160F3E73024002BB1D10823AFE7302CB3
:10747000A5D00A23ABE700BFDF780B0013460A460E
:10748000014602480068FFF777BF00BFD0E5032040
:107490002DE9F843DFF8B8800646D8F800001F460B
:1074A0000D46914600F056F8254B1C6834B9254C22
:1074B0001C60254B13B11B68C4F8883063681F2B10
:1074C00007DDD8F8000000F047F84FF0FF30BDE8C6
:1074D000F8834EB3D4F8880088B91C4B23B9D8F888
:1074E000000000F038F8F0E74FF48470FDF7C6FEB6
:1074F0000028F4D00023C0E94033C4F88800636852
:1075000040F8239001229A4000EB8301D0F800312B
:107510001343C0F80031022EC1F8807002BFD0F8CA
:1075200004311343C0F804316368D8F800005A1CD2
:107530000233626044F8235000F00EF80020C6E7E2
:10754000F4E7032068E70320000000007D520B00F1
:1075500034E6032070477047704700004D4A0B0027
:10756000894A0B00B14A0B00B54A0B00000000002D
:1075700043616C6C206F6E20707572652076697245
:107580007475616C006E616E00696E66006F766680
:10759000002E0000000000000000000000000000BD
:1075A00000000000D14A0B00F94A0B000000000067
:1075B00000000000FD4A0B00314B0B0079620B000C
:1075C0001D640B0000000000000000004B530B0086
:1075D00041530B0037530B002D530B0021530B006D
:1075E00015530B004D6B0B00556B0B0009530B0033
:1075F00001530B00F7520B00ED520B00896C0B008E
:10760000856B0B008D6B0B0000000000000000007C
:1076100099550B009B550B0059550B00DF6C0B0067
:10762000626175640053657269616C0053657269CB
:10763000616C31004A534F4E53747265616D4C6FEB
:107640006748616E646C657200617070002530314E
:10765000307520005D20002564002C200028293A88
:107660002000205B00636F6465203D2000256900D9
:1076700064657461696C73203D20000D0A006D0023
:107680006C6E00666E007400636F64650064657400
:1076900061696C000000000000000000FD5A0B0052
:1076A000155B0B0079620B001D640B0000000000ED
:1076B00000000000295B0B003D5B0B0055640B00D4
:1076C00083560B00000000000000000095560B00E0
:1076D000BB560B00DD610B0085560B00000000005F
:1076E0000000000093560B00C9560B00655A0B00B2
:1076F000EB560B0025592D256D2D25645425483A50
:10770000254D3A2553257A0061736374696D6500D0
:10771000000000000000000039670B0029670B0023
:107720002B670B0000000000000000001F680B002A
:1077300087680B005D680B006D550B004F680B00F0
:1077400021680B0031680B0081680B0059560B0053
:1077500041680B0019680B000000000000000000E9
:1077600087690B007D690B0073690B0029690B00A9
:1077700067690B005B690B004D6B0B00556B0B00D1
:107780004F690B0047690B003D690B0033690B0023
:10779000896C0B00856B0B008D6B0B0000000000EB
:1077A00000000000C1690B002D6A0B00056A0B0088
:1077B0006D550B00D5690B00F1690B00E3690B00F7
:1077C000FF690B0059560B00C3690B00C7690B001A
:1077D0000000000000000000796A0B00C36A0B0083
:1077E0009B6A0B007B6A0B00A36A0B00AB6A0B0061
:1077F000B36A0B00BB6A0B0059560B000000000077
:10780000000000000D6B0B00176B0B00216B0B00D1
:107810002B6B0B00356B0B00416B0B004D6B0B00A2
:10782000556B0B005D6B0B00696B0B00716B0B00F4
:107830007B6B0B00896C0B00856B0B008D6B0B0059
:10784000257500752530347800005245454E54208A
:107850006D616C6C6F6320737563636565646564EB
:10786000002F6D6E742F776F726B73706163652F6D
:10787000776F726B73706163652F4743432D3130AF
:107880002D706970656C696E652F6A656E6B696EC7
:10789000732D4743432D31302D706970656C696ECF
:1078A000652D34385F32303230313132345F313629
:1078B00030363138303634312F7372632F6E65773E
:1078C0006C69622F6E65776C69622F6C6962632FD9
:1078D0007374646C69622F72616E642E63000020A1
:1078E0002020202020202020282828282820202070
:1078F0002020202020202020202020202020208820
:107900001010101010101010101010101010100483
:1079100004040404040404040410101010101010D3
:1079200041414141414101010101010101010101C7
:1079300001010101010101010101101010101010DD
:107940004242424242420202020202020202020297
:1079500002020202020202020202101010102000B3
:107960000000000000000000000000000000000017
:107970000000000000000000000000000000000007
:1079800000000000000000000000000000000000F7
:1079900000000000000000000000000000000000E7
:1079A00000000000000000000000000000000000D7
:1079B00000000000000000000000000000000000C7
:1079C00000000000000000000000000000000000B7
:1079D00000000000000000000000000000000000A7
:1079E000E94D0B0055530B00BD530B0049550B00DF
:1079F00069620B00C9650B00E5650B0091690B001E
:047A00009D6C0B006E
:107A0400040000001400000003000000474E55006D
:107A14006F5464597DADAC47926677CD05FB158CE8
:047A240030FD730AB4
:107A2800CC760B00E4760B0008770B00D4E5032036
:107A3800000000000000000000000000000000003E
:107A4800000000000000000000000000000000002E
:107A5800000000000000000000000000000000001E
:107A6800000000000000000000000000000000000E
:107A780000000000000000000000000000000000FE
:107A880000000000000000000000000000000000EE
:047A9800F8E70320E8
:047A9C0000000000E6
:107AA60000000102030405060708090A0B0C0D0E67
:107AB6000F101112131415161718191A1B1C1D1E58
:047AC6001F20280055
:047ACA0078563412A4
:04000003B0004020E9
:00000001FF
