:02000002B0004C
:1040000000400B00926E0B00000006000D00050240
:084010000401D41700000000B8
:0440180058690B00D8
:10401C0010F8012B11F8013B012A28BF9A42F7D066
:10402C00D01A7047034613F8012B002AFBD1181A3B
:10403C000138704709480A49884208B505D0094A31
:10404C00824202D0121A02F0E9FA0748074A00210C
:10405C00121A02F00BFB014808BD00BFE8E5032073
:10406C00F06D0B005CE603205CE60320FCE703200C
:10407C0070B5074E074C01F0FBFDA41BA4080025EE
:10408C00AC4200D170BD56F8043B98470135F7E7B8
:10409C00A86D0B00CC6D0B0000F048B808B500F013
:1040AC005DF8BDE8084001F09BBD00F033BB00F0AB
:1040BC0031BB00F037BB000008B5034A03490C20A4
:1040CC0000F044FAFEE700BFB9430B006C690B002B
:1040DC000078B0FA80F040097047012303707047F4
:1040EC00704700000A4B10B50446036000F0C2FE96
:1040FC00214601F00CF901F0C7FE01F0B9FE204693
:10410C00044B40F8043B00F08BFF204610BD00BF71
:10411C00A4690B008C690B0010B50446FFF7E2FF95
:10412C0020462421FFF7C5FF204610BD08B50A48DC
:10413C00002319461A46406800F084FA02F038FA57
:10414C004FF4165101F068FF01F09EFEBDE80840E7
:10415C004FF4165101F088BE14E703207FB502F02E
:10416C0027FA0146684600F013FD01F08DFE009918
:10417C0000F0BBFC02F01CFA01F051FF4FF4FA60A6
:10418C0001F002FD02F014FA4FF4165101F044FF55
:10419C0001F0E0FC044601F077FE002C054621DA24
:1041AC002D2100F093FC66420A223146284600F08D
:1041BC00A6FC284600F08DFC02F0FAF9002C05460E
:1041CC0002DA2D2100F082FC0A223146284600F04A
:1041DC0096FC44F6206001F0D7FC684600F042FBE8
:1041EC0004B070BD2646DFE770B5D0E90053142645
:1041FC00044606FB0356AE4204D0284600F032FBC0
:10420C001435F8E7206800F08DFA204670BD88421E
:10421C00F8B504460D46164616D9904215D2A2F1B1
:10422C001406751AA1F114072C44B7421CD02CB1FA
:10423C003146204600F093FB337C2374304600F06B
:10424C0011FB143E143CF0E70ED0B5420CD02CB14F
:10425C002946204600F083FB2B7C2374284600F073
:10426C0001FB14351434F0E7F8BD2DE9F0410023BF
:10427C00C0E9003383604F689F4204460E4623DD3D
:10428C004FF0140808FB07F000F044FA0546D8B1CB
:10429C00D4E9001208FB0212FFF7B9FF206800F006
:1042AC0041FA2560A760D6E9007308FB0378B8458E
:1042BC0008D03946284600F06CFB3B7C2B74143735
:1042CC001435F4E7736863602046BDE8F0810000A4
:1042DC0070B5244B244A9A6000248CB0C3E9004486
:1042EC00032000F053F92146012000F05FF9CDE9DD
:1042FC000044029401F0C8FD1C4C0546694603A815
:10430C00FFF7B3FF264603A906A8FFF7AEFF184B2D
:10431C0046F8043B06A909A8FFF7A7FF09AA1E2126
:10432C00304601F0D7F809A8FFF75EFF06A8FFF7A3
:10433C005BFF104B2360256203A8FFF755FF0E4B64
:10434C00236001F0A1FD4FF4165101F08DFD00F03A
:10435C0091FD214600F094FF6846FFF745FF0CB035
:10436C0070BD00BF5CE603200000FFFF68E6032081
:10437C008C690B00906A0B00A4690B0008B5024B0A
:10438C001B689B68019308BD6802030008B5024BCB
:10439C001B68DB68019308BD6802030008B5024B7B
:1043AC001B685B68019308BD1802030008B5024B3B
:1043BC001B68DB68019308BD1802030008B5024BAB
:1043CC001B685B69019308BD1802030008B5024B1A
:1043DC001B689B6D019308BD1802030008B5024BC6
:1043EC001B685B6E019308BD1802030008B5024BF5
:1043FC001B685B6C019308BD4802030008B5024BB7
:10440C001B689B6C019308BD4802030008B5024B66
:10441C001B68DB6C019308BD4802030008B5024B16
:10442C001B685B6D019308BD4802030008B5024B85
:10443C001B685B69019308BD6402030008B5024B5D
:10444C001B689B68019308BD3C02030008B5024B36
:10445C001B68DB68019308BD3C02030008B5024BE6
:10446C001B681B69019308BD3C02030008B5024B95
:10447C001B685B69019308BD3C02030008B5024B45
:10448C001B689B69019308BD3C02030008B5024BF5
:10449C001B68DB69019308BD3C02030008B5024BA5
:1044AC001B689B6A019308BD3C02030008B5024BD4
:1044BC001B68DB6A019308BD3C02030008B5024B84
:1044CC001B681B6C019308BD3C02030008B5024B32
:1044DC001B681B68019308BD4C02030008B5024B16
:1044EC001B685B68019308BD4C02030008B5024BC6
:1044FC001B689B68019308BD4C02030008B5024B76
:10450C001B681B69019308BD4C02030008B5024BE4
:10451C001B685B69019308BD4C02030008B5024B94
:10452C001B689B69019308BD4C02030008B5024B44
:10453C001B68DB69019308BD4C02030008B5024BF4
:10454C001B681B6A019308BD4C02030008B5024BA3
:10455C001B685B6B019308BD6002030008B5024B3E
:10456C001B68DB6E019308BD6002030008B5024BAB
:10457C001B681B6F019308BD6002030008B5024B5A
:10458C001B681B68019308BD2002030008B5024B91
:10459C001B685B68019308BD2002030008B5024B41
:1045AC001B685B69019308BD2002030008B5024B30
:1045BC001B68DB6A019308BD2002030008B5024B9F
:1045CC001B689B6D019308BD2002030008B5034BCB
:1045DC001B68D3F88830019308BD0000200203004B
:1045EC0008B5034B1B68D3F89430019308BD000049
:1045FC002002030008B5024B1B685B68019308BDE1
:10460C004002030008B5024B1B689B68019308BD70
:10461C004002030008B5024B1B68DB68019308BD20
:10462C004002030008B5024B1B681B69019308BDCF
:10463C004002030008B5024B1B685B69019308BD7F
:10464C004002030008B5024B1B689B69019308BD2F
:10465C004002030008B5024B1B68DB69019308BDDF
:10466C004002030008B5024B1B681B6A019308BD8E
:10467C004002030008B5024B1B681B6B019308BD7D
:10468C004002030008B5024B1B685B6B019308BD2D
:10469C004002030008B5024B1B681B6C019308BD5C
:1046AC004002030008B5024B1B685B6C019308BD0C
:1046BC004002030008B5024B1B685B6D019308BDFB
:1046CC004002030008B5024B1B689B6D019308BDAB
:1046DC004002030008B5024B1B689B68019308BDA0
:1046EC004402030008B5024B1B685B69019308BDCB
:1046FC004402030008B5024B1B681B6B019308BDF9
:10470C004402030008B5024B1B68DB6B019308BD28
:10471C004402030008B5024B1B681B68019308BDDB
:10472C001C02030008B5024B1B685B68019308BDB3
:10473C001C02030008B5024B1B689B68019308BD63
:10474C001C02030008B5024B1B685B6A019308BD91
:10475C001C02030008B5024B1B68DB6B019308BD00
:10476C001C02030008B5024B1B681B6C019308BDAF
:10477C001C02030008B5024B1B685B6C019308BD5F
:10478C001C020300002240681146FFF76BBF002299
:10479C0040681146FFF776BF40680022FFF76ABFFA
:1047AC004068002281F00101FFF754BF00234068EC
:1047BC001A461946FFF746BF002340681A461946A9
:1047CC00FFF738BF002240681146FFF72BBF0022CD
:1047DC0040681146FFF716BF406800220221FFF720
:1047EC0019BF002340681A46FFF704BF024B03228F
:1047FC005A60024A1A6070478CE60320BC690B00B1
:10480C000B6803604B68436013B15A6801325A60FD
:10481C00704738B5046805467CB16368013B63603A
:10482C005BB9236820469B689847A368013BA3604B
:10483C001BB923682046DB689847284638BD000022
:10484C00054B02221A60054B054A9A600020C3E909
:10485C000000FFF79BBE00BFA0E6032094E60320F8
:10486C000000FFFF10B504460068FFF75BFF204611
:10487C0010BD10B50446006808B1FFF753FF0023C4
:10488C00C4E90133236010BD38B504460D460068F9
:10489C000131FFF74FFF10B1C4E90005012038BD0D
:1048AC0010B50368044623B143688B4201D3012041
:1048BC0010BD2046FFF7E8FF0028F9D0A368002BB5
:1048CC00F5D122681370F2E737B50D461146019207
:1048DC000446FFF7E5FF019A28B92046FFF7C9FF08
:1048EC00204603B030BDA2602946206801F096FE38
:1048FC002268A3680021D154F2E7002313B5C0E964
:10490C00003304468360037341B108460191FFF7FD
:10491C0089FB019902462046FFF7D6FF204602B0DC
:10492C0010BD38B5054600680C4670B16A688B68D6
:10493C009A4208D3096831B101F0E5FEA368AB6077
:10494C000023A36038BDFFF7EDFE23682B6063687E
:10495C006B60A368AB600023C4E90033F1E710B5CA
:10496C000023C0E90033044683600373FFF7D9FFCB
:10497C00204610BD884210B5044605D00B682BB1FB
:10498C008A681946FFF7A0FF204610BDFFF771FF9C
:10499C00FAE710B500230446C0E9003383600373C3
:1049AC00FFF7E8FF204610BDF8B5044616460F4643
:1049BC0009B90020F8BD8AB1856815442946FFF76E
:1049CC006FFF0028F5D0A36820683246184439469A
:1049DC0001F024FE236800225A55A5600120E9E766
:1049EC0007B50023ADF8043001228DF8041001A99D
:1049FC00FFF7DAFF03B05DF804FB10B54368013B29
:104A0C000446436063B903689B689847A368013BFD
:104A1C00A3602BB923682046DB68BDE8104018471B
:104A2C0010BD70B5D0E90053044605EB0316AE4239
:104A3C0004D02846FFF716FF1035F8E72068FFF77B
:104A4C0071FE204670BD0000024800230360FFF792
:104A5C00CDBC00BFA4E6032010B5044680680368F3
:104A6C00DB689847E3681844E06010BDF8B506466B
:104A7C000D468F180024BD420CD0336815F8011B6D
:104A8C009B6830469847031E01DB1C44F3E7002C5F
:104A9C0008BF1C462046F8BD704710B510210446CF
:104AAC00FFF707FB204610BD13B50446084659B165
:104ABC000191FFF7B7FA23680199DB68024620469B
:104ACC0002B0BDE81040184702B010BD03689B68E7
:104ADC00184738B50D210546FFF7F8FF0A210446A3
:104AEC002846FFF7F3FF204438BD38B50546FFF7DD
:104AFC00DBFF04462846FFF7ECFF204438BD30B5F9
:104B0C008BB00023012A8DF8243098BF0A2209ACFF
:104B1C000D46B1FBF2F101FB125303F0FF03092B1D
:104B2C0094BF30333733DBB2AA4204F8013DEFD9DE
:104B3C002146FFF7B9FF0BB030BD10B50446FFF7A7
:104B4C003DFCE060236820465B699847002808DA42
:104B5C00FFF734FCE368C01AA3689842F2D34FF015
:104B6C00FF3010BD2DE9F04107460C468E180D465E
:104B7C00B542A5EB040807D03846FFF7DEFF031E4D
:104B8C0002DB05F8013BF3E74046BDE8F08100008D
:104B9C0038B50D4607490446FFF7AFFE2846FFF728
:104BAC00CCFF002804DBC1B22046FFF719FFF5E764
:104BBC00204638BD6D6A0B007047084611B10B6872
:104BCC005B681847704770477047704738B50446A4
:104BDC000D4600682E2101F08CFD2368C31A2B6052
:104BEC0023B1037803B1013023682060184638BD27
:104BFC0010B504210446FFF75CFA204610BD10B531
:104C0C0004210446FFF755FA204610BDFFF7FEBB02
:104C1C0008B5FFF7FDF9B0FA80F0400908BD704700
:104C2C0010B50C4601F030F9844210D001F0C0FCF4
:104C3C00844205D101F0BCFCBDE8104001F0EFB995
:104C4C002CB1236820465B68BDE81040184710BDA6
:104C5C0013B5044608460191FFF7E4F901990246A1
:104C6C00204602B0BDE8104001F076BC13B50446F6
:104C7C0008460191FFF7D6F923680199DB680246D3
:104C8C00204602B0BDE81040184707B503688DF800
:104C9C000710DB6801220DF10701984703B05DF89E
:104CAC0004FB00002DE9F74FD0E900844FF0140A03
:104CBC0000930AFB04F4184BA41017465C434546BA
:104CCC00002C21DD66100AFB06F005EB00093A46C4
:104CDC00B9F804B0285801915F4528BF5A4601F035
:104CEC001AFD002801994FF001030BD15F4503D148
:104CFC00009A13703446E3E7FCD9A61B09F114059E
:104D0C00013EF7E7F9DBF5E7A5EB08050248AD1026
:104D1C00684303B0BDE8F08FCDCCCCCC7FB5036934
:104D2C00057E019103B3F9B1002600F10C04039642
:104D3C0003A901A8FFF74AFF0146A8B10DF10B0327
:104D4C00039A8DF80B602046FFF7ACFF9DF80B30F3
:104D5C0053B12368142404FB0034083434F9023CA6
:104D6C00002BA8BFDDB2E3E7284604B070BD0EB43B
:104D7C00F0B58CB000AF07F14405044655F8042B90
:104D8C007A602B46202107F11000FD60FFF7DAFC5A
:104D9C001F287A681AD900F1080323F007036E461E
:104DAC00ADEB030D411C2B466846FD60FFF7CAFCBA
:104DBC00021E04DD23686946DB6820469847B54629
:104DCC003037BD46BDE8F04003B070470028F7D03F
:104DDC0023680246DB6807F1100120469847EFE78D
:104DEC0010B5094C2378BFF35B8FDB0709D4204641
:104DFC00FFF76EF928B12046FFF76FF9034801F071
:104E0C00FFFB034810BD00BFACE60320D34B0B00E7
:104E1C00E8E5032010B5094C2378BFF35B8FDB0763
:104E2C0009D42046FFF754F928B12046FFF755F96D
:104E3C00034801F0E5FB034810BD00BFB0E60320BA
:104E4C002B4C0B00ECE5032038B500250446C0E9DB
:104E5C000055C0E904558560856140F8245FFFF773
:104E6C00C5FAFFF7BDFFE061FFF7D4FF25732062A1
:104E7C00204638BD10B50A4C2378BFF35B8FDB0797
:104E8C000CD42046FFF724F940B10648FFF7DCFFAD
:104E9C002046FFF722F9044801F0B2FB014810BD8F
:104EAC00A8E60320B8E60320F9530B00024A034995
:104EBC0003480023FFF75ABBDD510B0069510B006F
:104ECC00E9500B0000231A4619461846FFF74EBB53
:104EDC0037B58D6804466846FFF792FC6A4629464A
:104EEC00204601F059FA01A8FFF793FC204603B0C5
:104EFC0030BD37B5CD6804466846FFF781FC6A467D
:104F0C002946204601F024FA01A8FFF782FC20462E
:104F1C0003B030BD37B50D6904466846FFF770FC29
:104F2C006A462946204601F0BCF901A8FFF771FC3E
:104F3C00204603B030BD000070B58AB00D46014666
:104F4C0004A8FFF7C5FF144E04A801F03DFAE8B120
:104F5C0004A96846FFF7CDFF02983146FFF758FECB
:104F6C00044610B12C1E18BF012401A8FFF751FCF8
:104F7C00002CE9D004A96846FFF7CCFF684601F085
:104F8C00C6F9286001A8FFF744FCDDE705A8FFF788
:104F9C0040FC0AB070BD00BF106A0B0037B50C4660
:104FAC00204613491546FFF733F850B900F06CFF53
:104FBC004FF4165100F058FF03B0BDE8304000F03C
:104FCC0063BF0C492046FFF723F878B94FF416530A
:104FDC0001A928460193FFF7AFFF01F0E9FA019907
:104FEC0001F01AF801F0E4FA03B030BD0020FBE741
:104FFC00156A0B001C6A0B0070B5D0E9005314261F
:10500C00044606FB0356AE4205D005F10800FFF737
:10501C00F3FF1435F7E72068FFF784FB204670BDDB
:10502C0010B504460C30FFF7E7FF2046FFF7F9FCFC
:10503C00204610BD10B5044B044640F8043BFFF766
:10504C00EFFF204610BD00BF8C690B0010B5044665
:10505C00FFF7F0FF20462421FFF72BF8204610BD68
:10506C0010B5034B03600446FFF7E4FF204610BD68
:10507C00A86A0B0010B50446FFF7F2FF2046242166
:10508C00FFF717F8204610BD0A6802604A684260B4
:10509C000022C0E9022210B502618C688460CC68E1
:1050AC00C4600C698A60CA6004610A6110BD002288
:1050BC00C0E9002210B582600C6804604C68446042
:1050CC008C680A604A6084608A6010BD10B5036801
:1050DC0004461868FFF7A2F9204610BD2DE9F04FE1
:1050EC0087B0804603931C4B5B68C3F30803894667
:1050FC0016466BB9FFF7BEFE044600F12403406A66
:10510C000593FFF783FD237B2BB105A8FFF7DEFF8B
:10511C0007B0BDE8F08F01232373D4E900535FFA85
:10512C0089F905EB830AAA4512D055F8047B314660
:10513C00381DFFF7F3FD8145F5D33B68039A0092C8
:10514C00D3F808B04A46334641463846D847EAE7D2
:10515C0000232373D9E700BF00ED00E02DE9F74FE2
:10516C009B461A4B5B68C3F3080380468946164678
:10517C006BB9FFF77FFE044600F12403406A0193EC
:10518C00FFF744FD237B2BB101A8FFF79FFF03B072
:10519C00BDE8F08F01232373D4E90053F6B205EB7D
:1051AC00830A55450ED055F8047B5946381DFFF738
:1051BC00B5FD8642F5D33B684A46DB684146384626
:1051CC009847EEE700232373DEE700BF00ED00E015
:1051DC002DE9F341164B5B68C3F3080305460F46F4
:1051EC001BBBFFF747FE00F124030446406A019302
:1051FC00FFF70CFDD4E90063462406EB8308B045A9
:10520C0009D101A8FFF762FFA542B4BF002001201D
:10521C0002B0BDE8F08156F8040B39460430FFF7B4
:10522C007DFD8442A8BF0446E9E70020F0E700BFFB
:10523C0000ED00E0F8B5D0E901539D4204460E465E
:10524C000DDB6F1C002F006804DDB900FFF772FA4C
:10525C0018B9F8BDFFF766FA00202060A760276830
:10526C00626807EB85019200A2EB8502081D01F034
:10527C00E3F947F825606368013363600120E8E7D0
:10528C0037B500F124030446406A01930D46FFF73D
:10529C00BDFCD4E9003203EB8202934219460BD0D9
:1052AC000968A94203F10403F7D101A8FFF70EFF27
:1052BC000025284603B030BD29462046FFF7BAFF2B
:1052CC0005460028F1D06368012B01D1FFF7EEFDF4
:1052DC0001A8FFF7FBFEECE770B50446D0E900022D
:1052EC000B4600EB820282420FD001461D6851F83A
:1052FC00046BAE4207D1521A01F09EF96368013B70
:10530C006360012070BD0846EDE70020FAE71FB589
:10531C0000F124030446406A01910393FFF776FCE5
:10532C0001A92046FFF7D8FF18B163680BB9FFF746
:10533C00C9FD03A8FFF7CAFE04B010BD70B5D0E9D3
:10534C0004561823044603FB0656AE4215D005F14D
:10535C0010012046FFF7C0FF63680BB9FFF7B2FDE1
:10536C00E06929690368DB689847696919B1206AA3
:10537C000368DB6898471835E7E7D4E90453182627
:10538C0006FB0356AE4204D02846FFF76BFA1835DD
:10539C00F8E70023636170BD73B50446FFF792FD17
:1053AC0004F12403606A0193FFF730FC2046FFF7F9
:1053BC00C5FF01A8FFF78AFE606A08B1FFF71EF867
:1053CC00D4E90453182606FB0356AE4204D02846F3
:1053DC00FFF748FA1835F8E72069FFF7A3F92068BA
:1053EC00FFF7A0F9204602B070BD00000148FFF79E
:1053FC00D3BF00BFB8E603208842F8B504460D467B
:10540C00164615D9904214D2A2F11406751AA1F1C0
:10541C0014072C44B7421AD01CB131462046FFF772
:10542C0033FE06F10800FFF7E7FD143E143CF1E7EC
:10543C000DD0B5420BD01CB129462046FFF724FEF7
:10544C0005F10800FFF7D8FD14351434F1E7F8BD69
:10545C008842F8B504460D46164614D9904213D22C
:10546C00A2F11006751AA1F110072C44B74218D0FE
:10547C001CB131462046FFF772FA3046FFF7F2F9BD
:10548C00103E103CF2E70CD0B5420AD01CB12946B4
:10549C002046FFF764FA2846FFF7E4F9103510347C
:1054AC00F2E7F8BD70B50E1E054611DD3001FFF7B1
:1054BC0031F9044658B1D5E9001201EB0212FFF79D
:1054CC00C7FF2868FFF72EF92C60AE60012070BD75
:1054DC000024F6E72DE9F04F904695B00023039198
:1054EC00D8F804100A9346229942C0E90033C0E967
:1054FC000233C0E90433CDE908330446027623DCD9
:10550C00D8E90057142303FB0757AF423BD0294679
:10551C000BA8FFF724FA0BA90FA8099EFFF71FFA97
:10552C00DDE9091399421BDA089B099A03EB06166D
:10553C0003EB0212314606F11000FFF789FFEEB9BA
:10554C00099B0133099311E008A8FFF7ABFF002872
:10555C00D6D108A8FFF765FA204615B0BDE8F08F44
:10556C00013108A8FFF79EFF0028DDD10FA8FFF737
:10557C0079F90BA8FFF776F91435C6E70FA9304671
:10558C00FFF7EDF9DCE70026CDE90B660D964FF041
:10559C001409DDE908239E427CDA3301D3580693C3
:1055AC000BB90136F5E70023079309FB06F30293C9
:1055BC000BAD07A906A8FFF709FB82460028F0D01F
:1055CC004FF000038DF817300146079A0DF11703C1
:1055DC002846FFF767FB9DF817700190002F4AD102
:1055EC00BDF81C30ADF84030CDE911774FF6FF73A4
:1055FC00CDF83CA0ADF842301397D5E90132934277
:10560C0017DB03F1010ABAF1000F30DD09FB0AF0D8
:10561C00FFF780F8834660B3D5E9001209FB02124C
:10562C00FFF7EAFE2868FFF77DF8C5F800B0C5F86B
:10563C0008A02B68019A09FB023A6A68514609FBDB
:10564C0002320AF11400FFF7D7FEBAF1000F03D0B3
:10565C000FA95046FFF718FD6B6801336B6011A85A
:10566C00FFF7CAFC3FB10BA8FFF7C6FC71E7BB46BE
:10567C00D8E70127F3E7019B2D6809FB0355069B2F
:10568C001B782BB9D8F80030029A13441B7CEB80A2
:10569C0008358EE72168226062686360A36809920E
:1056AC000A9A0A93E368A2600B9A0B932369E2604F
:1056BC000C9A0C93636922610D9A0D93039B0891CC
:1056CC0062612376CFE70000F0B5044687B00D4643
:1056DC002646194668461746FEF7C7FD0B4B46F89B
:1056EC00043B694603A8FEF7C0FD03AA39463046C1
:1056FC00FFF7F0FE03A8FEF777FD6846FEF774FD92
:10570C00034B23602046256207B0F0BD8C690B006B
:10571C00906A0B00F0B50F4685B01D490A9C3846BF
:10572C0016461D46FEF774FCC0B9A4B1294601A863
:10573C00FFF7BDFC1749242000F05EFF054630B191
:10574C0001AB32462146FFF7BFFF134B2B6001A87C
:10575C00FEF74AFD2C46204605B0F0BD0F493846F1
:10576C00FEF756FC90B9002CF5D0294601A8FFF79E
:10577C009EFC0849242000F03FFF05460028E6D097
:10578C0001AB32462146FFF79FFFE0E70024E2E73A
:10579C00246A0B00116C0B00A86A0B00286A0B0022
:1057AC00014B024A1A607047B4E60320396A0B00B9
:1057BC002DE9F047089DD0F8209004460E46174678
:1057CC00984600F061FB81454CD02B79190704D524
:1057DC006A6954492046FFF7CAFAB8F1000F0DD098
:1057EC005B212046FFF751FA41462046FFF73EFA6F
:1057FC0023684D49DB680222204698472B79DA074B
:10580C0023D5D5F808802F21404600F098FF08B129
:10581C0000F1010841462046FFF728FA2B799B0737
:10582C0008D53A212046FFF730FAEA683F4920466E
:10583C00FFF79DFA2A79236812F0040FDB6814BF76
:10584C003B493C490222204698472B7958071DD5E5
:10585C0029690B461A4613F8010B60B1202808D1B0
:10586C001946F7E7344800F014FC0028ADD0BDE829
:10587C00F0872828EED12368521ADB682046984717
:10588C0023682E49DB6804222046984700213846BD
:10589C00FEF764FE01462046FFF7E8F92368254928
:1058AC00DB680222204698471EB131462046FFF79E
:1058BC00DDF92B7913F0300F2CD023682049DB68ED
:1058CC000222204698472B79D9060AD523681D4910
:1058DC00DB68072220469847AA691B492046FFF738
:1058EC0046FA2B799A0611D5DB0605D523681049A3
:1058FC00DB6802222046984723681449DB6820465F
:10590C000A229847E9692046FFF7B0F95D21204645
:10591C00FFF7BBF923680E49DB6820460222BDE87D
:10592C00F04718473D6A0B00446A0B00476A0B00AE
:10593C004A6A0B004F6A0B0044E703204D6A0B00C8
:10594C00526A0B00556A0B005D6A0B00606A0B0013
:10595C006B6A0B002DE9F0410446076A0D461646AA
:10596C0000F092FA874207D0206A03683246294633
:10597C00DB68BDE8F0411847034800F08AFB0028BB
:10598C00F2D0BDE8F08100BF44E703202DE9F043DD
:10599C0085B0D0F820900C9C05460F4690461E46CC
:1059AC0000F072FA814505D1494800F072FB0028DD
:1059BC0040F08A802B6A474A00924FF000096846F3
:1059CC00CDE902398DF8049000F027FD4946404698
:1059DC00FEF7C4FD404980460122684600F0ACFD4C
:1059EC004146FFF735F93FB13C490122684600F0CA
:1059FC00A3FD3946FFF72CF93EB13949012268461F
:105A0C0000F09AFD3146FFF723F92379DF070ED515
:105A1C00A6682F21304600F092FE00B1461C314999
:105A2C000122684600F088FD3146FFF711F9237911
:105A3C009E0707D52C490222684600F07DFDE168DF
:105A4C0000F0F8FC2379580714D5266933461F4615
:105A5C0013F8012B2AB1202A01D11E46F7E7282A78
:105A6C00F5D122490222684600F066FDBA1B314688
:105A7C0000F072FD2379190707D51D4901226846EC
:105A8C0000F05AFD616900F0E7FC2379DA0607D5CE
:105A9C0018490422684600F04FFDA16900F0CAFCC9
:105AAC0023799B0607D514490622684600F044FD6D
:105ABC00E169FFF7CDF8684600F099FC286A0F49B8
:105ACC0003680222DB68984705B0BDE8F08300BF8D
:105ADC0044E70320006A0B001A6A0B006E6A0B0085
:105AEC00A46C0B00706A0B00726A0B00756A0B00D9
:105AFC00786A0B007A6A0B007F6A0B006B6A0B00EA
:105B0C0008B50020FEF7F6FD28B1FEF7EBFD80F09E
:105B1C000100C0B208BD0120FCE710B50020FEF763
:105B2C0055FC0446A0B9FEF729FD012810D12046EA
:105B3C00FEF744FD60B9FFF7E3FF10B9FEF7CAFDAD
:105B4C00F9E7FFF7DDFFBDE810400020FEF73EBC93
:105B5C00204610BD1FB5FFF7E0FF1022002168465C
:105B6C0000F084FD00216846FEF738FC009805B073
:105B7C005DF804FB024B1A68024B1A60704700BFB9
:105B8C00F0E50320E0E603200021FEF707BD00004E
:105B9C00014B00229A607047E4E60320014B186029
:105BAC00704700BFF4E5032008B50B4B43B100F080
:105BBC006BF903681B699847002801DDAFF300807F
:105BCC00064B43B100F0F4FC03681B6998470028AE
:105BDC0001DDAFF3008008BD0000000000000000F4
:105BEC0008B5FFF7E1FFFEF7E9FB014B186008BDB4
:105BFC0064E703200548064A064908B5121A00F066
:105C0C000DFD054B054A1A6008BD00BF00F40320CA
:105C1C0004F40320646E0B0000F403201E1C279A6E
:105C2C0007B5002300931A466FF07701FEF7D8FCF6
:105C3C0003B05DF804FB000007B543880A2B08D0BD
:105C4C00502B0BD1094B1B684BB103B05DF804EB27
:105C5C001847FFF7E5FF03B05DF804FB0023009342
:105C6C001A466FF07701FEF7BBFCF4E7F8E6032069
:105C7C0010B512480021FEF77DFD114B1A68114B2F
:105C8C009A42114B0CBF012200221A7001D0FFF76F
:105C9C00B1FFFEF783FB044600F0F0FC0B4B13B195
:105CAC002046AFF3008000210848FEF72BFDBDE82D
:105CBC00104007480021FEF789BC00BFA95B0B0010
:105CCC0000F403201E1C279AF4E6032000000000B9
:105CDC00455C0B00704710B518210446FEF7E9F936
:105CEC00204610BDF0B5037D062B8DB00E4600F19D
:105CFC0004074FF0000412D000F1080515F8011D3F
:105D0C000A223046FEF7FBFEAF42044419D0002CA9
:105D1C00F4D02E213046FEF7D9FE0444EEE72F23B3
:105D2C006A4639460A208DF80040FEF77FFB68462C
:105D3C00FEF778F933680246DB68694630469847C7
:105D4C00044620460DB0F0BD10B5054B044611229B
:105D5C0040F8043B002100F089FC204610BD00BF38
:105D6C000C6B0B000346074A10B543F8042B01F1EA
:105D7C00100251F8044B43F8044B9142F9D10A78C4
:105D8C001A7010BD0C6B0B0010B59DF8084044EA5E
:105D9C00032343EA024242EA016104234160037592
:105DAC0010BD000007B5064B0360CB7800938B78D1
:105DBC004A780978FFF7E8FF03B05DF804FB00BFF1
:105DCC000C6B0B00417470477047704708B500218D
:105DDC00007CFEF7A3FB40EAE07008BD08B501218A
:105DEC00007CFEF79BFB40EAE07008BD08B5007C28
:105DFC00FEF78CFB20EAE07008BD08B5007CFEF7CE
:105E0C007DFB20EAE07008BD13B50446007C0191CF
:105E1C00FEF77CFB0028019901DC607C20B1207C22
:105E2C00FEF784FB20EAE07002B010BD007CFEF7A8
:105E3C0085BB10B514210446FEF73BF9204610BD76
:105E4C0010B54FF47A73044608460021C4E90113D7
:105E5C00044B23600123207463741146FEF736FB58
:105E6C00204610BD206B0B00007C0022FEF736BBD9
:105E7C00007CFEF73BBB10B514220446002100F059
:105E8C00F5FB204610BD000010B50F4C88B003A8E0
:105E9C00FFF7F1FF2178BFF35B8F11F001010FD1F8
:105EAC0020460191FEF714F9019948B103AA07485D
:105EBC00FFF7C6FF2046FEF710F9054800F0A0FBDF
:105ECC00024808B010BD00BFFCE6032000E7032029
:105EDC00D55D0B00002240681146FEF7A3BB0022E3
:105EEC0040681146FEF7BEBB002240681146FEF723
:105EFC00C9BB40680022FEF7BDBB4068002281F0A0
:105F0C000101FEF7A7BB002340681A461946FEF7AD
:105F1C0099BB002340681A461946FEF78BBB00223A
:105F2C0040681146FEF76EBB406800220221FEF766
:105F3C0071BB002340681A46FEF75CBB084B10B5DA
:105F4C00282422461846002100F090FB054B0480C3
:105F5C004FF0FF32426004225A60034A1A6010BDAF
:105F6C001CE7032014E70320546B0B0070474174AB
:105F7C00704708B5007CFEF791FA20EAE07008BD86
:105F8C0008B5007CFEF76AFA20EAE07008BD08B597
:105F9C00007CFEF773FA40EAE07008BD08B5007C9F
:105FAC00FEF764FA40EAE07008BD007CFEF76EBABA
:105FBC0037B5457C04462DB1207C03B0BDE830409C
:105FCC00FEF744BA007C0191FEF768FA00280199AB
:105FDC00F2DC284603B030BD10B514210446FEF7A0
:105FEC0068F8204610BD000010B54FF47A730446D3
:105FFC00084611460022C4E90123044B2360012307
:10600C0020746374FEF75AFA204610BD986B0B008F
:10601C00007C0023FEF74ABA0022FFF7F9BF007C90
:10602C00FEF70CBA002340681A46FEF7E3BA406844
:10603C0000220221FEF7EEBA002240681146FEF75C
:10604C00E1BA002240681146FEF7ECBA0023406822
:10605C001A461946FEF7EEBA002340681A4619464E
:10606C00FEF7F0BA40680021FEF714BB406800212F
:10607C00FEF718BB4068002281F00101FEF7EABA76
:10608C0040680022FEF7F6BA002240681146FEF77F
:10609C00F9BA002240681146FEF7E4BA40680021C4
:1060AC00FEF710BB2DE9F04395B014460D4607469C
:1060BC00FFF74AFE00211C220DA8009100F0D6FA31
:1060CC0040230C9320466B460CAA0021FEF75EF988
:1060DC00044600284BD1024601216868FEF7A2FA5B
:1060EC000221804622466868FEF79CFA009E814693
:1060FC002146002E3BD0002939D17368022B03D0E6
:10610C000A2B11D0F669F4E7B8F1000FFAD07169D7
:10611C0006A8043107ADFFF745FE0FCD3C1D0FC49B
:10612C002B6823704146EDE7B9F1000FEAD0746992
:10613C00102201A800F09AFA06238DF8143001AD54
:10614C0004F108031834186859682A4603C2083346
:10615C00A3421546F7D101A906A807ADFFF702FE29
:10616C000FCD3C1D0FC42B6823704946CAE700981D
:10617C00FEF704F9384615B0BDE8F0830328024653
:10618C0005D0044B0448042A18BF1846704703482E
:10619C00704700BF44E7032014E703208CE603207C
:1061AC0008B500224068FEF785FABDE80840FFF705
:1061BC00E5BF0000024B034A1A6000225A60704788
:1061CC0044E70320CC6B0B0000F11003012213F801
:1061DC00101C0129184608D153F8041C02EB41028B
:1061EC00013A03F11003F2D17047022904BF53F8AE
:1061FC00041C5218F4E70EB4F0B588B000AF07F1E8
:10620C003405102155F8042B7A6004462B46781877
:10621C00FD60FEF797FA0F287A681AD900F1080387
:10622C0023F007036E46ADEB030D411C2B4668466D
:10623C00FD60FEF787FA021E04DD236869469B6841
:10624C0020469847B5462037BD46BDE8F04003B020
:10625C0070470028F7D0236802469B6807F11001AD
:10626C0020469847EFE738B50B6803604D684368E4
:10627C009D42044608D015B16B6801336B606068B1
:10628C0008B1FEF7BAFB656038BD07B503688DF839
:10629C0007109B6801220DF10701984703B05DF8C8
:1062AC0004FB0B461146002210B5C0E9002204463F
:1062BC0083600BB9204610BDFFF7D5FFFAE7836862
:1062CC00EBB11A78032A1AD8DFE802F00417021B84
:1062DC000520704702685B685268D05C2D2812D08C
:1062EC00A0F13003092B0ED974280ED066280CD0DF
:1062FC00A0F16E03584258417047062070470020A9
:10630C00704704207047032070470220704710B577
:10631C000446FFF7D4FF02280ED0C31EDBB2012BBC
:10632C0014D82268A36850685B68BDE810400A2244
:10633C000021184400F09ABA2268A36852685B687E
:10634C00D05CA0F174035842584110BD0020FCE70A
:10635C0038B50023C0E9003304460E48C4E90203F3
:10636C00A9B10B78032B06D08BB9136858684B680E
:10637C00C35C6E2B07D013684D6858688B68284433
:10638C005B1BA060E36011462046FFF76CFF2046C4
:10639C0038BD00BF6D6A0B0038B500250B46C0E94F
:1063AC000055C0E90255C0E90455044611464BB1ED
:1063BC001A78012A06D103F11002DB68826043616E
:1063CC00FFF751FF204638BD10B54369044663B151
:1063DC008068E060013B1030A0602061636113B104
:1063EC00FFF7F2FEA060012000E0184610BD10B5CA
:1063FC007D210446FFF749FF01232371204610BD80
:10640C0008B50379012B02D0022B04D008BD2C2136
:10641C00FFF73BFFFAE73A21FAE710B50446FFF71E
:10642C00EFFF20467B21FFF730FF0023237120462E
:10643C0010BD000013B504460191FFF7E1FF23687E
:10644C00019ADB68034920469847012320462371B3
:10645C0002B010BD476A0B0013B504460191FFF75B
:10646C00CFFF2368019ADB68034920469847012334
:10647C002046237102B010BD086C0B002DE9F047CB
:10648C000D46222190460446FFF7FFFEDFF8A4904C
:10649C00A8442F464745BA463DD017F8016B222E2B
:1064AC0006D05C2E04D0304600F0B0F80028F1D1B4
:1064BC002368AAEB05029B682946204698475C2175
:1064CC002046FFF7E2FE0D2E0AD8072E1CD9A6F1A6
:1064DC000803052B18D8DFE803F00D0F111713155F
:1064EC00222E01D05C2E0FD131462046FFF7CDFE77
:1064FC003D46CFE76221F8E77421F6E76E21F4E719
:10650C006621F2E77221F0E723683246DB684946E0
:10651C0020469847ECE7BD4205D023687A1B9B6860
:10652C0029462046984722212046FFF7AEFEBDE8BB
:10653C00F08700BF0B6C0B0013B50446CDE90021AE
:10654C00FFF75EFF2046DDE90021FFF797FF0223EE
:10655C002046237102B010BD13B50446CDE90021CD
:10656C00FFF74EFF2046DDE90021FFF787FF0123EF
:10657C002046237102B010BD7047000038B50446A8
:10658C0014252A46002100F071F825804025074982
:10659C0025812846258200F031F8044960602846A0
:1065AC0000F02CF8E060204638BD00BF116C0B00E9
:1065BC0030B50E4D2978BFF35B8F11F0010487B015
:1065CC0011D12846FDF784FD68B101A8FFF7D6FF6D
:1065DC0001AA21460648FFF707FD2846FDF77DFD79
:1065EC00044800F00DF8024807B030BD4CE703201A
:1065FC0050E7032085650B00FDF757BDFDF757BD30
:10660C00002301461A46184600F03AB9024B1844CA
:10661C00407800F097007047A66C0B000A4491423A
:10662C0000F1FF3300D1704710B511F8014B03F89E
:10663C00014F9142F9D110BD884210B501EB020413
:10664C0002D98442234607D8431EA14208D011F830
:10665C00012B03F8012FF8E7024401468A4200D1CE
:10666C0010BD13F8014D02F8014DF7E70244034643
:10667C00934200D1704703F8011BF9E738B5104B72
:10668C001D68AB6B0446B3B91820FEF743F80246FD
:10669C00A86320B90B4B0C484221FEF763F80B4959
:1066AC000B4BC0E900130B4B83600B238381002140
:1066BC000120C2E90401AB6B00221C615A6138BD98
:1066CC00F4E50320126C0B00296C0B000E33CDABE0
:1066DC0034126DE6ECDE0500C9B2034610F8012B4E
:1066EC001AB18A42F9D118467047002918BF002305
:1066FC00F9E710B50446FFF7EFFF18B92046FDF790
:10670C0091FC204410BD034611F8012B03F8012B1A
:10671C00002AF9D1704710B57AB1034601398418B3
:10672C0013F8010B11F8012F904201D1A34201D1B2
:10673C00801A10BD0028F3D1FAE71046F9E738B5F6
:10674C0003460C4669B9BDE83840FFF7C5BF431C8A
:10675C00054621461846FFF7BFFF0028F7D128460B
:10676C0038BD0025F5E70000012B2DE9F04701D0DD
:10677C00242B06D9FDF7EEFF162303600020BDE89D
:10678C00F087DFF8E4C00D462E4615F8014B14F8DF
:10679C000C7017F00807F7D12D2C32D12C7801276B
:1067AC00B51C002B5BD0102B09D1302C07D12C78C9
:1067BC0004F0DF04582C4DD16C781023023507F10E
:1067CC00004808F1FF384FF0000CB8FBF3F96646AF
:1067DC0003FB198AA4F1300EBEF1090F16D87446CA
:1067EC00A34224DDBCF1000F1EDBB1451CD301D14B
:1067FC00A24519DB06FB03464FF0010C15F8014BC3
:10680C00E8E72B2C04BF2C78B51CCAE7A4F1410E89
:10681C00BEF1190F01D8373CE2E7A4F1610EBEF1CD
:10682C00190F04D8573CDBE74FF0FF3CE6E7BCF10F
:10683C00000F05DA22230360464642B930469EE734
:10684C0007B17642002AF9D0BCF1000F00D0691EC6
:10685C001160F3E73024002BB1D10823AFE7302CC3
:10686C00A5D00A23ABE700BFA76C0B0013460A4662
:10687C00014602480068FFF777BF00BFF4E503202C
:10688C002DE9F843DFF8B8800646D8F800001F461B
:10689C000D46914600F056F8254B1C6834B9254C32
:1068AC001C60254B13B11B68C4F8883063681F2B20
:1068BC0007DDD8F8000000F047F84FF0FF30BDE8D6
:1068CC00F8834EB3D4F8880088B91C4B23B9D8F898
:1068DC00000000F038F8F0E74FF48470FDF71AFF71
:1068EC000028F4D00023C0E94033C4F88800636862
:1068FC0040F8239001229A4000EB8301D0F800313C
:10690C001343C0F80031022EC1F8807002BFD0F8DA
:10691C0004311343C0F804316368D8F800005A1CE2
:10692C000233626044F8235000F00EF80020C6E7F2
:10693C00F4E7032068E703200000000021470B0068
:10694C0058E60320704770477047000041400B0029
:10695C007D400B00A5400B00A9400B00000000007F
:10696C0043616C6C206F6E20707572652076697255
:10697C007475616C00000000000000000000000055
:10698C000000000000000000C5400B00ED400B00B3
:10699C000000000000000000F1400B0025410B003E
:1069AC00BD570B0061590B000000000000000000F7
:1069BC00EF470B00E5470B00DB470B00D1470B0003
:1069CC00C5470B00B9470B0071600B0079600B00D9
:1069DC00AD470B00A5470B009B470B0091470B00E5
:1069EC00AD610B00A9600B00B1600B000000000052
:1069FC0000000000A54A0B00A74A0B00654A0B00DB
:106A0C0003620B00626175640053657269616C000E
:106A1C0053657269616C31004A534F4E5374726501
:106A2C00616D4C6F6748616E646C6572006170706B
:106A3C0000253031307520005D20002564002C20AD
:106A4C000028293A2000205B00636F6465203D20FC
:106A5C000025690064657461696C73203D20000D2C
:106A6C000A006D0066006C6E00666E007400636F49
:106A7C0064650064657461696C00000000000000CE
:106A8C000000000041500B0059500B00BD570B008B
:106A9C0061590B0000000000000000006D500B005D
:106AAC0081500B0099590B00C54B0B0000000000E6
:106ABC0000000000D74B0B00FD4B0B0021570B00C7
:106ACC00C74B0B000000000000000000D54B0B0072
:106ADC000B4C0B00A94F0B002D4C0B0025592D25F1
:106AEC006D2D25645425483A254D3A2553257A00B9
:106AFC0061736374696D65000000000000000000A4
:106B0C00F15C0B00E15C0B00E35C0B00000000008F
:106B1C0000000000D75D0B003F5E0B00155E0B0004
:106B2C00794A0B00075E0B00D95D0B00E95D0B0089
:106B3C00395E0B00714B0B00F95D0B00D15D0B0046
:106B4C0000000000000000003F5F0B00355F0B00F1
:106B5C002B5F0B00E15E0B001F5F0B00135F0B0044
:106B6C0071600B0079600B00075F0B00FF5E0B0080
:106B7C00F55E0B00EB5E0B00AD610B00A9600B002A
:106B8C00B1600B000000000000000000795F0B00FA
:106B9C00E55F0B00BD5F0B00794A0B008D5F0B00AE
:106BAC00A95F0B009B5F0B00B75F0B00714B0B00D9
:106BBC007B5F0B007F5F0B000000000000000000FB
:106BCC0031600B003B600B0045600B004F600B000D
:106BDC0059600B0065600B0071600B0079600B0055
:106BEC0081600B008D600B0095600B009F600B00AB
:106BFC00AD610B00A9600B00B1600B002575007531
:106C0C002530347800005245454E54206D616C6C33
:106C1C006F6320737563636565646564002F6D6EC7
:106C2C00742F776F726B73706163652F776F726BF4
:106C3C0073706163652F4743432D31302D7069703C
:106C4C00656C696E652F6A656E6B696E732D474353
:106C5C00432D31302D706970656C696E652D34383B
:106C6C005F32303230313132345F31363036313898
:106C7C00303634312F7372632F6E65776C69622FE7
:106C8C006E65776C69622F6C6962632F7374646CC8
:106C9C0069622F72616E642E630000202020202018
:106CAC0020202020282828282820202020202020B0
:106CBC0020202020202020202020208810101010A0
:106CCC0010101010101010101010100404040404F4
:106CDC000404040404101010101010104141414120
:106CEC004141010101010101010101010101010108
:106CFC00010101010101101010101010424242421A
:106D0C0042420202020202020202020202020202D7
:106D1C0002020202020210101010200000000000FB
:106D2C000000000000000000000000000000000057
:106D3C000000000000000000000000000000000047
:106D4C000000000000000000000000000000000037
:106D5C000000000000000000000000000000000027
:106D6C000000000000000000000000000000000017
:106D7C000000000000000000000000000000000007
:106D8C0000000000000000000000000000000000F7
:106D9C00000000000000000000000000DD420B00BD
:106DAC00F9470B004D480B00554A0B00AD570B0033
:106DBC00815B0B009D5B0B00495F0B00C1610B00FD
:106DCC00040000001400000003000000474E5500B2
:106DDC0025C74004438D69BEB95D13BD4BDE1FD47E
:046DEC00025DCE3B3B
:106DF000C06A0B00D86A0B00FC6A0B00F8E50320A0
:106E00000000000000000000000000000000000082
:106E10000000000000000000000000000000000072
:106E20000000000000000000000000000000000062
:106E30000000000000000000000000000000000052
:106E40000000000000000000000000000000000042
:106E50000000000000000000000000000000000032
:046E6000F8E703202C
:046E6400000000002A
:106E6E0000000102030405060708090A0B0C0D0EAB
:106E7E000F101112131415161718191A1B1C1D1E9C
:046E8E001F20280099
:046E920078563412E8
:04000003B000401CED
:00000001FF
