:02000002B0004C
:1040000000400B00806C0B00000006000D00050254
:0840100004016810000000002B
:044018004C680B00E5
:1040200009480A49884208B505D0094A824202D0A7
:10403000121A02F033FB0748074A0021121A02F055
:104040003BFB014808BD00BF54E50320E86B0B00B3
:10405000C4E50320C4E50320EDE7032070B5074E57
:10406000074C01F02BF8A41BA4080025AC4200D19A
:1040700070BD56F8043B98470135F7E79C6B0B0081
:10408000C06B0B0000F02BB808B500F08DF8BDE850
:10409000084000F0CBBF00F083BC00F081BC00F012
:1040A00087BC0078B0FA80F04009704701230370A4
:1040B000704721B18B88834201D08968F9E70846AF
:1040C00070470EB403B503AB012153F8042B0193E1
:1040D00000F0BDFE02B05DF804EB03B0704708B518
:1040E00000F036FC01F08AFB4FF4165101F07AFB28
:1040F00001F006FE4FF4165101F048FC0121132097
:1041000001F0A2FD0121132001F0AFFD01F0F8FD47
:104110004FF4165101F03AFC01F0F2FDBDE8084001
:1041200041F2883100F0D9BE38B500F01FFF4FF4DE
:10413000B474B0FBF4F303FB1400241A01F05EFB2B
:10414000074900F049FE01F059FB0A2205462146C5
:1041500000F05FFE284600F046FE204638BD00BF56
:1041600060680B0038B50468002000F053FB20B1F4
:10417000637813B900F0E4FBFAE76378BFF35B8F71
:10418000651C0BB9002038BD002000F043FB20B1B6
:104190002B7813B900F0D4FBFAE72378012BF1D187
:1041A000207BF0E7000000002DE9F043AC4E3578AD
:1041B000012D89B04ED0022D00F0CA80002D46D1CD
:1041C0002946132001F051FD4FF47A7000F0E8FE0B
:1041D0000121132001F049FD2946132001F045FD7E
:1041E0004FF47A7000F0DCFE01F08AFD014604A86D
:1041F00000F076FE0121132001F037FD122001F0BE
:104200004DFD054600F0B2FE964B04461860284668
:1042100001F072FF90A3D3E9002301F0D7FF02F071
:10422000E7F901F07BFF049B8F4A0093CDE902017F
:10423000234678218D4800F0CBFB01F0DFFA8B4953
:1042400000F0DDFD012304A8337000F0DBFC09B0B1
:10425000BDE8F08300F0B6F9854DDFF844822860B0
:1042600001F04EFD01F095FB4FF47A7000F098FEDE
:1042700001F046FD4FF4165101F088FB4FF4FA703F
:1042800000F08EFE01F03CFD41F2883100F025FE89
:10429000DFF81092774F00F063FB30B900F058FB65
:1042A00001F0ACFA414600F097FD00F059FB0446DE
:1042B000002831D001F0A2FA6F4900F0A0FD6F4B49
:1042C0006F4A1B7812786F4913438DF80030674AA4
:1042D00009683C2304A801F04FF804A8FFF742FF47
:1042E000059C05467CB16368013B63605BB923684C
:1042F00020469B689847A368013BA3601BB92368CD
:104300002046DB68984701F079FA5F492A46FFF7B3
:10431000D8FE022333709AE700F054F92B68C01AD4
:1043200044F61F63984207D90223337001F066FAFE
:10433000494600F064FD012401F060FA394600F0BE
:104340005EFD4FF4FA7000F02BFE002CA3D07EE748
:1043500001F054FA4D494E4C00F051FD4FF4FA7003
:1043600000F01EFEFFF7E0FE237D8046E3B12368E8
:104370002572D9680120FFF79CFE054600283ED033
:104380008389022B39D18373237D6BB123684FF46A
:104390007A70D96800FB08F80420FFF78AFE074608
:1043A000002842D0C0F80C80237D83B12368D968EF
:1043B0000E20FFF77EFE0546002875D0037B042BF8
:1043C00047D1C389012B02D043F00103C381304997
:1043D00004A800F0A5FB01F011FA2E4900F0FCFC46
:1043E00000F0F0F8224B1860049800233370002886
:1043F0003FF42DAF00F0DCFA29E78168BAE72649DF
:10440000102001F01FFD0746002865D01022294624
:1044100002F052F9214B3B600123BB802369BB6052
:104420000223BB81BB732761AEE71B49102001F05B
:1044300009FD054600284FD01022394602F03CF90C
:10444000164B2B600423AB8023692561C5E9023834
:10445000AAE78168ACE700BF6666666666664A3FA3
:1044600070E603206CE603206E680B00F4E5032081
:1044700074E60320EC680B008D680B00D1E5032087
:10448000D0E5032054E503209D680B001B690B0059
:10449000DCE503202A690B00046B0B00100003000D
:1044A0007B680B00AF680B000C49142001F0CAFCBC
:1044B000074678B11422294602F0FEF8084B3B600B
:1044C0000E23BB802369BB6004233B730123FB8164
:1044D00027617CE725757AE7257565E7046B0B0096
:1044E0001000030038B5104B01251D700F4B08223A
:1044F0001A700F4B0F4A9A600024C3E9004403204E
:1045000000F070F92146284600F07CF90A4821465F
:1045100000F05CFD094B1A1DC3E902441A60084A09
:104520005A601C611D7538BDD0E50320D1E503201C
:10453000C4E503200000FFFFD4E50320DCE50320F1
:104540001000030008B5024B1B689B68019308BD6F
:104550006802030008B5024B1B68DB68019308BDC5
:104560006802030008B5024B1B685B68019308BD35
:104570002C02030008B5024B1B689B68019308BD21
:104580002C02030008B5024B1B68DB68019308BDD1
:104590002C02030008B5024B1B681B69019308BD80
:1045A0002C02030008B5024B1B681B6B019308BD6E
:1045B0002C02030008B5024B1B685B68019308BD21
:1045C0001802030008B5024B1B685B69019308BD24
:1045D0001802030008B5024B1B689B6D019308BDD0
:1045E0001802030008B5024B1B685B6E019308BDFF
:1045F0001802030008B5024B1B685B6C019308BDF1
:104600004802030008B5024B1B685B69019308BDB3
:104610006402030008B5024B1B689B68019308BD48
:104620003C02030008B5024B1B68DB68019308BD20
:104630003C02030008B5024B1B681B69019308BDCF
:104640003C02030008B5024B1B685B69019308BD7F
:104650003C02030008B5024B1B689B69019308BD2F
:104660003C02030008B5024B1B68DB69019308BDDF
:104670003C02030008B5024B1B681B6A019308BD8E
:104680003C02030008B5024B1B689B6A019308BDFE
:104690003C02030008B5024B1B68DB6A019308BDAE
:1046A0003C02030008B5024B1B681B6C019308BD5C
:1046B0003C02030008B5024B1B681B6A019308BD4E
:1046C0002802030008B5024B1B685B6A019308BD12
:1046D0002802030008B5024B1B689B6A019308BDC2
:1046E0002802030008B5024B1B68DB6A019308BD72
:1046F0002802030008B5024B1B681B6B019308BD21
:104700002802030008B5024B1B685B6B019308BDD0
:104710002802030008B5024B1B681B6C019308BDFF
:104720002802030008B5024B1B689B6C019308BD6F
:104730002802030008B5024B1B68DB69019308BD22
:104740003002030008B5024B1B681B6A019308BDC9
:104750003002030008B5024B1B681B68019308BDBB
:104760004C02030008B5024B1B685B68019308BD4F
:104770004C02030008B5024B1B681B69019308BD7E
:104780004C02030008B5024B1B685B69019308BD2E
:104790004C02030008B5024B1B689B69019308BDDE
:1047A0004C02030008B5024B1B68DB69019308BD8E
:1047B0004C02030008B5024B1B681B6A019308BD3D
:1047C0004C02030008B5024B1B681B6D019308BD2A
:1047D0006002030008B5024B1B681B68019308BD0B
:1047E0002002030008B5024B1B685B68019308BDFB
:1047F0002002030008B5024B1B685B69019308BDEA
:104800002002030008B5024B1B68DB6A019308BD58
:104810002002030008B5024B1B68DB6C019308BD46
:104820002002030008B5024B1B685B6D019308BDB5
:104830002002030008B5024B1B689B6D019308BD65
:104840002002030008B5034B1B68D3F8883001939E
:1048500008BD00002002030008B5034B1B68D3F815
:104860009430019308BD00002002030008B5034BFB
:104870001B68D3F8AC30019308BD00002002030090
:1048800008B5024B1B685B68019308BD400203003A
:1048900008B5024B1B689B68019308BD40020300EA
:1048A00008B5024B1B68DB68019308BD400203009A
:1048B00008B5024B1B681B69019308BD4002030049
:1048C00008B5024B1B685B69019308BD40020300F9
:1048D00008B5024B1B689B69019308BD40020300A9
:1048E00008B5024B1B68DB69019308BD4002030059
:1048F00008B5024B1B681B6A019308BD4002030008
:1049000008B5024B1B681B6B019308BD40020300F6
:1049100008B5024B1B685B6B019308BD40020300A6
:1049200008B5024B1B681B6C019308BD40020300D5
:1049300008B5024B1B685B6C019308BD4002030085
:1049400008B5024B1B689B68019308BD4402030035
:1049500008B5024B1B68DB68019308BD44020300E5
:1049600008B5024B1B685B69019308BD4402030054
:1049700008B5024B1B681B6A019308BD4402030083
:1049800008B5024B1B681B6B019308BD4402030072
:1049900008B5024B1B68DB6B019308BD44020300A2
:1049A00008B5024B1B681B68019308BD1C0203007D
:1049B00008B5024B1B685B68019308BD1C0203002D
:1049C00008B5024B1B689B68019308BD1C020300DD
:1049D00008B5024B1B68DB69019308BD1C0203008C
:1049E00008B5024B1B685B6A019308BD1C020300FB
:1049F00008B5024B1B68DB6A019308BD1C0203006B
:104A000008B5024B1B681B6B019308BD1C02030019
:104A100008B5024B1B681B6C019308BD1C02030008
:104A200008B5024B1B685B6C019308BD1C020300B8
:104A3000002240681146FFF75BBF00224068114624
:104A4000FFF766BF40680022FFF75ABF40680022A8
:104A500081F00101FFF744BF002340681A46194660
:104A6000FFF736BF002340681A461946FFF728BFF4
:104A7000002240681146FFF71BBF00224068114624
:104A8000FFF706BF406800220221FFF709BF00239D
:104A900040681A46FFF7F4BE024B03225A60024AEE
:104AA0001A60704778E6032050690B0010B5044681
:104AB00008462170FFF73EFE00236360204610BDCC
:104AC00010B50446006818B1FFF772FF0023236099
:104AD00010BD38B50C460546FFF7F2FF54B12088EB
:104AE000FFF75EFF286028B122882146BDE83840E4
:104AF00001F0D4BD38BD38B5B1F904308380D1F8A8
:104B00000630C0F806304B8943810C460546FFF756
:104B1000D7FF236813B12B600023236038BD00004A
:104B2000F0B52B4D0B7D04468BB00846AF1D002B16
:104B300036D00B681B79002B32D0264B0493002211
:104B400002A90430CDE90222FFF790FEDDF80E3015
:104B5000C5F8063000B2BDF81230ADF80C00A880E0
:104B60000299BB802846FFF7B4FF02A8FFF7A8FF11
:104B700000232360A380A37123814FF6FF73638119
:104B8000B5F90430A380D5F80630C4F80630BB88E8
:104B9000296863812046FFF79CFF20460BB0F0BDDB
:104BA00000262023CDE902360B4B009302AA3346A0
:104BB0000A493220FFF706FE064B054802964FF6DB
:104BC000F26202A9CDE90323FFF795FFCDE700BF0D
:104BD00080E603200000FFFF8B690B0084690B0057
:104BE000054B02221A60054B054A9A600020C3E972
:104BF0000000FFF7F7BD00BF8CE6032080E603202E
:104C00000000FFFF10B504460068FFF7D1FE204604
:104C100010BD10B50446006808B1FFF7C9FE0023B7
:104C2000C4E90133236010BD38B504460D46006861
:104C30000131FFF7C5FE10B1C4E90005012038BD00
:104C400010B50368044623B143688B4201D30120A9
:104C500010BD2046FFF7E8FF0028F9D0A368002B1D
:104C6000F5D122681370F2E737B50D46114601926F
:104C70000446FFF7E5FF019A28B92046FFF7C9FF70
:104C8000204603B030BDA2602946206801F006FD31
:104C90002268A3680021D154F2E7002313B5C0E9CC
:104CA000003304468360037341B10846019101F06B
:104CB0005EFD019902462046FFF7D6FF204602B06E
:104CC00010BD70B505460E4609B9002070BD6AB129
:104CD000846814442146FFF7B3FF0028F5D0286804
:104CE000AB683146184401F01DFDAC600120EDE7D2
:104CF00007B50023ADF8043001228DF8041001A996
:104D0000FFF7DFFF03B05DF804FB10B583680446CE
:104D100013B1032201469847204610BD10B54368E1
:104D2000013B0446436063B903689B689847A368E6
:104D3000013BA3602BB923682046DB68BDE8104027
:104D4000184710BD10B50446006808B1FFF7E6FF2C
:104D5000204610BD13B50B460246D0E900016C4653
:104D600084E8030093E8030082E8030094E803006A
:104D700083E8030002B010BD024800230360FFF780
:104D800039BC00BF90E60320F8B506460D468F18E3
:104D90000024BD420CD0336815F8011B9B683046D7
:104DA0009847031E01DB1C44F3E7002C08BF1C4698
:104DB0002046F8BD13B50446084659B1019101F0EB
:104DC000D6FC23680199DB680246204602B0BDE8A4
:104DD0001040184702B010BD08B5FFF7EBFF08BD43
:104DE00003689B68184738B50D210546FFF7F8FFA3
:104DF0000A2104462846FFF7F3FF204438BD38B5A2
:104E00000546FFF7D7FF04462846FFF7ECFF20448E
:104E100038BD30B58BB00023012A8DF8243098BFFF
:104E20000A2209AC0D46B1FBF2F101FB125303F06B
:104E3000FF03092B94BF30333733DBB2AA4204F8A7
:104E4000013DEFD92146FFF7B5FF0BB030BD2DE98D
:104E5000F04186B000AF05460E46381D14211446B9
:104E60003B60FFF7BDFD13280ED8391D2846FFF71C
:104E7000A1FF04461EB12846FFF7B5FF04442046B3
:104E80001837BD46BDE8F08100F1080323F00703A1
:104E9000E846ADEB030D2246411C3B686846FFF730
:104EA0009FFD69462846FFF785FF0446C546E1E7B2
:104EB00010B50446FFF786FBE060236820465B6977
:104EC0009847002808DAFFF77DFBE368C01AA3685B
:104ED0009842F2D34FF0FF3010BD81607047000060
:104EE00038B50D4607490446FFF7D7FE2846FFF7B9
:104EF000DFFF002804DBC1B22046FFF7F9FEF5E72B
:104F0000204638BD6D680B00014B024A1A6070479D
:104F100094E60320B2690B0008B50020FFF730FDCE
:104F200028B1FFF71DFD80F00100C0B208BD0120CF
:104F3000FCE710B50020FFF74DFB0446A0B9FFF7D2
:104F400049FC012810D12046FFF774FC60B9FFF737
:104F5000E3FF10B9FFF7F4FCF9E7FFF7DDFFBDE869
:104F600010400020FFF736BB204610BD1FB5FFF7ED
:104F7000E0FF10220021684601F09EFB00216846F8
:104F8000FFF730FB009805B05DF804FB024B1A6890
:104F9000024B1A60704700BF58E5032098E60320D3
:104FA0000021FFF727BC0000014B00229A607047E8
:104FB0009CE60320006800F04DBD10B5044601607A
:104FC00002710AB1FFF7F6FF204610BD13B5044683
:104FD000019100F013FF019A01462046FFF7EDFF13
:104FE000204602B010BD0000014B1860704700BFA2
:104FF0005CE5032008B50B4B43B100F0FFFB0368F1
:105000001B699847002801DDAFF30080064B43B1D0
:1050100000F076FE03681B699847002801DDAFF3B6
:10502000008008BD000000000000000008B5FFF788
:10503000E1FFFFF7C7FA014B186008BD28E703201E
:105040000548064A064908B5121A01F027FB054B28
:10505000054A1A6008BD00BF00F4032004F40320D1
:10506000E46B0B0000F403201E1C279A07B50023F5
:1050700000931A466FF07701FFF7EEFB03B05DF87F
:1050800004FB000007B543880A2B08D0502B0BD136
:10509000094B1B684BB103B05DF804EB1847FFF7F1
:1050A000E5FF03B05DF804FB002300931A466FF0A0
:1050B0007701FFF7D1FBF4E7B0E6032010B5124803
:1050C0000021FFF7ADFC114B1A68114B9A42114BAE
:1050D0000CBF012200221A7001D0FFF7B1FFFFF7C9
:1050E00069FA044601F0F0FA0B4B13B12046AFF316
:1050F000008000210848FFF74BFCBDE8104007483E
:105100000021FFF79FBB00BFE94F0B0000F4032015
:105110001E1C279AACE603200000000085500B00FF
:1051200070470020704710B510210446FEF7B7FF06
:10513000204610BD08B5FFF7F6FF08BD30B50022C8
:105140004FF69C74026084808D888C800C6885800A
:1051500004600A6030BD10B504460068FFF728FC03
:10516000204610BD38B5C468F4B12378022B03D1B2
:1051700004F10C00FFF7EFFF656835B12846FFF733
:10518000C4FD10212846FEF78AFFA56835B12846E0
:10519000FFF7BBFD10212846FEF781FF20461421B2
:1051A000BDE83840FEF77BBF38BD0B6803604B6835
:1051B000436013B15A6801325A60704737B50446EC
:1051C00068460D46FFF7F1FF009B019A236062607D
:1051D000002301A801930093FFF7B4FD35B1281D0A
:1051E000FFF7B0FD08212846FEF759FF204603B01F
:1051F00030BD826810B50AB900F028FEBDE8104045
:10520000C368184708B5006800F11001FFF7F1FF07
:1052100008BD826810B50AB900F018FEBDE810405C
:10522000C368184708B5006800F11001FFF7F1FFE7
:1052300008BD000038B500230446036010200D4669
:10524000FEF729FF28B10123C0E90133024B0360B7
:10525000C5602060204638BDDC690B0038B50023EE
:1052600083608B6804460D462BB102229847EB6899
:10527000E360AB68A360204638BD0000F0B589B09C
:1052800004686846FFF75AFF4FF00203D4E84F2F37
:10529000002A03D1C4E8413F0029F7D125D104F108
:1052A0000C0569462846FFF749FFBFF35B8F0123D2
:1052B0006370002004F10803BFF35B8F53E8006FB5
:1052C00043E80002002AF9D1BFF35B8F6EB1FFF70C
:1052D000A1FA78B129463046FFF78BFF3046FFF739
:1052E00014FD10213046FEF7DAFE6846FFF733FF63
:1052F00009B0F0BD314602A8FFF7B0FFE068B4F98D
:10530000105008B101F016FA06901020ADF81C50AC
:10531000FEF7C1FE0546E8B1002787601820FEF7BA
:10532000BAFE044688B10146876002A8FFF712FD65
:10533000049BA268A360059B049206A9E268E3604F
:1053400004F110000592FFF7F9FE084BEB60084BE3
:105350002C60AB6006A8FFF7FEFE02A8FFF7D5FCA5
:10536000002229460348FFF75DFAB7E705520B0014
:1053700089540B0099590B002DE9F04F8BB005466D
:105380009DF850A00F4690469946FFF7E9FA07AE00
:10539000834638BB4FF62E73059005A93046ADF80D
:1053A0001830FFF7CBFE1420FEF775FE044648B117
:1053B000022303700123C0E901BB437031460C3066
:1053C000FFF7BCFE2846214640F8044BFFF732FFAA
:1053D0003046FFF7C0FE05A8FFF7BDFE28460BB01C
:1053E000BDE8F08F0C2300241420CDE90844079376
:1053F000FEF751FE014618B1C0E901440470447043
:1054000004A80391FFF716FF1E4B08930820FEF730
:1054100042FE044610B103A9FFF7C7FE00965FFAEB
:105420008AF34A46414638460994FFF7A1FAB8B9CB
:10543000039B5B7803F0FF0293B94FF69C7305A9B9
:1054400003A80592ADF81830FFF718FF05A8FFF77D
:1054500082FE05A80999FFF7B1FE06A8FFF772FCC6
:1054600003A905A8FFF7A1FE059B069A2B606A60B9
:10547000002306A806930593FFF764FC04A8FFF732
:1054800061FCABE705550B00012AF8B5054603D1D1
:105490000B6803600020F8BD022A10D0032AF9D15E
:1054A0000468002CF6D004F11000FFF754FE2046EB
:1054B000FFF72BFC18212046FEF7F1FDEAE7182044
:1054C0000E68FEF7E8FD044650B13146FFF7C6FE10
:1054D0003069B6F9147008B101F02CF92061A78287
:1054E0002C60D7E738B5002383608B6804460D46EF
:1054F0002BB102229847EB68E360AB68A3602046BB
:1055000038BD0000F0B589B004460D4601A811462B
:10551000FFF754FEA4B124B21DB1284601F00AF9E8
:10552000054601A803A90395ADF81040FFF7A6FEB4
:1055300003A8FFF710FE02A8FFF704FC09B0F0BDB6
:10554000019D0123D5E84F2F002A03D1C5E8413F33
:105550000029F7D1EFD12B73BFF35B8F6B702B1D3D
:10556000BFF35B8F53E8006F43E80042002AF9D194
:10557000BFF35B8F002EDED02046FFF74BF90746C6
:1055800060B105F10C013046FFF743FE3046FFF7EE
:10559000BCFB10213046FEF782FDCCE7314603A864
:1055A000FFF7A0FF2B7B8DF81C301020FEF773FD5A
:1055B0000546D0B187601420FEF76DFD044678B132
:1055C0008760014603A8FFF7C5FB059BA268A3609F
:1055D000069B0592E268E3609DF81C3006922374F6
:1055E000064BEB60064B2C60AB6003A8FFF78DFB0E
:1055F000002229460348FFF715F9C7E725520B009B
:1056000009560B0099590B00012A70B5044603D1C5
:105610000B680360002070BD022A0CD0032AF9D168
:105620000468002CF6D02046FFF76FFB14212046BB
:10563000FEF735FDEEE714200E68FEF72CFD05465B
:1056400020B13146FFF74EFF337C2B742560E1E734
:10565000704710B518210446FEF721FD204610BD05
:10566000F0B5037D062B8DB00E4600F104074FF018
:10567000000412D000F1080515F8011D0A22304679
:10568000FFF7C7FBAF42044419D0002CF4D02E2101
:105690003046FFF7A5FB0444EEE72F236A46394660
:1056A0000A208DF80040FEF7ADFF684601F05FF874
:1056B00033680246DB686946304698470446204610
:1056C0000DB0F0BD10B5054B0446112240F8043B67
:1056D000002100F0F1FF204610BD00BFF8690B006B
:1056E0000346074A10B543F8042B01F1100251F8A4
:1056F000044B43F8044B9142F9D10A781A7010BD5B
:10570000F8690B0010B59DF8084044EA032343EA0A
:10571000024242EA016104234160037510BD0000AA
:1057200007B5064B0360CB7800938B784A780978ED
:10573000FFF7E8FF03B05DF804FB00BFF8690B005A
:10574000417470477047704708B50021007CFFF72F
:1057500021F840EAE07008BD08B50121007CFFF7A0
:1057600019F840EAE07008BD08B5007CFFF70AF8B8
:1057700020EAE07008BD08B5007CFEF7FBFF20EAD8
:10578000E07008BD13B50446007C0191FEF7FAFFF6
:105790000028019901DC607C20B1207CFFF702F831
:1057A00020EAE07002B010BD007CFFF703B810B52E
:1057B00014210446FEF773FC204610BD10B54FF4CB
:1057C0007A73044608460021C4E90113044B2360A0
:1057D0000123207463741146FEF7BCFF204610BD00
:1057E0000C6A0B00007C0022FEF7BCBF10B514222F
:1057F0000446002100F060FF204610BD10B50F4C9C
:1058000088B003A8FFF7F2FF2178BFF35B8F11F098
:1058100001010FD120460191FEF743FC019948B1E7
:1058200003AA0748FFF7CAFF2046FEF73FFC0548DA
:1058300000F02EFF024808B010BD00BFB4E6032000
:10584000B8E6032045570B00002240681146FFF7D9
:105850002FB8002240681146FFF74AB8002240687E
:105860001146FFF755B840680022FFF749B8406875
:10587000002281F00101FFF733B8002340681A4687
:105880001946FFF725B8002340681A461946FFF766
:1058900017B8002240681146FEF7FABF40680022A0
:1058A0000221FEF7FDBF002340681A46FEF7E8BF5D
:1058B000084B10B5282422461846002100F0FCFEB3
:1058C000054B04804FF0FF32426004225A60034AC5
:1058D0001A6010BDD4E60320CCE603203C6A0B001E
:1058E00070474174704708B5007CFEF7CBFE20EA94
:1058F000E07008BD08B5007CFEF79CFE20EAE07071
:1059000008BD08B5007CFEF7A5FE40EAE07008BDC2
:1059100008B5007CFEF796FE40EAE07008BD007C0A
:10592000FEF7A0BE37B5457C04462DB1207C03B000
:10593000BDE83040FEF776BE007C0191FEF7A2FE86
:1059400000280199F2DC284603B030BD10B51421BF
:105950000446FEF7A4FB204610BD000010B54FF42E
:105960007A730446084611460022C4E90123044B19
:105970002360012320746374FEF794FE204610BD5B
:10598000786A0B00007C0023FEF784BE0022FFF73C
:10599000F9BF007CFEF73EBE10B5836804460BB924
:1059A00000F054FAC3689847A3681BB1032221464C
:1059B0002046984720461021BDE81040FEF76FBBF7
:1059C0007047F8B5064615460C468F18BC4206D0FF
:1059D000336814F8011B9B6830469847F6E7284661
:1059E000F8BD007C0022FEF765BE007C0021FEF7BA
:1059F00069BE007C0021FEF76DBE007C0021FEF731
:105A000071BE007C0021FEF775BE10B5142104465E
:105A1000FEF745FB204610BD38B5044615464FF449
:105A20007A730022C4E90123094B217408462360DC
:105A30002946FEF76FFEBF3008D16B69DB0705D53D
:105A40006868FEF7B5FFE868FEF7B2FF204638BD8C
:105A5000A86A0B0008B50021007CFEF763FEB0FACF
:105A600080F0400908BD002340681A46FEF708BFD1
:105A7000406800220221FEF713BF00224068114651
:105A8000FEF706BF002240681146FEF711BF002353
:105A900040681A461946FEF713BF002340681A46AD
:105AA0001946FEF715BF40680021FEF739BF406870
:105AB0000021FEF73DBF4068002281F00101FEF7A2
:105AC0000FBF40680022FEF71BBF0022406811464E
:105AD000FEF71EBF002240681146FEF709BF2DE900
:105AE000F04395B014460D460746FFF7EBFD002145
:105AF0001C220DA8009100F0DFFD40230C932046EE
:105B00006B460CAA0021FEF725FD044600284BD168
:105B1000024601216868FEF7CBFE0221804622463C
:105B20006868FEF7C5FE009E81462146002E3BD0E8
:105B3000002939D17368022B03D00A2B11D0F669E2
:105B4000F4E7B8F1000FFAD0716906A8043107AD87
:105B5000FFF7E6FD0FCD3C1D0FC42B6823704146B7
:105B6000EDE7B9F1000FEAD07469102201A800F046
:105B7000A3FD06238DF8143001AD04F10803183499
:105B8000186859682A4603C20833A3421546F7D15C
:105B900001A906A807ADFFF7A3FD0FCD3C1D0FC45B
:105BA0002B6823704946CAE70098FEF7CBFC3846BD
:105BB00015B0BDE8F0830000024B034A1A600022D2
:105BC0005A607047FCE60320D06A0B00232813B507
:105BD00002D9002002B010BDA0F10B03022B1AD88D
:105BE000174C2178BFF35B8F11F001010BD12046D8
:105BF0000191FEF756FA019928B11248FEF756FFB7
:105C00002046FEF753FA0F4B1878FEF79BFD00284D
:105C1000DFD10120DEE7012809D800F0CBF8002110
:105C2000007CFEF76FFD80F00100C0B2D2E70938BA
:105C30000128EED800F064F8007CFEF71BFDF2E7C7
:105C400004E7032008E70320232838B504460D465F
:105C50000AD8FF2908D0FFF7B9FF28B12946204606
:105C6000BDE83840FEF786BC38BD38B504460D4661
:105C7000FEF788FCFF2810D0062804D84D2323FA0D
:105C800000F0C30709D42046FFF7A0FF28B129463A
:105C90002046BDE83840FEF77DBC38BD0D2810B564
:105CA00004469CBF0E34A4B22046FFF78FFF50B1CC
:105CB00003212046FEF756FC032804D12046BDE808
:105CC0001040FEF76FBC002010BD704738B5044689
:105CD00014252A46002100F0EFFC258040250749C5
:105CE00025812846258200F0AFF8044960602846E7
:105CF00000F0AAF8E060204638BD00BF046B0B003E
:105D000030B50E4D2978BFF35B8F11F0010487B0D9
:105D100011D12846FEF7C5F968B101A8FFF7D6FFF3
:105D200001AA21460648FFF719FE2846FEF7BEF9EC
:105D3000044800F0ADFC024807B030BD10E7032076
:105D400014E70320CB5C0B007047704738B50A4B53
:105D500003600123044643610849202000F074F8E1
:105D6000202560600549A560284600F06DF8C4E96B
:105D70000305204638BD00BF18000100046B0B006E
:105D800038B50A4B036001230446436108492020CB
:105D900000F05AF8202560600549A560284600F00B
:105DA00053F8C4E90305204638BD00BF18000100C0
:105DB000046B0B0030B50E4D2978BFF35B8F11F0EB
:105DC000010487B011D12846FEF76BF968B1684627
:105DD000FFF7BCFF6A4621460648FFF71DFE28462E
:105DE000FEF764F9044800F053FC024807B030BDE8
:105DF0002CE7032034E70320495D0B0010B50E4C5F
:105E00002378BFF35B8FDB0786B011D42046FEF703
:105E100048F968B16846FFF7B3FF6A4601210748B1
:105E2000FFF7FAFD2046FEF741F9054800F030FC87
:105E3000024806B010BD00BF30E7032048E703204A
:105E40004B5D0B00FEF727B9FEF727B908B5FEF743
:105E5000CFFD000081F0004102E000BF83F000436D
:105E600030B54FEA41044FEA430594EA050F08BFF5
:105E700090EA020F1FBF54EA000C55EA020C7FEAB9
:105E8000645C7FEA655C00F0E2804FEA5454D4EB36
:105E90005555B8BF6D420CDD2C4480EA020281EA00
:105EA000030382EA000083EA010180EA020281EA38
:105EB0000303362D88BF30BD11F0004F4FEA01318A
:105EC0004FF4801C4CEA113102D0404261EB410199
:105ED00013F0004F4FEA03334CEA133302D052421F
:105EE00063EB430394EA050F00F0A780A4F10104DB
:105EF000D5F1200E0DDB02FA0EFC22FA05F2801815
:105F000041F1000103FA0EF2801843FA05F35941FA
:105F10000EE0A5F120050EF1200E012A03FA0EFC79
:105F200028BF4CF0020C43FA05F3C01851EBE371A3
:105F300001F0004507D54FF0000EDCF1000C7EEBC0
:105F400000006EEB0101B1F5801F1BD3B1F5001FFE
:105F50000CD349085FEA30004FEA3C0C04F101041D
:105F60004FEA445212F5800F80F09A80BCF1004F46
:105F700008BF5FEA500C50F1000041EB045141EAC8
:105F8000050130BD5FEA4C0C404141EB0101013C91
:105F900028BFB1F5801FE9D291F0000F04BF014680
:105FA0000020B1FA81F308BF2033A3F10B03B3F152
:105FB00020020CDA0C3208DD02F1140CC2F10C02E2
:105FC00001FA0CF021FA02F10CE002F11402D8BF40
:105FD000C2F1200C01FA02F120FA0CFCDCBF41EA0C
:105FE0000C019040E41AA2BF01EB0451294330BDDB
:105FF0006FEA04041F3C1CDA0C340EDC04F11404B8
:10600000C4F1200220FA04F001FA02F340EA03008E
:1060100021FA04F345EA030130BDC4F10C04C4F1D4
:10602000200220FA02F001FA04F340EA03002946B4
:1060300030BD21FA04F0294630BD94F0000F83F4FE
:10604000801306BF81F480110134013D4EE77FEAE1
:10605000645C18BF7FEA655C29D094EA050F08BF2D
:1060600090EA020F05D054EA000C04BF194610460E
:1060700030BD91EA030F1EBF0021002030BD5FEA52
:10608000545C05D14000494128BF41F0004130BD7A
:1060900014F580043CBF01F5801130BD01F00045CE
:1060A00045F0FE4141F470014FF0000030BD7FEA41
:1060B000645C1ABF194610467FEA655C1CBF0B463C
:1060C000024650EA013406BF52EA033591EA030F53
:1060D00041F4002130BD00BF90F0000F04BF00214B
:1060E000704730B54FF4806404F132044FF000057E
:1060F0004FF0000150E700BF90F0000F04BF0021F7
:10610000704730B54FF4806404F1320410F000455C
:1061100048BF40424FF000013EE700BF42004FEA57
:10612000E2014FEA31014FEA02701FBF12F07F43D4
:1061300093F07F4F81F06051704732F07F4208BF8B
:10614000704793F07F4F04BF41F40021704730B592
:106150004FF4607401F0004521F000411CE700BFDE
:1061600050EA010208BF704730B54FF000050AE061
:1061700050EA010208BF704730B511F0004502D562
:10618000404261EB41014FF4806404F132045FEA64
:10619000915C3FF4D8AE4FF003025FEADC0C18BF0D
:1061A00003325FEADC0C18BF033202EBDC02C2F1FF
:1061B000200300FA03FC20FA02F001FA03FE40EA91
:1061C0000E0021FA02F11444BDE600BF70B54FF095
:1061D000FF0C4CF4E06C1CEA11541DBF1CEA135573
:1061E00094EA0C0F95EA0C0F00F0DEF82C4481EADB
:1061F000030621EA4C5123EA4C5350EA013518BFFB
:1062000052EA033541F4801143F4801338D0A0FBE7
:1062100002CE4FF00005E1FB02E506F00042E0FB94
:1062200003E54FF00006E1FB03569CF0000F18BF9A
:106230004EF0010EA4F1FF04B6F5007F64F5407442
:1062400004D25FEA4E0E6D4146EB060642EAC621D5
:1062500041EA55514FEAC52040EA5E504FEACE2E42
:10626000B4F1FD0C88BFBCF5E06F1ED8BEF1004F45
:1062700008BF5FEA500E50F1000041EB045170BDC1
:1062800006F0004646EA010140EA020081EA030105
:10629000B4EB5C04C2BFD4EB0C0541EA045170BD01
:1062A00041F480114FF0000E013C00F3AB8014F17B
:1062B000360FDEBF002001F0004170BDC4F10004C4
:1062C000203C35DA0C341BDC04F11404C4F1200545
:1062D00000FA05F320FA04F001FA05F240EA0200A0
:1062E00001F0004221F0004110EBD37021FA04F6D6
:1062F00042EB06015EEA430E08BF20EAD37070BD90
:10630000C4F10C04C4F1200500FA04F320FA05F0EE
:1063100001FA04F240EA020001F0004110EBD370F0
:1063200041F100015EEA430E08BF20EAD37070BD60
:10633000C4F1200500FA05F24EEA020E20FA04F339
:1063400001FA05F243EA020321FA04F001F00041E8
:1063500021FA04F220EA020000EBD3705EEA430E59
:1063600008BF20EAD37070BD94F0000F0FD101F088
:106370000046400041EB010111F4801F08BF013CC1
:10638000F7D041EA060195F0000F18BF704703F0FF
:106390000046520043EB030313F4801F08BF013D86
:1063A000F7D043EA0603704794EA0C0F0CEA135542
:1063B00018BF95EA0C0F0CD050EA410618BF52EAFC
:1063C0004306D1D181EA030101F000414FF0000002
:1063D00070BD50EA410606BF1046194652EA430610
:1063E00019D094EA0C0F02D150EA013613D195EA84
:1063F0000C0F05D152EA03361CBF104619460AD1CC
:1064000081EA030101F0004141F0FE4141F47001D5
:106410004FF0000070BD41F0FE4141F4780170BDC5
:1064200070B54FF0FF0C4CF4E06C1CEA11541DBF2A
:106430001CEA135594EA0C0F95EA0C0F00F0A7F82C
:10644000A4EB050481EA030E52EA03354FEA013159
:1064500000F088804FEA03334FF0805545EA13136C
:1064600043EA12634FEA022245EA111545EA106534
:106470004FEA00260EF000419D4208BF964244F1CB
:10648000FD0404F5407402D25B084FEA3202B61AEA
:1064900065EB03055B084FEA32024FF480104FF4BE
:1064A000002CB6EB020E75EB030E22BFB61A754632
:1064B00040EA0C005B084FEA3202B6EB020E75EBC5
:1064C000030E22BFB61A754640EA5C005B084FEA2D
:1064D0003202B6EB020E75EB030E22BFB61A7546FA
:1064E00040EA9C005B084FEA3202B6EB020E75EB05
:1064F000030E22BFB61A754640EADC0055EA060EC6
:1065000018D04FEA051545EA16754FEA06164FEA08
:10651000C30343EA52734FEAC2025FEA1C1CC0D1B4
:1065200011F4801F0BD141EA00014FF000004FF041
:10653000004CB6E711F4801F04BF01430020B4F102
:10654000FD0C88BFBCF5E06F3FF6AFAEB5EB030CBA
:1065500004BFB6EB020C5FEA500C50F1000041EBB7
:10656000045170BD0EF0004E4EEA113114EB5C0484
:10657000C2BFD4EB0C0541EA045170BD41F4801157
:106580004FF0000E013C90E645EA060E8DE60CEA5F
:10659000135594EA0C0F08BF95EA0C0F3FF43BAF7C
:1065A00094EA0C0F0AD150EA01347FF434AF95EA33
:1065B0000C0F7FF425AF104619462CE795EA0C0F17
:1065C00006D152EA03353FF4FDAE1046194622E7E4
:1065D00050EA410618BF52EA43067FF4C5AE50EABE
:1065E00041047FF40DAF52EA43057FF4EBAE12E7AE
:1065F0004FEA4102B2F1E04324BFB3F5001CDCF1E5
:10660000FE5C0DD901F0004C4FEAC0024CEA50701C
:10661000B2F1004F40EB830008BF20F0010070474B
:1066200011F0804F21D113F13872BCBF01F000404E
:10663000704741F480114FEA5252C2F11802C2F180
:10664000200C10FA0CF320FA02F018BF40F0010001
:106650004FEAC1234FEAD32303FA0CFC40EA0C00B3
:1066600023FA02F34FEA4303CCE77FEA625307D1F0
:1066700050EA01331EBF4FF0FE4040F44000704727
:1066800001F0004040F0FE4040F40000704700BFC1
:10669000002301461A46184600F072B80A44914297
:1066A00000F1FF3300D1704710B511F8014B03F82A
:1066B000014F9142F9D110BD02440346934200D1EB
:1066C000704703F8011BF9E738B5104B1D68AB6B39
:1066D0000446B3B91820FEF763F90246A86320B94F
:1066E0000B4B0C484221FEF793F90B490B4BC0E9C9
:1066F00000130B4B83600B23838100210120C2E92F
:106700000401AB6B00221C615A6138BD5CE50320BB
:10671000056B0B001C6B0B000E33CDAB34126DE61A
:10672000ECDE0500034611F8012B03F8012B002ACB
:10673000F9D17047024B0146186800F003B800BF5A
:106740005CE5032037B5044608460D4600F00FF817
:10675000421C114620460192FEF752F9044618B138
:10676000019A2946FFF79AFF204603B030BD034641
:1067700013F8012B002AFBD1181A013870470000CA
:106780002DE9F843DFF8B8800646D8F800001F4628
:106790000D46914600F056F8254B1C6834B9254C3F
:1067A0001C60254B13B11B68C4F8883063681F2B2D
:1067B00007DDD8F8000000F047F84FF0FF30BDE8E3
:1067C000F8834EB3D4F8880088B91C4B23B9D8F8A5
:1067D000000000F038F8F0E74FF48470FEF7E0F8BE
:1067E0000028F4D00023C0E94033C4F8880063686F
:1067F00040F8239001229A4000EB8301D0F8003149
:106800001343C0F80031022EC1F8807002BFD0F8E7
:1068100004311343C0F804316368D8F800005A1CEF
:106820000233626044F8235000F00EF80020C6E7FF
:10683000E8E703205CE7032000000000A1490B000B
:10684000C0E50320704770477047000021400B00EF
:106850005D400B0085400B0089400B0000000000EC
:10686000536C656570696E6720666F722000256CD9
:10687000692C25732C252E30326600547279696E8E
:106880006720746F20636F6E6E656374007075624D
:106890006C697368696E6720646174610070756209
:1068A0006C69736820726573756C74202564006D63
:1068B00061782074696D6520666F72207075626CF6
:1068C000697368696E6720726561636865642077C3
:1068D0006974686F757420737563636573733B20A7
:1068E000676F20746F20736C656570004E6F742045
:1068F0006D61782074696D652C20747279206167F0
:1069000061696E20746F20636F6E6E6563742061C1
:106910006E64207075626C69736800676F696E677A
:1069200020746F20736C656570004665656C696ED8
:106930006720726573746C65737300466C6F6F6467
:106940006F724E6F000000000000000000000000A9
:106950008F4A0B00854A0B007B4A0B00714A0B00E3
:10696000654A0B00594A0B00A75A0B00AF5A0B009F
:106970004D4A0B00454A0B003B4A0B00314A0B00C5
:10698000DF5A0B00776972696E670053797374651B
:106990006D20736C65657020636F6E6669677572D4
:1069A0006174696F6E20697320696E76616C6964C9
:1069B0002E006170700025592D256D2D25645425FC
:1069C000483A254D3A2553257A0061736374696D01
:1069D00065000000000000000000000021510B00D5
:1069E00027510B0065510B0035510B0023510B0053
:1069F000000000000000000061560B0051560B0023
:106A000053560B00000000000000000047570B0029
:106A1000AF570B0085570B00894D0B0077570B00C4
:106A200049570B0059570B00A9570B0069570B002A
:106A300041570B000000000000000000A7580B00A9
:106A40009D580B0093580B0049580B0087580B00BA
:106A50007B580B00A75A0B00AF5A0B006F580B0066
:106A600067580B005D580B0053580B00DF5A0B00A2
:106A70000000000000000000E1580B004D590B0021
:106A800025590B00894D0B00F5580B0011590B00CF
:106A900003590B001F590B00E3580B00E7580B007C
:106AA0000000000000000000C1590B000B5A0B0051
:106AB000E3590B00C3590B00EB590B00F3590B00C2
:106AC000FB590B00035A0B000000000000000000FF
:106AD000675A0B00715A0B007B5A0B00855A0B004A
:106AE0008F5A0B009B5A0B00A75A0B00AF5A0B0092
:106AF000B75A0B00C35A0B00CB5A0B00D55A0B00E8
:106B0000DF5A0B00005245454E54206D616C6C6F8E
:106B10006320737563636565646564002F6D6E74CF
:106B20002F776F726B73706163652F776F726B7302
:106B3000706163652F4743432D31302D7069706557
:106B40006C696E652F6A656E6B696E732D47434382
:106B50002D31302D706970656C696E652D34385F2C
:106B600032303230313132345F31363036313830D4
:106B70003634312F7372632F6E65776C69622F6EB6
:106B800065776C69622F6C6962632F7374646C69DA
:106B9000622F72616E642E6300000000E5440B00FA
:106BA000994A0B00E14B0B00794D0B00094F0B008C
:106BB0008D4F0B00A94F0B00B1580B00B95B0B00B8
:106BC000040000001400000003000000474E5500C0
:106BD000CFC464FCFBFEC2FC16CF05702892491797
:046BE000FB027B99A0
:046BE40000000000AD
:106BE8003B690B00CA690B0060E503200000000048
:106BF800000000000000000000000000000000008D
:106C0800000000000000000000000000000000007C
:106C1800000000000000000000000000000000006C
:106C2800000000000000000000000000000000005C
:106C3800000000000000000000000000000000004C
:106C4800000000000000000000000000ECE7032046
:106C5800FFFFFFFF00000102030405060708090AF9
:106C68000B0C0D0E0F101112131415161718191AF4
:086C78001B1C1D1E1F2028003B
:046C800078563412FC
:04000003B0004020E9
:00000001FF
