:02000002B0004C
:1040000000400B0066660B00000006000D00050274
:084010000401D41700000000B8
:04401800E8610B0050
:10401C00034613F8012B002AFBD1181A01387047FC
:10402C0009480A49884208B505D0094A824202D09B
:10403C00121A02F002F80748074A0021121A02F07D
:10404C000AF8014808BD00BF50E50320C8650B0005
:10405C00C0E50320C0E50320FCE7032070B5074E44
:10406C00074C01F00FF9A41BA4080025AC4200D1A9
:10407C0070BD56F8043B98470135F7E780650B0097
:10408C00A4650B0000F040B808B500F07FF8BDE85F
:10409C00084001F0AFB800F0C7BC00F0C5BC00F0A0
:1040AC00CBBC0078B0FA80F0400970470123037054
:1040BC007047F8B50C1E074616460CDA0A2A0AD1C8
:1040CC002D2100F05DFF61420546F2B2384600F04A
:1040DC0070FF2844F8BD21460025F6E721B18B88F6
:1040EC00834201D08968F9E7084670470EB403B5DE
:1040FC0003AB012153F8042B019300F078FF02B0BD
:10410C005DF804EB03B0704708B50F48002319465F
:10411C001A46406800F008FC01F054FC4FF41651AC
:10412C0001F044FC01F0DAFE4FF4165101F012FDDF
:10413C000121132001F08CFE01F0D0FEBDE80840F7
:10414C0041F2883100F0AEBFD8E6032038B50468E0
:10415C00002000F08BFB20B1637813B900F02CFC2D
:10416C00FAE76378BFF35B8F651C0BB9002038BD91
:10417C00002000F07BFB20B12B7813B900F01CFC65
:10418C00FAE72378012BF1D1207BF0E72DE9F043FE
:10419C00B34E3578012D87B000F0A680022D00F0CB
:1041AC000D81002D40F0918001F098FE0368DB69D1
:1041BC009847642000F0D8FF01F090FE4FF41651A0
:1041CC0001F0C8FC642000F0CFFF2946132001F059
:1041DC0050FE4FF47A7000F0C7FF0121132001F05C
:1041EC0048FE2946132001F044FE4FF4FA6000F01B
:1041FC00BBFF01F073FE03681B699847002867DD5D
:10420C0001F06CFE014602A800F04EFF954802A991
:10421C0000F00AFE02A800F08AFD924C924D01F0CB
:10422C00D1FB216800F0BBFE00F084FF286001F098
:10423C0055FE01F092FC01F051FE0368DB699847D2
:10424C00642000F091FF01F049FE4FF4165101F08B
:10425C0081FC4FF47A7000F087FF01F03FFE036899
:10426C001B699847002839DD01F038FE29680A22BD
:10427C008046FFF71EFF0746404600F084FE0A22E8
:10428C00C11902A800F0F2FD02A9204600F0D4FDED
:10429C0002A800F04CFD4FF4FA6000F065FF01F04D
:1042AC0091FB0A222968FFF704FF01F08BFB6F4991
:1042BC0000F062FE01F086FB216800F070FE01F058
:1042CC000DFE01F04AFC0223337007B0BDE8F08309
:1042DC0001F078FB664900F04FFE9EE701F072FB9F
:1042EC00644900F049FED6E700F098F9624D634F3F
:1042FC00DFF8B481DFF8B491286000F06DFB034661
:10430C0058B979680246062000F07EFB00F05CFB91
:10431C0001F058FB414600F02FFE00F05DFB044617
:10432C0000282FD001F04EFB554900F038FE554BBC
:10433C00554A1B781278554913438DF80030544A6E
:10434C0009683C2302A801F0FBF802A8FFF7FEFE67
:10435C00039C05467CB16368013B63605BB92368D1
:10436C0020469B689847A368013BA3601BB9236850
:10437C002046DB68984701F025FB46492A46FFF7A3
:10438C00B5FEA0E700F04AF92B68C01A44F61F638B
:10439C00984207D90223337001F014FB494600F010
:1043AC00FEFD012401F00EFB3B4900F0F8FD4FF43B
:1043BC00FA7000F0D9FE002C9FD086E701F002FBCA
:1043CC00364C374900F0EBFD4FF4FA7000F0CCFEA0
:1043DC00237DCBB123682572D9680120FFF77EFEBF
:1043EC000546002864D08389022B36D18373237D44
:1043FC0053B123680420D968FFF770FE07460028E4
:10440C006CD047F23053C360237D83B12368D968E5
:10441C000E20FFF763FE0546002876D0037B042BA5
:10442C0071D1C389012B02D043F00103C3811B4915
:10443C0002A800F0CFFB01F0C5FA1A4900F09CFD70
:10444C0000F0ECF80C4B1860029800233370002835
:10445C003FF43BAF00F0F0FA37E78168BDE700BFEF
:10446C006CE6032074E6032068E603203C620B0034
:10447C00FC610B001A620B0070E6032008E70320B6
:10448C0050620B00CDE50320CCE5032050E5032062
:10449C00F0E5032060620B00AF620B00D8E503204F
:1044AC00DE620B00ED620B003E620B0072620B00D1
:1044BC002349102001F0B4FD074600283DD01022FE
:1044CC00294601F0C8FD1F4B3B600123BB802369CB
:1044DC00BB600223BB81BB73276188E7184910209E
:1044EC0001F09EFD054640B31022394601F0B3FDA4
:1044FC00144B2B600423AB802369AB6047F2305321
:10450C00EB60256180E7816882E70D49142001F09A
:10451C0087FD074678B11422294601F09CFD094B12
:10452C003B600E23BB802369BB6004233B730123D8
:10453C00FB8127617BE7257579E7257564E700BF6B
:10454C00E8640B001000030038B5134B01251D70F7
:10455C00124B08221A70124B124A9A600024C3E9BB
:10456C000044032000F06AF92146284600F076F951
:10457C0021460D4800F00EFE0C4B0D491C611A1D16
:10458C00C3E902441A600B4A5A601D75BDE83840F5
:10459C00094800F017BC00BFCCE50320CDE5032093
:1045AC00C0E503200000FFFFD0E50320D8E5032081
:1045BC003D620B001000030074E6032008B5024BAB
:1045CC001B689B68019308BD6802030008B5024B89
:1045DC001B68DB68019308BD6802030008B5024B39
:1045EC001B689B68019308BD2C02030008B5024BA5
:1045FC001B68DB68019308BD2C02030008B5024B55
:10460C001B681B69019308BD2C02030008B5024B03
:10461C001B685B68019308BD1802030008B5024BC8
:10462C001B685B69019308BD1802030008B5024BB7
:10463C001B689B6D019308BD1802030008B5024B63
:10464C001B685B6E019308BD1802030008B5024B92
:10465C001B685B6C019308BD4802030008B5024B54
:10466C001B685B69019308BD6402030008B5024B2B
:10467C001B689B68019308BD3C02030008B5024B04
:10468C001B68DB68019308BD3C02030008B5024BB4
:10469C001B681B69019308BD3C02030008B5024B63
:1046AC001B685B69019308BD3C02030008B5024B13
:1046BC001B689B69019308BD3C02030008B5024BC3
:1046CC001B68DB69019308BD3C02030008B5024B73
:1046DC001B681B6A019308BD3C02030008B5024B22
:1046EC001B689B6A019308BD3C02030008B5024B92
:1046FC001B68DB6A019308BD3C02030008B5024B42
:10470C001B681B6C019308BD3C02030008B5024BEF
:10471C001B681B6A019308BD2802030008B5024BF5
:10472C001B685B6A019308BD2802030008B5024BA5
:10473C001B689B6A019308BD2802030008B5024B55
:10474C001B68DB6A019308BD2802030008B5024B05
:10475C001B681B6B019308BD2802030008B5024BB4
:10476C001B685B6B019308BD2802030008B5024B64
:10477C001B681B6C019308BD2802030008B5024B93
:10478C001B689B6C019308BD2802030008B5024B03
:10479C001B68DB69019308BD3002030008B5024BAE
:1047AC001B681B6A019308BD3002030008B5024B5D
:1047BC001B681B68019308BD4C02030008B5024B33
:1047CC001B685B68019308BD4C02030008B5024BE3
:1047DC001B681B69019308BD4C02030008B5024B12
:1047EC001B685B69019308BD4C02030008B5024BC2
:1047FC001B689B69019308BD4C02030008B5024B72
:10480C001B68DB69019308BD4C02030008B5024B21
:10481C001B681B6A019308BD4C02030008B5024BD0
:10482C001B681B6D019308BD6002030008B5024BA9
:10483C001B681B68019308BD2002030008B5024BDE
:10484C001B685B68019308BD2002030008B5024B8E
:10485C001B685B69019308BD2002030008B5024B7D
:10486C001B68DB6A019308BD2002030008B5024BEC
:10487C001B68DB6C019308BD2002030008B5024BDA
:10488C001B685B6D019308BD2002030008B5024B49
:10489C001B689B6D019308BD2002030008B5034BF8
:1048AC001B68D3F88830019308BD00002002030078
:1048BC0008B5034B1B68D3F89430019308BD000076
:1048CC002002030008B5034B1B68D3F8AC300193EE
:1048DC0008BD00002002030008B5024B1B685B6892
:1048EC00019308BD4002030008B5024B1B689B688E
:1048FC00019308BD4002030008B5024B1B68DB683E
:10490C00019308BD4002030008B5024B1B681B69EC
:10491C00019308BD4002030008B5024B1B685B699C
:10492C00019308BD4002030008B5024B1B689B694C
:10493C00019308BD4002030008B5024B1B68DB69FC
:10494C00019308BD4002030008B5024B1B681B6AAB
:10495C00019308BD4002030008B5024B1B681B6B9A
:10496C00019308BD4002030008B5024B1B685B6B4A
:10497C00019308BD4002030008B5024B1B681B6C79
:10498C00019308BD4002030008B5024B1B685B6C29
:10499C00019308BD4002030008B5024B1B685B6D18
:1049AC00019308BD4002030008B5024B1B689B6DC8
:1049BC00019308BD4002030008B5024B1B689B68BD
:1049CC00019308BD4402030008B5024B1B68DB6869
:1049DC00019308BD4402030008B5024B1B685B69D8
:1049EC00019308BD4402030008B5024B1B681B6A07
:1049FC00019308BD4402030008B5024B1B681B6BF6
:104A0C00019308BD4402030008B5024B1B689B6B65
:104A1C00019308BD4402030008B5024B1B68DB6B15
:104A2C00019308BD4402030008B5024B1B681B68C8
:104A3C00019308BD1C02030008B5024B1B685B68A0
:104A4C00019308BD1C02030008B5024B1B689B6850
:104A5C00019308BD1C02030008B5024B1B685B6A7E
:104A6C00019308BD1C02030008B5024B1B68DB6AEE
:104A7C00019308BD1C02030008B5024B1B681B6B9D
:104A8C00019308BD1C02030008B5024B1B681B6C8C
:104A9C00019308BD1C02030008B5024B1B685B6C3C
:104AAC00019308BD1C020300002240681146FFF769
:104ABC004BBF002240681146FFF756BF40680022EA
:104ACC00FFF74ABF4068002281F00101FFF734BFB5
:104ADC00002340681A461946FFF726BF002340689A
:104AEC001A461946FFF718BF002240681146FFF717
:104AFC000BBF002240681146FFF7F6BE406800224B
:104B0C000221FFF7F9BE002340681A46FFF7E4BE06
:104B1C00024B03225A60024A1A60704784E6032053
:104B2C0010630B0038B5046805467CB16368013B23
:104B3C0063605BB9236820469B689847A368013B78
:104B4C00A3601BB923682046DB689847284638BD0C
:104B5C0010B5044608462170FFF718FE0023636069
:104B6C00204610BD10B58368044613B103220146DC
:104B7C009847204610BD10B50446006818B1FFF7E1
:104B8C005BFF0023236010BD38B50C460546FFF7CC
:104B9C00F2FF54B12088FFF747FF286028B1228824
:104BAC002146BDE8384001F048BA38BD38B5B1F9F6
:104BBC0004308380D1F80630C0F806304B8943812D
:104BCC000C460546FFF7D7FF236813B12B60002373
:104BDC00236038BDF0B52B4D0B7D04468BB00846D9
:104BEC00AF1D002B36D00B681B79002B32D0264B17
:104BFC000493002202A90430CDE90222FFF762FEE1
:104C0C00DDF80E30C5F8063000B2BDF81230ADF844
:104C1C000C00A8800299BB802846FFF7B5FF02A8BC
:104C2C00FFF7A9FF00232360A380A37123814FF614
:104C3C00FF736381B5F90430A380D5F80630C4F84E
:104C4C000630BB88296863812046FFF79DFF20460C
:104C5C000BB0F0BD00262023CDE902360B4B0093A0
:104C6C0002AA33460A493220FFF7D8FD064B054805
:104C7C0002964FF6F26202A9CDE90323FFF796FFE5
:104C8C00CDE700BF8CE603200000FFFF53630B0051
:104C9C004C630B00054B02221A60054B054A9A60C7
:104CAC000020C3E90000FFF7C9BD00BF98E6032050
:104CBC008CE603200000FFFF10B50446FFF7A8F9AF
:104CCC00013823182046834206D90278197800F857
:104CDC00011B03F80129F6E710BD70B50C46911EB7
:104CEC0022291DD8254630B9234430229D4210D2AA
:104CFC0005F8012BFAE7B0FBF2F602FB1600C1B285
:104D0C00092894BF30315731C9B205F8011B304620
:104D1C00E9E7002320462B70FFF7CEFF204670BD3D
:104D2C000020FCE708B50123FFF7D7FF08BD10B53D
:104D3C0004460068FFF780FE204610BD10B50446FF
:104D4C00006808B1FFF778FE0023C4E90133236043
:104D5C0010BD38B504460D4600680131FFF774FEEE
:104D6C0010B1C4E90005012038BD10B50368044634
:104D7C0023B143688B4201D3012010BD2046FFF7BD
:104D8C00E8FF0028F9D0A368002BF5D12268137036
:104D9C00F2E737B50D46114601920446FFF7E5FFE1
:104DAC00019A28B92046FFF7C9FF204603B030BD51
:104DBC00A2602946206801F040F92268A36800210E
:104DCC00D154F2E7002313B5C0E9003304468360E5
:104DDC00037341B108460191FFF71AF90199024694
:104DEC002046FFF7D6FF204602B010BD38B5054669
:104DFC0000680C4670B16A688B689A4208D30968DF
:104E0C0031B101F05FF9A368AB600023A36038BD3A
:104E1C00FFF712FE23682B6063686B60A368AB60BE
:104E2C000023C4E90033F1E7884210B5044601D0F1
:104E3C00FFF7DCFF204610BD884210B5044601D0B8
:104E4C00FFF7D4FF204610BD13B5044659B10846F0
:104E5C000191FFF7DDF8019902462046FFF799FF13
:104E6C00204602B010BDFFF769FFF9E770B50D469B
:104E7C008AB000210446C0E9001116468160017316
:104E8C001D2202A8019101F0E6F8324601A928463C
:104E9C00FFF748FF01A92046FFF7D6FF20460AB0CE
:104EAC0070BDF8B5044616460F4609B90020F8BD8A
:104EBC008AB1856815442946FFF757FF0028F5D0BD
:104ECC00A368206832461844394601F0B6F82368C6
:104EDC0000225A55A5600120E9E707B50023ADF87B
:104EEC00043001228DF8041001A9FFF7DAFF03B09A
:104EFC005DF804FB13B50B460246D0E900016C4685
:104F0C0084E8030093E8030082E8030094E80300BC
:104F1C0083E8030002B010BD024800230360FFF7D2
:104F2C0095BB00BF9CE60320F8B506460D468F18CE
:104F3C000024BD420CD0336815F8011B9B68304629
:104F4C009847031E01DB1C44F3E7002C08BF1C46EA
:104F5C002046F8BD13B50446084659B10191FFF738
:104F6C0057F823680199DB680246204602B0BDE879
:104F7C001040184702B010BD08B5FFF7EBFF08BD95
:104F8C0003689B68184738B50D210546FFF7F8FFF5
:104F9C000A2104462846FFF7F3FF204438BD38B5F4
:104FAC000546FFF7D7FF04462846FFF7ECFF2044E1
:104FBC0038BD30B58BB00023012A8DF8243098BF52
:104FCC000A2209AC0D46B1FBF2F101FB125303F0BE
:104FDC00FF03092B94BF30333733DBB2AA4204F8FA
:104FEC00013DEFD92146FFF7B5FF0BB030BD2DE9E0
:104FFC00F04186B000AF05460E46381D142114460C
:10500C003B60FFF729FD13280ED8391D2846FFF702
:10501C00A1FF04461EB12846FFF7B5FF0444204605
:10502C001837BD46BDE8F08100F1080323F00703F3
:10503C00E846ADEB030D2246411C3B686846FFF782
:10504C000BFD69462846FFF785FF0446C546E1E798
:10505C0010B50446FFF7E2FAE060236820465B696E
:10506C009847002808DAFFF7D9FAE368C01AA36852
:10507C009842F2D34FF0FF3010BD2DE9F0410746B6
:10508C000C468E180D46B542A5EB040807D03846E1
:10509C00FFF7DEFF031E02DB05F8013BF3E740469A
:1050AC00BDE8F0818160704738B50D46074904466C
:1050BC00FFF788FE2846FFF7CBFF002804DBC1B2C0
:1050CC002046FFF70AFFF5E7204638BD3D620B008E
:1050DC00014B024A1A607047A0E603207A630B006A
:1050EC0008B50020FFF788FC28B1FFF775FC80F0AD
:1050FC000100C0B208BD0120FCE710B50020FFF78D
:10510C0095FA0446A0B9FFF791FB012810D120466F
:10511C00FFF7BCFB60B9FFF7E3FF10B9FFF74CFCDE
:10512C00F9E7FFF7DDFFBDE810400020FFF77EBA7E
:10513C00204610BD1FB5FFF7E0FF10220021684686
:10514C0000F089FF00216846FFF778FA009805B057
:10515C005DF804FB024B1A68024B1A60704700BFE3
:10516C0054E50320A4E603200021FFF76FBB0000E9
:10517C00014B00229A607047A8E60320006800F0FB
:10518C004DBD10B50446016002710AB1FFF7F6FF80
:10519C00204610BD13B50446019100F01DFF019A85
:1051AC0001462046FFF7EDFF204602B010BD00007F
:1051BC00014B1860704700BF58E5032008B50B4B36
:1051CC0043B100F0FFFB03681B699847002801DD21
:1051DC00AFF30080064B43B100F080FE03681B69FF
:1051EC009847002801DDAFF3008008BD00000000E7
:1051FC000000000008B5FFF7E1FFFFF70FFA014BC5
:10520C00186008BD34E703200548064A064908B56E
:10521C00121A00F012FF054B054A1A6008BD00BFB8
:10522C0000F4032004F4032038660B0000F4032080
:10523C001E1C279A07B5002300931A466FF07701BE
:10524C00FFF736FB03B05DF804FB000007B543889D
:10525C000A2B08D0502B0BD1094B1B684BB103B058
:10526C005DF804EB1847FFF7E5FF03B05DF804FBAE
:10527C00002300931A466FF07701FFF719FBF4E750
:10528C00BCE6032010B512480021FFF705FC114BBA
:10529C001A68114B9A42114B0CBF012200221A7052
:1052AC0001D0FFF7B1FFFFF7B1F9044600F0DCFEC7
:1052BC000B4B13B12046AFF3008000210848FFF7D9
:1052CC00ABFBBDE8104007480021FFF7E7BA00BF71
:1052DC00BD510B0000F403201E1C279AB8E60320D6
:1052EC000000000059520B0070470020704710B5A9
:1052FC0010210446FEF7D3FE204610BD08B5FFF77B
:10530C00F6FF08BD30B500224FF69C740260848015
:10531C008D888C800C68858004600A6030BD10B567
:10532C0004460068FFF788FB204610BD38B5C468FA
:10533C00F4B12378022B03D104F10C00FFF7EFFF3B
:10534C00656835B12846FFF70DFC10212846FEF79D
:10535C00A6FEA56835B12846FFF704FC10212846A7
:10536C00FEF79DFE20461421BDE83840FEF797BE9F
:10537C0038BD0B6803604B68436013B15A68013247
:10538C005A60704737B5044668460D46FFF7F1FF83
:10539C00009B019A23606260002301A80193009393
:1053AC00FFF7C0FB35B1281DFFF7BCFB08212846D1
:1053BC00FEF775FE204603B030BD826810B50AB901
:1053CC0000F032FEBDE81040C368184708B500680D
:1053DC0000F11001FFF7F1FF08BD826810B50AB9A2
:1053EC0000F022FEBDE81040C368184708B50068FD
:1053FC0000F11001FFF7F1FF08BD000038B50023E4
:10540C000446036010200D46FEF745FE28B101232B
:10541C00C0E90133024B0360C5602060204638BDF3
:10542C00A4630B0038B5002383608B6804460D46DB
:10543C002BB102229847EB68E360AB68A36020466F
:10544C0038BD0000F0B589B004686846FFF75AFF14
:10545C004FF00203D4E84F2F002A03D1C4E8413F98
:10546C000029F7D125D104F10C0569462846FFF730
:10547C0049FFBFF35B8F01236370002004F1080325
:10548C00BFF35B8F53E8006F43E80002002AF9D1A9
:10549C00BFF35B8F6EB1FFF7E9F978B1294630465F
:1054AC00FFF78BFF3046FFF75DFB10213046FEF710
:1054BC00F6FD6846FFF733FF09B0F0BD314602A890
:1054CC00FFF7B0FFE068B4F9105008B100F002FE2D
:1054DC0006901020ADF81C50FEF7DDFD0546E8B136
:1054EC00002787601820FEF7D6FD044688B10146D8
:1054FC00876002A8FFF7FEFC049BA268A360059BD3
:10550C00049206A9E268E36004F110000592FFF72B
:10551C00F9FE084BEB60084B2C60AB6006A8FFF75C
:10552C00FEFE02A8FFF71EFB002229460348FFF7E8
:10553C00A5F9B7E7D9530B005D560B006D5B0B005B
:10554C002DE9F04F8BB005469DF850A00F469046C4
:10555C009946FFF741FA07AE834638BB4FF62E73D8
:10556C00059005A93046ADF81830FFF7CBFE142096
:10557C00FEF791FD044648B1022303700123C0E9F4
:10558C0001BB437031460C30FFF7BCFE2846214668
:10559C0040F8044BFFF732FF3046FFF7C0FE05A87A
:1055AC00FFF7BDFE28460BB0BDE8F08F0C2300249E
:1055BC001420CDE908440793FEF76DFD014618B1A0
:1055CC00C0E901440470447004A80391FFF716FF6E
:1055DC001E4B08930820FEF75EFD044610B103A98C
:1055EC00FFF7C7FE00965FFA8AF34A4641463846F3
:1055FC000994FFF7F9F9B8B9039B5B7803F0FF0244
:10560C0093B94FF69C7305A903A80592ADF8183011
:10561C00FFF718FF05A8FFF782FE05A80999FFF709
:10562C00B1FE06A8FFF77EFA03A905A8FFF7A1FEB5
:10563C00059B069A2B606A60002306A806930593C7
:10564C00FFF770FA04A8FFF76DFAABE721570B00D0
:10565C00012AF8B5054603D10B6803600020F8BD9C
:10566C00022A10D0032AF9D10468002CF6D004F1D8
:10567C001000FFF754FE2046FFF774FA182120465D
:10568C00FEF70DFDEAE718200E68FEF704FD044650
:10569C0050B13146FFF7C6FE3069B6F9147008B147
:1056AC0000F018FD2061A7822C60D7E738B50023E5
:1056BC0083608B6804460D462BB102229847EB6839
:1056CC00E360AB68A360204638BD012A70B5044680
:1056DC0003D10B680360002070BD022A0CD0032A92
:1056EC00F9D10468002CF6D02046FFF73BFA1421C0
:1056FC002046FEF7D4FCEEE714200E68FEF7CBFC38
:10570C00054620B13146FFF7D1FF337C2B74256061
:10571C00E1E70000F0B589B004460D4601A811463A
:10572C00FFF730FEA4B124B21DB1284600F0D2FC24
:10573C00054601A803A90395ADF81040FFF782FEBA
:10574C0003A8FFF7ECFD02A8FFF7ECF909B0F0BDD8
:10575C00019D0123D5E84F2F002A03D1C5E8413F15
:10576C000029F7D1EFD12B73BFF35B8F6B702B1D1F
:10577C00BFF35B8F53E8006F43E80042002AF9D176
:10578C00BFF35B8F002EDED02046FFF76FF8074685
:10579C0060B105F10C013046FFF71FFE3046FFF7F4
:1057AC00E1F910213046FEF77AFCCCE7314603A82C
:1057BC00FFF77CFF2B7B8DF81C301020FEF76BFC69
:1057CC000546D0B187601420FEF765FC044678B11D
:1057DC008760014603A8FFF78DFB059BA268A360B9
:1057EC00069B0592E268E3609DF81C3006922374D8
:1057FC00064BEB60064B2C60AB6003A8FFF7B2F9CD
:10580C00002229460348FFF739F8C7E7F9530B0084
:10581C00D7560B006D5B0B00704710B51821044672
:10582C00FEF73DFC204610BDF0B5037D062B8DB078
:10583C000E4600F104074FF0000412D000F10805E9
:10584C0015F8011D0A223046FFF7B3FBAF420444A2
:10585C0019D0002CF4D02E213046FFF791FB0444D4
:10586C00EEE72F236A4639460A208DF80040FEF7F2
:10587C00F5FE6846FEF7CCFB33680246DB686946EA
:10588C0030469847044620460DB0F0BD10B5054B88
:10589C000446112240F8043B002100F0DCFB2046BA
:1058AC0010BD00BFC0630B000346074A10B543F898
:1058BC00042B01F1100251F8044B43F8044B9142B4
:1058CC00F9D10A781A7010BDC0630B0010B59DF8A1
:1058DC00084044EA032343EA024242EA01610423FA
:1058EC004160037510BD000007B5064B0360CB7813
:1058FC0000938B784A780978FFF7E8FF03B05DF8DE
:10590C0004FB00BFC0630B004174704770477047C5
:10591C0008B50021007CFEF769FF40EAE07008BD85
:10592C0008B50121007CFEF761FF40EAE07008BD7C
:10593C0008B5007CFEF752FF20EAE07008BD08B500
:10594C00007CFEF743FF20EAE07008BD13B5044667
:10595C00007C0191FEF742FF0028019901DC607C7C
:10596C0020B1207CFEF74AFF20EAE07002B010BDA7
:10597C00007CFEF74BBF10B514210446FEF78FFBDD
:10598C00204610BD10B54FF47A730446084600212A
:10599C00C4E90113044B2360012320746374114682
:1059AC00FEF704FF204610BDD4630B00007C0022E0
:1059BC00FEF704BF10B514220446002100F04BFB87
:1059CC00204610BD10B50F4C88B003A8FFF7F2FFAE
:1059DC002178BFF35B8F11F001010FD120460191AB
:1059EC00FEF75FFB019948B103AA0748FFF7CAFF0E
:1059FC002046FEF75BFB054800F019FB024808B097
:105A0C0010BD00BFC0E60320C4E6032019590B00EB
:105A1C00002240681146FEF777BF0022406811460D
:105A2C00FEF792BF002240681146FEF79DBF40680A
:105A3C000022FEF791BF4068002281F00101FEF7C1
:105A4C007BBF002340681A461946FEF76DBF002342
:105A5C0040681A461946FEF75FBF0022406811469F
:105A6C00FEF742BF406800220221FEF745BF00232B
:105A7C0040681A46FEF730BF084B10B52824224662
:105A8C001846002100F0E7FA054B04804FF0FF3276
:105A9C00426004225A60034A1A6010BDE0E60320FB
:105AAC00D8E6032008640B0070474174704708B5B2
:105ABC00007CFEF713FE20EAE07008BD08B5007C00
:105ACC00FEF7E4FD20EAE07008BD08B5007CFEF7A7
:105ADC00EDFD40EAE07008BD08B5007CFEF7DEFD88
:105AEC0040EAE07008BD007CFEF7E8BD37B5457CA8
:105AFC0004462DB1207C03B0BDE83040FEF7BEBD9E
:105B0C00007C0191FEF7EAFD00280199F2DC2846A1
:105B1C0003B030BD10B514210446FEF7C0FA204680
:105B2C0010BD000010B54FF47A73044608461146B8
:105B3C000022C4E90123044B236001232074637405
:105B4C00FEF7DCFD204610BD4C640B00007C0023EE
:105B5C00FEF7CCBD0022FFF7F9BF007CFEF786BD37
:105B6C0010B5836804460BB900F05EFAC368984719
:105B7C00A3681BB1032221462046984720461021DA
:105B8C00BDE81040FEF78BBA7047F8B506461546CF
:105B9C000C468F18BC4206D0336814F8011B9B6866
:105BAC0030469847F6E72846F8BD007C0022FEF701
:105BBC00ADBD007C0021FEF7B1BD007C0021FEF7DD
:105BCC00B5BD007C0021FEF7B9BD007C0021FEF7BD
:105BDC00BDBD10B514210446FEF761FA204610BD78
:105BEC0038B5044615464FF47A730022C4E90123F4
:105BFC00094B2174084623602946FEF7B7FDBF30D8
:105C0C0008D16B69DB0705D56868FEF715FFE868F6
:105C1C00FEF712FF204638BD80640B0008B500214A
:105C2C00007CFEF7ABFDB0FA80F0400908BD002304
:105C3C0040681A46FEF750BE406800220221FEF76B
:105C4C005BBE002240681146FEF74EBE0022406843
:105C5C001146FEF759BE002340681A461946FEF756
:105C6C005BBE002340681A461946FEF75DBE4068CD
:105C7C000021FEF781BE40680021FEF785BE40681A
:105C8C00002281F00101FEF757BE40680022FEF7AA
:105C9C0063BE002240681146FEF766BE00224068D3
:105CAC001146FEF751BE40680021FEF77DBE2DE97E
:105CBC00F04395B014460D460746FFF7E7FD00216B
:105CCC001C220DA8009100F0C6F940230C9320462D
:105CDC006B460CAA0021FEF779FC044600284BD138
:105CEC00024601216868FEF70FFE0221804622461B
:105CFC006868FEF709FE009E81462146002E3BD0C7
:105D0C00002939D17368022B03D00A2B11D0F66904
:105D1C00F4E7B8F1000FFAD0716906A8043107ADA9
:105D2C00FFF7E2FD0FCD3C1D0FC42B6823704146DD
:105D3C00EDE7B9F1000FEAD07469102201A800F068
:105D4C008AF906238DF8143001AD04F108031834D8
:105D5C00186859682A4603C20833A3421546F7D17E
:105D6C0001A906A807ADFFF79FFD0FCD3C1D0FC481
:105D7C002B6823704946CAE70098FEF71FFC38468B
:105D8C0015B0BDE8F08300000328024605D0044B93
:105D9C000448042A18BF184670470348704700BFD0
:105DAC0008E70320D8E6032084E6032008B5002288
:105DBC004068FEF7F1FDBDE80840FFF7E5BF0000C5
:105DCC00024B034A1A6000225A60704708E703200E
:105DDC00AC640B00232813B502D9002002B010BD0F
:105DEC00A0F10B03022B1AD8174C2178BFF35B8F51
:105DFC0011F001010BD120460191FEF752F90199E6
:105E0C0028B11248FEF7A4FE2046FEF74FF90F4BBF
:105E1C001878FEF7C3FC0028DFD10120DEE701284B
:105E2C0009D800F0B5F80021007CFEF797FC80F053
:105E3C000100C0B2D2E709380128EED800F04EF8C4
:105E4C00007CFEF743FCF2E710E7032014E7032085
:105E5C00232838B504460D460AD8FF2908D0FFF789
:105E6C00B9FF28B129462046BDE83840FEF7B6BB3D
:105E7C0038BD38B504460D46FEF7B8FBFF2810D0E8
:105E8C00062804D84D2323FA00F0C30709D4204672
:105E9C00FFF7A0FF28B129462046BDE83840FEF7A1
:105EAC00ADBB38BD7047000038B5044614252A46F2
:105EBC00002100F0D0F8258040250749258128468F
:105ECC00258200F0AFF804496060284600F0AAF87B
:105EDC00E060204638BD00BFE8640B0030B50E4DC5
:105EEC002978BFF35B8F11F0010487B011D12846DC
:105EFC00FEF7D7F868B101A8FFF7D6FF01AA214633
:105F0C000648FFF70FFE2846FEF7D0F8044800F0CD
:105F1C008EF8024807B030BD1CE7032020E70320B1
:105F2C00B15E0B007047704738B50A4B0360012314
:105F3C00044643610849202000F074F82025606075
:105F4C000549A560284600F06DF8C4E90305204614
:105F5C0038BD00BF18000100E8640B0038B50A4BCF
:105F6C0003600123044643610849202000F05AF8DD
:105F7C00202560600549A560284600F053F8C4E967
:105F8C000305204638BD00BF18000100E8640B0073
:105F9C0030B50E4D2978BFF35B8F11F0010487B03B
:105FAC0011D12846FEF77DF868B16846FFF7BCFFB3
:105FBC006A4621460648FFF713FE2846FEF776F898
:105FCC00044800F034F8024807B030BD38E703202D
:105FDC0040E70320315F0B0010B50E4C2378BFF364
:105FEC005B8FDB0786B011D42046FEF75AF868B1F8
:105FFC006846FFF7B3FF6A4601210748FFF7F0FD3B
:10600C002046FEF753F8054800F011F8024806B098
:10601C0010BD00BF3CE7032054E70320335F0B00A7
:10602C00FEF739B8FEF739B808B5FEF71DFD0023A9
:10603C0001461A46184600F06BB80A44914200F12A
:10604C00FF3300D1704710B511F8014B03F8014F25
:10605C009142F9D110BD02440346934200D17047DE
:10606C0003F8011BF9E7000038B5104B1D68AB6B4A
:10607C000446B3B91820FEF7D7FC0246A86320B932
:10608C000B4B0C484221FEF7FFFC0B490B4BC0E9B4
:10609C0000130B4B83600B23838100210120C2E989
:1060AC000401AB6B00221C615A6138BD58E503201A
:1060BC00E9640B0000650B000E33CDAB34126DE6BA
:1060CC00ECDE0500034611F8012B03F8012B002A26
:1060DC00F9D17047024B0146186800F003B800BFB5
:1060EC0058E5032037B5044608460D46FDF790FFEA
:1060FC00421C114620460192FEF7BEFC044618B124
:10610C00019A2946FFF799FF204603B030BD0000E5
:10611C002DE9F843DFF8B8800646D8F800001F4692
:10612C000D46914600F056F8254B1C6834B9254CA9
:10613C001C60254B13B11B68C4F8883063681F2B97
:10614C0007DDD8F8000000F047F84FF0FF30BDE84D
:10615C00F8834EB3D4F8880088B91C4B23B9D8F80F
:10616C00000000F038F8F0E74FF48470FEF75CFCA8
:10617C000028F4D00023C0E94033C4F888006368D9
:10618C0040F8239001229A4000EB8301D0F80031B3
:10619C001343C0F80031022EC1F8807002BFD0F852
:1061AC0004311343C0F804316368D8F800005A1C5A
:1061BC000233626044F8235000F00EF80020C6E76A
:1061CC00F4E7032068E7032000000000354A0B00C9
:1061DC00BCE5032070477047704700002D400B0052
:1061EC0069400B0091400B0095400B000000000033
:1061FC00636F756C64206E6F74207265636569766D
:10620C00652066726F6D206F70656E6D7600636FC2
:10621C00756C64206E6F742073656E642064617499
:10622C006574696D6520746F206F70656E6D760096
:10623C002C00547279696E6720746F20636F6E6ED8
:10624C00656374007075626C697368696E6720644D
:10625C00617461007075626C697368207265737526
:10626C006C74202564006D61782074696D652066FE
:10627C006F72207075626C697368696E67207265E5
:10628C00616368656420776974686F7574207375D1
:10629C0063636573733B20676F20746F20736C6549
:1062AC006570004E6F74206D61782074696D652C7B
:1062BC002074727920616761696E20746F20636F3E
:1062CC006E6E65637420616E64207075626C6973A8
:1062DC006800676F696E6720746F20736C656570FA
:1062EC00004665656C696E6720726573746C6573C6
:1062FC007300466C6F6F646F724E6F00000000008D
:10630C0000000000134B0B00094B0B00FF4A0B0065
:10631C00F54A0B00E94A0B00DD4A0B007B5C0B00D5
:10632C00835C0B00D14A0B00C94A0B00BF4A0B001F
:10633C00B54A0B00B95D0B00B35C0B00BB5C0B00EA
:10634C00776972696E670053797374656D20736C2D
:10635C0065657020636F6E66696775726174696FCD
:10636C006E20697320696E76616C69642E006170B1
:10637C00700025592D256D2D25645425483A254D41
:10638C003A2553257A0061736374696D65000000CA
:10639C000000000000000000F5520B00FB520B0047
:1063AC0039530B0009530B00F7520B00000000008F
:1063BC000000000035580B0025580B0027580B0027
:1063CC0000000000000000001B590B0083590B005B
:1063DC0059590B00354F0B004B590B001D590B0035
:1063EC002D590B007D590B0087500B003D590B00AC
:1063FC0015590B0000000000000000007B5A0B0038
:10640C00715A0B00675A0B001D5A0B005B5A0B009C
:10641C004F5A0B007B5C0B00835C0B00435A0B0048
:10642C003B5A0B00315A0B00275A0B00B95D0B007D
:10643C00B35C0B00BB5C0B00000000000000000014
:10644C00B55A0B00215B0B00F95A0B00354F0B00B2
:10645C00C95A0B00E55A0B00D75A0B00F35A0B0024
:10646C0087500B00B75A0B00BB5A0B000000000002
:10647C0000000000955B0B00DF5B0B00B75B0B00B3
:10648C00975B0B00BF5B0B00C75B0B00CF5B0B007C
:10649C00D75B0B0087500B000000000000000000D1
:1064AC003B5C0B00455C0B004F5C0B00595C0B001C
:1064BC00635C0B006F5C0B007B5C0B00835C0B0064
:1064CC008B5C0B00975C0B009F5C0B00A95C0B00BA
:1064DC00B95D0B00B35C0B00BB5C0B000052454577
:1064EC004E54206D616C6C6F6320737563636565CE
:1064FC00646564002F6D6E742F776F726B737061AF
:10650C0063652F776F726B73706163652F474343BD
:10651C002D31302D706970656C696E652F6A656EF2
:10652C006B696E732D4743432D31302D7069706547
:10653C006C696E652D34385F323032303131323423
:10654C005F313630363138303634312F7372632F39
:10655C006E65776C69622F6E65776C69622F6C69FA
:10656C0062632F7374646C69622F72616E642E6344
:10657C000000000055450B001D4B0B00A14C0B00FF
:10658C00254F0B00DD500B0061510B007D510B00B2
:08659C00855A0B00CD5D0B00D8
:1065A400040000001400000003000000474E5500E2
:1065B400D1B89FB8E77A9E720C1CF910522A76BCA7
:0465C4007F32885C3E
:1065C800FE620B0092630B005CE5032000000000F4
:1065D80000000000000000000000000000000000B3
:1065E80000000000000000000000000000000000A3
:1065F8000000000000000000000000000000000093
:106608000000000000000000000000000000000082
:106618000000000000000000000000000000000072
:10662800000000000000000000000000F8E7032060
:04663800000000005E
:1066420000000102030405060708090A0B0C0D0EDF
:106652000F101112131415161718191A1B1C1D1ED0
:046662001F202800CD
:04666600785634121C
:04000003B000401CED
:00000001FF
